{
	"contracts/CertificateVerifier.sol": {
		"CertificateVerifier": {
			"abi": [
				{
					"inputs": [],
					"stateMutability": "nonpayable",
					"type": "constructor"
				},
				{
					"anonymous": false,
					"inputs": [
						{
							"indexed": true,
							"internalType": "bytes32",
							"name": "certificateId",
							"type": "bytes32"
						},
						{
							"indexed": false,
							"internalType": "string",
							"name": "studentName",
							"type": "string"
						},
						{
							"indexed": false,
							"internalType": "string",
							"name": "courseName",
							"type": "string"
						},
						{
							"indexed": false,
							"internalType": "string",
							"name": "ipfsHash",
							"type": "string"
						},
						{
							"indexed": true,
							"internalType": "address",
							"name": "issuer",
							"type": "address"
						}
					],
					"name": "CertificateIssued",
					"type": "event"
				},
				{
					"anonymous": false,
					"inputs": [
						{
							"indexed": true,
							"internalType": "bytes32",
							"name": "certificateId",
							"type": "bytes32"
						}
					],
					"name": "CertificateRevoked",
					"type": "event"
				},
				{
					"inputs": [
						{
							"internalType": "bytes32",
							"name": "",
							"type": "bytes32"
						}
					],
					"name": "certificates",
					"outputs": [
						{
							"internalType": "string",
							"name": "issuerName",
							"type": "string"
						},
						{
							"internalType": "string",
							"name": "studentName",
							"type": "string"
						},
						{
							"internalType": "string",
							"name": "courseName",
							"type": "string"
						},
						{
							"internalType": "string",
							"name": "ipfsHash",
							"type": "string"
						},
						{
							"internalType": "uint256",
							"name": "issueDate",
							"type": "uint256"
						},
						{
							"internalType": "bool",
							"name": "isValid",
							"type": "bool"
						},
						{
							"internalType": "address",
							"name": "issuer",
							"type": "address"
						}
					],
					"stateMutability": "view",
					"type": "function"
				},
				{
					"inputs": [
						{
							"internalType": "string",
							"name": "",
							"type": "string"
						}
					],
					"name": "cidToCertificateId",
					"outputs": [
						{
							"internalType": "bytes32",
							"name": "",
							"type": "bytes32"
						}
					],
					"stateMutability": "view",
					"type": "function"
				},
				{
					"inputs": [
						{
							"internalType": "string",
							"name": "_issuerName",
							"type": "string"
						},
						{
							"internalType": "string",
							"name": "_studentName",
							"type": "string"
						},
						{
							"internalType": "string",
							"name": "_courseName",
							"type": "string"
						},
						{
							"internalType": "string",
							"name": "_ipfsHash",
							"type": "string"
						}
					],
					"name": "issueCertificate",
					"outputs": [
						{
							"internalType": "bytes32",
							"name": "",
							"type": "bytes32"
						}
					],
					"stateMutability": "nonpayable",
					"type": "function"
				},
				{
					"inputs": [],
					"name": "owner",
					"outputs": [
						{
							"internalType": "address",
							"name": "",
							"type": "address"
						}
					],
					"stateMutability": "view",
					"type": "function"
				},
				{
					"inputs": [
						{
							"internalType": "bytes32",
							"name": "_certificateId",
							"type": "bytes32"
						}
					],
					"name": "revokeCertificate",
					"outputs": [],
					"stateMutability": "nonpayable",
					"type": "function"
				},
				{
					"inputs": [
						{
							"internalType": "address",
							"name": "_newOwner",
							"type": "address"
						}
					],
					"name": "transferOwnership",
					"outputs": [],
					"stateMutability": "nonpayable",
					"type": "function"
				},
				{
					"inputs": [
						{
							"internalType": "string",
							"name": "_ipfsHash",
							"type": "string"
						}
					],
					"name": "verifyByCID",
					"outputs": [
						{
							"internalType": "bool",
							"name": "valid",
							"type": "bool"
						},
						{
							"internalType": "bytes32",
							"name": "certificateId",
							"type": "bytes32"
						},
						{
							"internalType": "string",
							"name": "issuerName",
							"type": "string"
						},
						{
							"internalType": "string",
							"name": "studentName",
							"type": "string"
						},
						{
							"internalType": "string",
							"name": "courseName",
							"type": "string"
						},
						{
							"internalType": "uint256",
							"name": "issueDate",
							"type": "uint256"
						},
						{
							"internalType": "address",
							"name": "issuer",
							"type": "address"
						}
					],
					"stateMutability": "view",
					"type": "function"
				},
				{
					"inputs": [
						{
							"internalType": "bytes32",
							"name": "_certificateId",
							"type": "bytes32"
						}
					],
					"name": "verifyById",
					"outputs": [
						{
							"internalType": "bool",
							"name": "valid",
							"type": "bool"
						},
						{
							"internalType": "string",
							"name": "issuerName",
							"type": "string"
						},
						{
							"internalType": "string",
							"name": "studentName",
							"type": "string"
						},
						{
							"internalType": "string",
							"name": "courseName",
							"type": "string"
						},
						{
							"internalType": "string",
							"name": "ipfsHash",
							"type": "string"
						},
						{
							"internalType": "uint256",
							"name": "issueDate",
							"type": "uint256"
						},
						{
							"internalType": "address",
							"name": "issuer",
							"type": "address"
						}
					],
					"stateMutability": "view",
					"type": "function"
				}
			],
			"devdoc": {
				"kind": "dev",
				"methods": {},
				"version": 1
			},
			"evm": {
				"assembly": "    /* \"contracts/CertificateVerifier.sol\":58:4259  contract CertificateVerifier {... */\n  mstore(0x40, 0x80)\n    /* \"contracts/CertificateVerifier.sol\":867:916  constructor() {... */\n  callvalue\n  dup1\n  iszero\n  tag_1\n  jumpi\n  revert(0x00, 0x00)\ntag_1:\n  pop\n    /* \"contracts/CertificateVerifier.sol\":899:909  msg.sender */\n  caller\n    /* \"contracts/CertificateVerifier.sol\":891:896  owner */\n  0x02\n  0x00\n    /* \"contracts/CertificateVerifier.sol\":891:909  owner = msg.sender */\n  0x0100\n  exp\n  dup2\n  sload\n  dup2\n  0xffffffffffffffffffffffffffffffffffffffff\n  mul\n  not\n  and\n  swap1\n  dup4\n  0xffffffffffffffffffffffffffffffffffffffff\n  and\n  mul\n  or\n  swap1\n  sstore\n  pop\n    /* \"contracts/CertificateVerifier.sol\":58:4259  contract CertificateVerifier {... */\n  dataSize(sub_0)\n  dup1\n  dataOffset(sub_0)\n  0x00\n  codecopy\n  0x00\n  return\nstop\n\nsub_0: assembly {\n        /* \"contracts/CertificateVerifier.sol\":58:4259  contract CertificateVerifier {... */\n      mstore(0x40, 0x80)\n      callvalue\n      dup1\n      iszero\n      tag_1\n      jumpi\n      revert(0x00, 0x00)\n    tag_1:\n      pop\n      jumpi(tag_2, lt(calldatasize, 0x04))\n      shr(0xe0, calldataload(0x00))\n      dup1\n      0x8da5cb5b\n      gt\n      tag_11\n      jumpi\n      dup1\n      0x8da5cb5b\n      eq\n      tag_7\n      jumpi\n      dup1\n      0xabe692d2\n      eq\n      tag_8\n      jumpi\n      dup1\n      0xc6cbc52a\n      eq\n      tag_9\n      jumpi\n      dup1\n      0xf2fde38b\n      eq\n      tag_10\n      jumpi\n      jump(tag_2)\n    tag_11:\n      dup1\n      0x2451a282\n      eq\n      tag_3\n      jumpi\n      dup1\n      0x742f0688\n      eq\n      tag_4\n      jumpi\n      dup1\n      0x818a2994\n      eq\n      tag_5\n      jumpi\n      dup1\n      0x836ae771\n      eq\n      tag_6\n      jumpi\n    tag_2:\n      revert(0x00, 0x00)\n        /* \"contracts/CertificateVerifier.sol\":2866:3543  function verifyByCID(string memory _ipfsHash)... */\n    tag_3:\n      tag_12\n      0x04\n      dup1\n      calldatasize\n      sub\n      dup2\n      add\n      swap1\n      tag_13\n      swap2\n      swap1\n      tag_14\n      jump\t// in\n    tag_13:\n      tag_15\n      jump\t// in\n    tag_12:\n      mload(0x40)\n      tag_16\n      swap8\n      swap7\n      swap6\n      swap5\n      swap4\n      swap3\n      swap2\n      swap1\n      tag_17\n      jump\t// in\n    tag_16:\n      mload(0x40)\n      dup1\n      swap2\n      sub\n      swap1\n      return\n        /* \"contracts/CertificateVerifier.sol\":305:356  mapping(bytes32 => Certificate) public certificates */\n    tag_4:\n      tag_18\n      0x04\n      dup1\n      calldatasize\n      sub\n      dup2\n      add\n      swap1\n      tag_19\n      swap2\n      swap1\n      tag_20\n      jump\t// in\n    tag_19:\n      tag_21\n      jump\t// in\n    tag_18:\n      mload(0x40)\n      tag_22\n      swap8\n      swap7\n      swap6\n      swap5\n      swap4\n      swap3\n      swap2\n      swap1\n      tag_23\n      jump\t// in\n    tag_22:\n      mload(0x40)\n      dup1\n      swap2\n      sub\n      swap1\n      return\n        /* \"contracts/CertificateVerifier.sol\":951:2163  function issueCertificate(... */\n    tag_5:\n      tag_24\n      0x04\n      dup1\n      calldatasize\n      sub\n      dup2\n      add\n      swap1\n      tag_25\n      swap2\n      swap1\n      tag_26\n      jump\t// in\n    tag_25:\n      tag_27\n      jump\t// in\n    tag_24:\n      mload(0x40)\n      tag_28\n      swap2\n      swap1\n      tag_29\n      jump\t// in\n    tag_28:\n      mload(0x40)\n      dup1\n      swap2\n      sub\n      swap1\n      return\n        /* \"contracts/CertificateVerifier.sol\":382:434  mapping(string => bytes32) public cidToCertificateId */\n    tag_6:\n      tag_30\n      0x04\n      dup1\n      calldatasize\n      sub\n      dup2\n      add\n      swap1\n      tag_31\n      swap2\n      swap1\n      tag_14\n      jump\t// in\n    tag_31:\n      tag_32\n      jump\t// in\n    tag_30:\n      mload(0x40)\n      tag_33\n      swap2\n      swap1\n      tag_29\n      jump\t// in\n    tag_33:\n      mload(0x40)\n      dup1\n      swap2\n      sub\n      swap1\n      return\n        /* \"contracts/CertificateVerifier.sol\":471:491  address public owner */\n    tag_7:\n      tag_34\n      tag_35\n      jump\t// in\n    tag_34:\n      mload(0x40)\n      tag_36\n      swap2\n      swap1\n      tag_37\n      jump\t// in\n    tag_36:\n      mload(0x40)\n      dup1\n      swap2\n      sub\n      swap1\n      return\n        /* \"contracts/CertificateVerifier.sol\":2205:2830  function verifyById(bytes32 _certificateId)... */\n    tag_8:\n      tag_38\n      0x04\n      dup1\n      calldatasize\n      sub\n      dup2\n      add\n      swap1\n      tag_39\n      swap2\n      swap1\n      tag_20\n      jump\t// in\n    tag_39:\n      tag_40\n      jump\t// in\n    tag_38:\n      mload(0x40)\n      tag_41\n      swap8\n      swap7\n      swap6\n      swap5\n      swap4\n      swap3\n      swap2\n      swap1\n      tag_42\n      jump\t// in\n    tag_41:\n      mload(0x40)\n      dup1\n      swap2\n      sub\n      swap1\n      return\n        /* \"contracts/CertificateVerifier.sol\":3602:4052  function revokeCertificate(bytes32 _certificateId) public {... */\n    tag_9:\n      tag_43\n      0x04\n      dup1\n      calldatasize\n      sub\n      dup2\n      add\n      swap1\n      tag_44\n      swap2\n      swap1\n      tag_20\n      jump\t// in\n    tag_44:\n      tag_45\n      jump\t// in\n    tag_43:\n      stop\n        /* \"contracts/CertificateVerifier.sol\":4082:4257  function transferOwnership(address _newOwner) public onlyOwner {... */\n    tag_10:\n      tag_46\n      0x04\n      dup1\n      calldatasize\n      sub\n      dup2\n      add\n      swap1\n      tag_47\n      swap2\n      swap1\n      tag_48\n      jump\t// in\n    tag_47:\n      tag_49\n      jump\t// in\n    tag_46:\n      stop\n        /* \"contracts/CertificateVerifier.sol\":2866:3543  function verifyByCID(string memory _ipfsHash)... */\n    tag_15:\n        /* \"contracts/CertificateVerifier.sol\":2970:2980  bool valid */\n      0x00\n        /* \"contracts/CertificateVerifier.sol\":2994:3015  bytes32 certificateId */\n      0x00\n        /* \"contracts/CertificateVerifier.sol\":3029:3053  string memory issuerName */\n      0x60\n        /* \"contracts/CertificateVerifier.sol\":3067:3092  string memory studentName */\n      dup1\n        /* \"contracts/CertificateVerifier.sol\":3106:3130  string memory courseName */\n      0x60\n        /* \"contracts/CertificateVerifier.sol\":3144:3161  uint256 issueDate */\n      0x00\n        /* \"contracts/CertificateVerifier.sol\":3175:3189  address issuer */\n      0x00\n        /* \"contracts/CertificateVerifier.sol\":3214:3228  bytes32 certId */\n      0x00\n        /* \"contracts/CertificateVerifier.sol\":3231:3249  cidToCertificateId */\n      0x01\n        /* \"contracts/CertificateVerifier.sol\":3250:3259  _ipfsHash */\n      dup10\n        /* \"contracts/CertificateVerifier.sol\":3231:3260  cidToCertificateId[_ipfsHash] */\n      mload(0x40)\n      tag_51\n      swap2\n      swap1\n      tag_52\n      jump\t// in\n    tag_51:\n      swap1\n      dup2\n      mstore\n      0x20\n      add\n      mload(0x40)\n      dup1\n      swap2\n      sub\n      swap1\n      keccak256\n      sload\n        /* \"contracts/CertificateVerifier.sol\":3214:3260  bytes32 certId = cidToCertificateId[_ipfsHash] */\n      swap1\n      pop\n        /* \"contracts/CertificateVerifier.sol\":3270:3293  Certificate memory cert */\n      0x00\n        /* \"contracts/CertificateVerifier.sol\":3296:3308  certificates */\n      0x00\n        /* \"contracts/CertificateVerifier.sol\":3296:3316  certificates[certId] */\n      0x00\n        /* \"contracts/CertificateVerifier.sol\":3309:3315  certId */\n      dup4\n        /* \"contracts/CertificateVerifier.sol\":3296:3316  certificates[certId] */\n      dup2\n      mstore\n      0x20\n      add\n      swap1\n      dup2\n      mstore\n      0x20\n      add\n      0x00\n      keccak256\n        /* \"contracts/CertificateVerifier.sol\":3270:3316  Certificate memory cert = certificates[certId] */\n      mload(0x40)\n      dup1\n      0xe0\n      add\n      0x40\n      mstore\n      swap1\n      dup2\n      0x00\n      dup3\n      add\n      dup1\n      sload\n      tag_53\n      swap1\n      tag_54\n      jump\t// in\n    tag_53:\n      dup1\n      0x1f\n      add\n      0x20\n      dup1\n      swap2\n      div\n      mul\n      0x20\n      add\n      mload(0x40)\n      swap1\n      dup2\n      add\n      0x40\n      mstore\n      dup1\n      swap3\n      swap2\n      swap1\n      dup2\n      dup2\n      mstore\n      0x20\n      add\n      dup3\n      dup1\n      sload\n      tag_55\n      swap1\n      tag_54\n      jump\t// in\n    tag_55:\n      dup1\n      iszero\n      tag_56\n      jumpi\n      dup1\n      0x1f\n      lt\n      tag_57\n      jumpi\n      0x0100\n      dup1\n      dup4\n      sload\n      div\n      mul\n      dup4\n      mstore\n      swap2\n      0x20\n      add\n      swap2\n      jump(tag_56)\n    tag_57:\n      dup3\n      add\n      swap2\n      swap1\n      0x00\n      mstore\n      keccak256(0x00, 0x20)\n      swap1\n    tag_58:\n      dup2\n      sload\n      dup2\n      mstore\n      swap1\n      0x01\n      add\n      swap1\n      0x20\n      add\n      dup1\n      dup4\n      gt\n      tag_58\n      jumpi\n      dup3\n      swap1\n      sub\n      0x1f\n      and\n      dup3\n      add\n      swap2\n    tag_56:\n      pop\n      pop\n      pop\n      pop\n      pop\n      dup2\n      mstore\n      0x20\n      add\n      0x01\n      dup3\n      add\n      dup1\n      sload\n      tag_59\n      swap1\n      tag_54\n      jump\t// in\n    tag_59:\n      dup1\n      0x1f\n      add\n      0x20\n      dup1\n      swap2\n      div\n      mul\n      0x20\n      add\n      mload(0x40)\n      swap1\n      dup2\n      add\n      0x40\n      mstore\n      dup1\n      swap3\n      swap2\n      swap1\n      dup2\n      dup2\n      mstore\n      0x20\n      add\n      dup3\n      dup1\n      sload\n      tag_60\n      swap1\n      tag_54\n      jump\t// in\n    tag_60:\n      dup1\n      iszero\n      tag_61\n      jumpi\n      dup1\n      0x1f\n      lt\n      tag_62\n      jumpi\n      0x0100\n      dup1\n      dup4\n      sload\n      div\n      mul\n      dup4\n      mstore\n      swap2\n      0x20\n      add\n      swap2\n      jump(tag_61)\n    tag_62:\n      dup3\n      add\n      swap2\n      swap1\n      0x00\n      mstore\n      keccak256(0x00, 0x20)\n      swap1\n    tag_63:\n      dup2\n      sload\n      dup2\n      mstore\n      swap1\n      0x01\n      add\n      swap1\n      0x20\n      add\n      dup1\n      dup4\n      gt\n      tag_63\n      jumpi\n      dup3\n      swap1\n      sub\n      0x1f\n      and\n      dup3\n      add\n      swap2\n    tag_61:\n      pop\n      pop\n      pop\n      pop\n      pop\n      dup2\n      mstore\n      0x20\n      add\n      0x02\n      dup3\n      add\n      dup1\n      sload\n      tag_64\n      swap1\n      tag_54\n      jump\t// in\n    tag_64:\n      dup1\n      0x1f\n      add\n      0x20\n      dup1\n      swap2\n      div\n      mul\n      0x20\n      add\n      mload(0x40)\n      swap1\n      dup2\n      add\n      0x40\n      mstore\n      dup1\n      swap3\n      swap2\n      swap1\n      dup2\n      dup2\n      mstore\n      0x20\n      add\n      dup3\n      dup1\n      sload\n      tag_65\n      swap1\n      tag_54\n      jump\t// in\n    tag_65:\n      dup1\n      iszero\n      tag_66\n      jumpi\n      dup1\n      0x1f\n      lt\n      tag_67\n      jumpi\n      0x0100\n      dup1\n      dup4\n      sload\n      div\n      mul\n      dup4\n      mstore\n      swap2\n      0x20\n      add\n      swap2\n      jump(tag_66)\n    tag_67:\n      dup3\n      add\n      swap2\n      swap1\n      0x00\n      mstore\n      keccak256(0x00, 0x20)\n      swap1\n    tag_68:\n      dup2\n      sload\n      dup2\n      mstore\n      swap1\n      0x01\n      add\n      swap1\n      0x20\n      add\n      dup1\n      dup4\n      gt\n      tag_68\n      jumpi\n      dup3\n      swap1\n      sub\n      0x1f\n      and\n      dup3\n      add\n      swap2\n    tag_66:\n      pop\n      pop\n      pop\n      pop\n      pop\n      dup2\n      mstore\n      0x20\n      add\n      0x03\n      dup3\n      add\n      dup1\n      sload\n      tag_69\n      swap1\n      tag_54\n      jump\t// in\n    tag_69:\n      dup1\n      0x1f\n      add\n      0x20\n      dup1\n      swap2\n      div\n      mul\n      0x20\n      add\n      mload(0x40)\n      swap1\n      dup2\n      add\n      0x40\n      mstore\n      dup1\n      swap3\n      swap2\n      swap1\n      dup2\n      dup2\n      mstore\n      0x20\n      add\n      dup3\n      dup1\n      sload\n      tag_70\n      swap1\n      tag_54\n      jump\t// in\n    tag_70:\n      dup1\n      iszero\n      tag_71\n      jumpi\n      dup1\n      0x1f\n      lt\n      tag_72\n      jumpi\n      0x0100\n      dup1\n      dup4\n      sload\n      div\n      mul\n      dup4\n      mstore\n      swap2\n      0x20\n      add\n      swap2\n      jump(tag_71)\n    tag_72:\n      dup3\n      add\n      swap2\n      swap1\n      0x00\n      mstore\n      keccak256(0x00, 0x20)\n      swap1\n    tag_73:\n      dup2\n      sload\n      dup2\n      mstore\n      swap1\n      0x01\n      add\n      swap1\n      0x20\n      add\n      dup1\n      dup4\n      gt\n      tag_73\n      jumpi\n      dup3\n      swap1\n      sub\n      0x1f\n      and\n      dup3\n      add\n      swap2\n    tag_71:\n      pop\n      pop\n      pop\n      pop\n      pop\n      dup2\n      mstore\n      0x20\n      add\n      0x04\n      dup3\n      add\n      sload\n      dup2\n      mstore\n      0x20\n      add\n      0x05\n      dup3\n      add\n      0x00\n      swap1\n      sload\n      swap1\n      0x0100\n      exp\n      swap1\n      div\n      0xff\n      and\n      iszero\n      iszero\n      iszero\n      iszero\n      dup2\n      mstore\n      0x20\n      add\n      0x05\n      dup3\n      add\n      0x01\n      swap1\n      sload\n      swap1\n      0x0100\n      exp\n      swap1\n      div\n      0xffffffffffffffffffffffffffffffffffffffff\n      and\n      0xffffffffffffffffffffffffffffffffffffffff\n      and\n      0xffffffffffffffffffffffffffffffffffffffff\n      and\n      dup2\n      mstore\n      pop\n      pop\n      swap1\n      pop\n        /* \"contracts/CertificateVerifier.sol\":3332:3336  cert */\n      dup1\n        /* \"contracts/CertificateVerifier.sol\":3332:3344  cert.isValid */\n      0xa0\n      add\n      mload\n        /* \"contracts/CertificateVerifier.sol\":3327:3424  if (!cert.isValid) {... */\n      tag_74\n      jumpi\n        /* \"contracts/CertificateVerifier.sol\":3368:3373  false */\n      0x00\n        /* \"contracts/CertificateVerifier.sol\":3383:3384  0 */\n      0x00\n        /* \"contracts/CertificateVerifier.sol\":3375:3385  bytes32(0) */\n      0x00\n      shl\n        /* \"contracts/CertificateVerifier.sol\":3399:3400  0 */\n      0x00\n        /* \"contracts/CertificateVerifier.sol\":3410:3411  0 */\n      0x00\n        /* \"contracts/CertificateVerifier.sol\":3360:3413  return (false, bytes32(0), \"\", \"\", \"\", 0, address(0)) */\n      mload(0x40)\n      dup1\n      0x20\n      add\n      0x40\n      mstore\n      dup1\n      0x00\n      dup2\n      mstore\n      pop\n      swap2\n      swap1\n      mload(0x40)\n      dup1\n      0x20\n      add\n      0x40\n      mstore\n      dup1\n      0x00\n      dup2\n      mstore\n      pop\n      swap2\n      swap1\n      mload(0x40)\n      dup1\n      0x20\n      add\n      0x40\n      mstore\n      dup1\n      0x00\n      dup2\n      mstore\n      pop\n      swap2\n      swap1\n      swap9\n      pop\n      swap9\n      pop\n      swap9\n      pop\n      swap9\n      pop\n      swap9\n      pop\n      swap9\n      pop\n      swap9\n      pop\n      pop\n      pop\n      jump(tag_50)\n        /* \"contracts/CertificateVerifier.sol\":3327:3424  if (!cert.isValid) {... */\n    tag_74:\n        /* \"contracts/CertificateVerifier.sol\":3442:3446  true */\n      0x01\n        /* \"contracts/CertificateVerifier.sol\":3448:3454  certId */\n      dup3\n        /* \"contracts/CertificateVerifier.sol\":3456:3460  cert */\n      dup3\n        /* \"contracts/CertificateVerifier.sol\":3456:3471  cert.issuerName */\n      0x00\n      add\n      mload\n        /* \"contracts/CertificateVerifier.sol\":3473:3477  cert */\n      dup4\n        /* \"contracts/CertificateVerifier.sol\":3473:3489  cert.studentName */\n      0x20\n      add\n      mload\n        /* \"contracts/CertificateVerifier.sol\":3491:3495  cert */\n      dup5\n        /* \"contracts/CertificateVerifier.sol\":3491:3506  cert.courseName */\n      0x40\n      add\n      mload\n        /* \"contracts/CertificateVerifier.sol\":3508:3512  cert */\n      dup6\n        /* \"contracts/CertificateVerifier.sol\":3508:3522  cert.issueDate */\n      0x80\n      add\n      mload\n        /* \"contracts/CertificateVerifier.sol\":3524:3528  cert */\n      dup7\n        /* \"contracts/CertificateVerifier.sol\":3524:3535  cert.issuer */\n      0xc0\n      add\n      mload\n        /* \"contracts/CertificateVerifier.sol\":3434:3536  return (true, certId, cert.issuerName, cert.studentName, cert.courseName, cert.issueDate, cert.issuer) */\n      swap9\n      pop\n      swap9\n      pop\n      swap9\n      pop\n      swap9\n      pop\n      swap9\n      pop\n      swap9\n      pop\n      swap9\n      pop\n      pop\n      pop\n        /* \"contracts/CertificateVerifier.sol\":2866:3543  function verifyByCID(string memory _ipfsHash)... */\n    tag_50:\n      swap2\n      swap4\n      swap6\n      swap8\n      swap1\n      swap3\n      swap5\n      swap7\n      pop\n      jump\t// out\n        /* \"contracts/CertificateVerifier.sol\":305:356  mapping(bytes32 => Certificate) public certificates */\n    tag_21:\n      mstore(0x20, 0x00)\n      dup1\n      0x00\n      mstore\n      keccak256(0x00, 0x40)\n      0x00\n      swap2\n      pop\n      swap1\n      pop\n      dup1\n      0x00\n      add\n      dup1\n      sload\n      tag_75\n      swap1\n      tag_54\n      jump\t// in\n    tag_75:\n      dup1\n      0x1f\n      add\n      0x20\n      dup1\n      swap2\n      div\n      mul\n      0x20\n      add\n      mload(0x40)\n      swap1\n      dup2\n      add\n      0x40\n      mstore\n      dup1\n      swap3\n      swap2\n      swap1\n      dup2\n      dup2\n      mstore\n      0x20\n      add\n      dup3\n      dup1\n      sload\n      tag_76\n      swap1\n      tag_54\n      jump\t// in\n    tag_76:\n      dup1\n      iszero\n      tag_77\n      jumpi\n      dup1\n      0x1f\n      lt\n      tag_78\n      jumpi\n      0x0100\n      dup1\n      dup4\n      sload\n      div\n      mul\n      dup4\n      mstore\n      swap2\n      0x20\n      add\n      swap2\n      jump(tag_77)\n    tag_78:\n      dup3\n      add\n      swap2\n      swap1\n      0x00\n      mstore\n      keccak256(0x00, 0x20)\n      swap1\n    tag_79:\n      dup2\n      sload\n      dup2\n      mstore\n      swap1\n      0x01\n      add\n      swap1\n      0x20\n      add\n      dup1\n      dup4\n      gt\n      tag_79\n      jumpi\n      dup3\n      swap1\n      sub\n      0x1f\n      and\n      dup3\n      add\n      swap2\n    tag_77:\n      pop\n      pop\n      pop\n      pop\n      pop\n      swap1\n      dup1\n      0x01\n      add\n      dup1\n      sload\n      tag_80\n      swap1\n      tag_54\n      jump\t// in\n    tag_80:\n      dup1\n      0x1f\n      add\n      0x20\n      dup1\n      swap2\n      div\n      mul\n      0x20\n      add\n      mload(0x40)\n      swap1\n      dup2\n      add\n      0x40\n      mstore\n      dup1\n      swap3\n      swap2\n      swap1\n      dup2\n      dup2\n      mstore\n      0x20\n      add\n      dup3\n      dup1\n      sload\n      tag_81\n      swap1\n      tag_54\n      jump\t// in\n    tag_81:\n      dup1\n      iszero\n      tag_82\n      jumpi\n      dup1\n      0x1f\n      lt\n      tag_83\n      jumpi\n      0x0100\n      dup1\n      dup4\n      sload\n      div\n      mul\n      dup4\n      mstore\n      swap2\n      0x20\n      add\n      swap2\n      jump(tag_82)\n    tag_83:\n      dup3\n      add\n      swap2\n      swap1\n      0x00\n      mstore\n      keccak256(0x00, 0x20)\n      swap1\n    tag_84:\n      dup2\n      sload\n      dup2\n      mstore\n      swap1\n      0x01\n      add\n      swap1\n      0x20\n      add\n      dup1\n      dup4\n      gt\n      tag_84\n      jumpi\n      dup3\n      swap1\n      sub\n      0x1f\n      and\n      dup3\n      add\n      swap2\n    tag_82:\n      pop\n      pop\n      pop\n      pop\n      pop\n      swap1\n      dup1\n      0x02\n      add\n      dup1\n      sload\n      tag_85\n      swap1\n      tag_54\n      jump\t// in\n    tag_85:\n      dup1\n      0x1f\n      add\n      0x20\n      dup1\n      swap2\n      div\n      mul\n      0x20\n      add\n      mload(0x40)\n      swap1\n      dup2\n      add\n      0x40\n      mstore\n      dup1\n      swap3\n      swap2\n      swap1\n      dup2\n      dup2\n      mstore\n      0x20\n      add\n      dup3\n      dup1\n      sload\n      tag_86\n      swap1\n      tag_54\n      jump\t// in\n    tag_86:\n      dup1\n      iszero\n      tag_87\n      jumpi\n      dup1\n      0x1f\n      lt\n      tag_88\n      jumpi\n      0x0100\n      dup1\n      dup4\n      sload\n      div\n      mul\n      dup4\n      mstore\n      swap2\n      0x20\n      add\n      swap2\n      jump(tag_87)\n    tag_88:\n      dup3\n      add\n      swap2\n      swap1\n      0x00\n      mstore\n      keccak256(0x00, 0x20)\n      swap1\n    tag_89:\n      dup2\n      sload\n      dup2\n      mstore\n      swap1\n      0x01\n      add\n      swap1\n      0x20\n      add\n      dup1\n      dup4\n      gt\n      tag_89\n      jumpi\n      dup3\n      swap1\n      sub\n      0x1f\n      and\n      dup3\n      add\n      swap2\n    tag_87:\n      pop\n      pop\n      pop\n      pop\n      pop\n      swap1\n      dup1\n      0x03\n      add\n      dup1\n      sload\n      tag_90\n      swap1\n      tag_54\n      jump\t// in\n    tag_90:\n      dup1\n      0x1f\n      add\n      0x20\n      dup1\n      swap2\n      div\n      mul\n      0x20\n      add\n      mload(0x40)\n      swap1\n      dup2\n      add\n      0x40\n      mstore\n      dup1\n      swap3\n      swap2\n      swap1\n      dup2\n      dup2\n      mstore\n      0x20\n      add\n      dup3\n      dup1\n      sload\n      tag_91\n      swap1\n      tag_54\n      jump\t// in\n    tag_91:\n      dup1\n      iszero\n      tag_92\n      jumpi\n      dup1\n      0x1f\n      lt\n      tag_93\n      jumpi\n      0x0100\n      dup1\n      dup4\n      sload\n      div\n      mul\n      dup4\n      mstore\n      swap2\n      0x20\n      add\n      swap2\n      jump(tag_92)\n    tag_93:\n      dup3\n      add\n      swap2\n      swap1\n      0x00\n      mstore\n      keccak256(0x00, 0x20)\n      swap1\n    tag_94:\n      dup2\n      sload\n      dup2\n      mstore\n      swap1\n      0x01\n      add\n      swap1\n      0x20\n      add\n      dup1\n      dup4\n      gt\n      tag_94\n      jumpi\n      dup3\n      swap1\n      sub\n      0x1f\n      and\n      dup3\n      add\n      swap2\n    tag_92:\n      pop\n      pop\n      pop\n      pop\n      pop\n      swap1\n      dup1\n      0x04\n      add\n      sload\n      swap1\n      dup1\n      0x05\n      add\n      0x00\n      swap1\n      sload\n      swap1\n      0x0100\n      exp\n      swap1\n      div\n      0xff\n      and\n      swap1\n      dup1\n      0x05\n      add\n      0x01\n      swap1\n      sload\n      swap1\n      0x0100\n      exp\n      swap1\n      div\n      0xffffffffffffffffffffffffffffffffffffffff\n      and\n      swap1\n      pop\n      dup8\n      jump\t// out\n        /* \"contracts/CertificateVerifier.sol\":951:2163  function issueCertificate(... */\n    tag_27:\n        /* \"contracts/CertificateVerifier.sol\":1138:1145  bytes32 */\n      0x00\n        /* \"contracts/CertificateVerifier.sol\":1194:1195  0 */\n      0x00\n        /* \"contracts/CertificateVerifier.sol\":1171:1183  _studentName */\n      dup5\n        /* \"contracts/CertificateVerifier.sol\":1165:1191  bytes(_studentName).length */\n      mload\n        /* \"contracts/CertificateVerifier.sol\":1165:1195  bytes(_studentName).length > 0 */\n      gt\n        /* \"contracts/CertificateVerifier.sol\":1157:1228  require(bytes(_studentName).length > 0, \"Student name cannot be empty\") */\n      tag_96\n      jumpi\n      mload(0x40)\n      0x08c379a000000000000000000000000000000000000000000000000000000000\n      dup2\n      mstore\n      0x04\n      add\n      tag_97\n      swap1\n      tag_98\n      jump\t// in\n    tag_97:\n      mload(0x40)\n      dup1\n      swap2\n      sub\n      swap1\n      revert\n    tag_96:\n        /* \"contracts/CertificateVerifier.sol\":1274:1275  0 */\n      0x00\n        /* \"contracts/CertificateVerifier.sol\":1252:1263  _courseName */\n      dup4\n        /* \"contracts/CertificateVerifier.sol\":1246:1271  bytes(_courseName).length */\n      mload\n        /* \"contracts/CertificateVerifier.sol\":1246:1275  bytes(_courseName).length > 0 */\n      gt\n        /* \"contracts/CertificateVerifier.sol\":1238:1307  require(bytes(_courseName).length > 0, \"Course name cannot be empty\") */\n      tag_99\n      jumpi\n      mload(0x40)\n      0x08c379a000000000000000000000000000000000000000000000000000000000\n      dup2\n      mstore\n      0x04\n      add\n      tag_100\n      swap1\n      tag_101\n      jump\t// in\n    tag_100:\n      mload(0x40)\n      dup1\n      swap2\n      sub\n      swap1\n      revert\n    tag_99:\n        /* \"contracts/CertificateVerifier.sol\":1351:1352  0 */\n      0x00\n        /* \"contracts/CertificateVerifier.sol\":1331:1340  _ipfsHash */\n      dup3\n        /* \"contracts/CertificateVerifier.sol\":1325:1348  bytes(_ipfsHash).length */\n      mload\n        /* \"contracts/CertificateVerifier.sol\":1325:1352  bytes(_ipfsHash).length > 0 */\n      gt\n        /* \"contracts/CertificateVerifier.sol\":1317:1382  require(bytes(_ipfsHash).length > 0, \"IPFS hash cannot be empty\") */\n      tag_102\n      jumpi\n      mload(0x40)\n      0x08c379a000000000000000000000000000000000000000000000000000000000\n      dup2\n      mstore\n      0x04\n      add\n      tag_103\n      swap1\n      tag_104\n      jump\t// in\n    tag_103:\n      mload(0x40)\n      dup1\n      swap2\n      sub\n      swap1\n      revert\n    tag_102:\n        /* \"contracts/CertificateVerifier.sol\":1393:1414  bytes32 certificateId */\n      0x00\n        /* \"contracts/CertificateVerifier.sol\":1457:1469  _studentName */\n      dup5\n        /* \"contracts/CertificateVerifier.sol\":1471:1482  _courseName */\n      dup5\n        /* \"contracts/CertificateVerifier.sol\":1484:1493  _ipfsHash */\n      dup5\n        /* \"contracts/CertificateVerifier.sol\":1495:1510  block.timestamp */\n      timestamp\n        /* \"contracts/CertificateVerifier.sol\":1512:1522  msg.sender */\n      caller\n        /* \"contracts/CertificateVerifier.sol\":1440:1523  abi.encodePacked(_studentName, _courseName, _ipfsHash, block.timestamp, msg.sender) */\n      add(0x20, mload(0x40))\n      tag_105\n      swap6\n      swap5\n      swap4\n      swap3\n      swap2\n      swap1\n      tag_106\n      jump\t// in\n    tag_105:\n      mload(0x40)\n      0x20\n      dup2\n      dup4\n      sub\n      sub\n      dup2\n      mstore\n      swap1\n      0x40\n      mstore\n        /* \"contracts/CertificateVerifier.sol\":1417:1533  keccak256(... */\n      dup1\n      mload\n      swap1\n      0x20\n      add\n      keccak256\n        /* \"contracts/CertificateVerifier.sol\":1393:1533  bytes32 certificateId = keccak256(... */\n      swap1\n      pop\n        /* \"contracts/CertificateVerifier.sol\":1553:1565  certificates */\n      0x00\n        /* \"contracts/CertificateVerifier.sol\":1553:1580  certificates[certificateId] */\n      0x00\n        /* \"contracts/CertificateVerifier.sol\":1566:1579  certificateId */\n      dup3\n        /* \"contracts/CertificateVerifier.sol\":1553:1580  certificates[certificateId] */\n      dup2\n      mstore\n      0x20\n      add\n      swap1\n      dup2\n      mstore\n      0x20\n      add\n      0x00\n      keccak256\n        /* \"contracts/CertificateVerifier.sol\":1553:1588  certificates[certificateId].isValid */\n      0x05\n      add\n      0x00\n      swap1\n      sload\n      swap1\n      0x0100\n      exp\n      swap1\n      div\n      0xff\n      and\n        /* \"contracts/CertificateVerifier.sol\":1552:1588  !certificates[certificateId].isValid */\n      iszero\n        /* \"contracts/CertificateVerifier.sol\":1544:1619  require(!certificates[certificateId].isValid, \"Certificate already exists\") */\n      tag_107\n      jumpi\n      mload(0x40)\n      0x08c379a000000000000000000000000000000000000000000000000000000000\n      dup2\n      mstore\n      0x04\n      add\n      tag_108\n      swap1\n      tag_109\n      jump\t// in\n    tag_108:\n      mload(0x40)\n      dup1\n      swap2\n      sub\n      swap1\n      revert\n    tag_107:\n        /* \"contracts/CertificateVerifier.sol\":1660:1928  Certificate({... */\n      mload(0x40)\n      dup1\n      0xe0\n      add\n      0x40\n      mstore\n      dup1\n        /* \"contracts/CertificateVerifier.sol\":1698:1709  _issuerName */\n      dup8\n        /* \"contracts/CertificateVerifier.sol\":1660:1928  Certificate({... */\n      dup2\n      mstore\n      0x20\n      add\n        /* \"contracts/CertificateVerifier.sol\":1736:1748  _studentName */\n      dup7\n        /* \"contracts/CertificateVerifier.sol\":1660:1928  Certificate({... */\n      dup2\n      mstore\n      0x20\n      add\n        /* \"contracts/CertificateVerifier.sol\":1774:1785  _courseName */\n      dup6\n        /* \"contracts/CertificateVerifier.sol\":1660:1928  Certificate({... */\n      dup2\n      mstore\n      0x20\n      add\n        /* \"contracts/CertificateVerifier.sol\":1809:1818  _ipfsHash */\n      dup5\n        /* \"contracts/CertificateVerifier.sol\":1660:1928  Certificate({... */\n      dup2\n      mstore\n      0x20\n      add\n        /* \"contracts/CertificateVerifier.sol\":1843:1858  block.timestamp */\n      timestamp\n        /* \"contracts/CertificateVerifier.sol\":1660:1928  Certificate({... */\n      dup2\n      mstore\n      0x20\n      add\n        /* \"contracts/CertificateVerifier.sol\":1881:1885  true */\n      0x01\n        /* \"contracts/CertificateVerifier.sol\":1660:1928  Certificate({... */\n      iszero\n      iszero\n      dup2\n      mstore\n      0x20\n      add\n        /* \"contracts/CertificateVerifier.sol\":1907:1917  msg.sender */\n      caller\n        /* \"contracts/CertificateVerifier.sol\":1660:1928  Certificate({... */\n      0xffffffffffffffffffffffffffffffffffffffff\n      and\n      dup2\n      mstore\n      pop\n        /* \"contracts/CertificateVerifier.sol\":1630:1642  certificates */\n      0x00\n        /* \"contracts/CertificateVerifier.sol\":1630:1657  certificates[certificateId] */\n      0x00\n        /* \"contracts/CertificateVerifier.sol\":1643:1656  certificateId */\n      dup4\n        /* \"contracts/CertificateVerifier.sol\":1630:1657  certificates[certificateId] */\n      dup2\n      mstore\n      0x20\n      add\n      swap1\n      dup2\n      mstore\n      0x20\n      add\n      0x00\n      keccak256\n        /* \"contracts/CertificateVerifier.sol\":1630:1928  certificates[certificateId] = Certificate({... */\n      0x00\n      dup3\n      add\n      mload\n      dup2\n      0x00\n      add\n      swap1\n      dup2\n      tag_110\n      swap2\n      swap1\n      tag_111\n      jump\t// in\n    tag_110:\n      pop\n      0x20\n      dup3\n      add\n      mload\n      dup2\n      0x01\n      add\n      swap1\n      dup2\n      tag_112\n      swap2\n      swap1\n      tag_111\n      jump\t// in\n    tag_112:\n      pop\n      0x40\n      dup3\n      add\n      mload\n      dup2\n      0x02\n      add\n      swap1\n      dup2\n      tag_113\n      swap2\n      swap1\n      tag_111\n      jump\t// in\n    tag_113:\n      pop\n      0x60\n      dup3\n      add\n      mload\n      dup2\n      0x03\n      add\n      swap1\n      dup2\n      tag_114\n      swap2\n      swap1\n      tag_111\n      jump\t// in\n    tag_114:\n      pop\n      0x80\n      dup3\n      add\n      mload\n      dup2\n      0x04\n      add\n      sstore\n      0xa0\n      dup3\n      add\n      mload\n      dup2\n      0x05\n      add\n      exp(0x0100, 0x00)\n      dup2\n      sload\n      dup2\n      0xff\n      mul\n      not\n      and\n      swap1\n      dup4\n      iszero\n      iszero\n      mul\n      or\n      swap1\n      sstore\n      pop\n      0xc0\n      dup3\n      add\n      mload\n      dup2\n      0x05\n      add\n      exp(0x0100, 0x01)\n      dup2\n      sload\n      dup2\n      0xffffffffffffffffffffffffffffffffffffffff\n      mul\n      not\n      and\n      swap1\n      dup4\n      0xffffffffffffffffffffffffffffffffffffffff\n      and\n      mul\n      or\n      swap1\n      sstore\n      pop\n      swap1\n      pop\n      pop\n        /* \"contracts/CertificateVerifier.sol\":2015:2028  certificateId */\n      dup1\n        /* \"contracts/CertificateVerifier.sol\":1983:2001  cidToCertificateId */\n      0x01\n        /* \"contracts/CertificateVerifier.sol\":2002:2011  _ipfsHash */\n      dup5\n        /* \"contracts/CertificateVerifier.sol\":1983:2012  cidToCertificateId[_ipfsHash] */\n      mload(0x40)\n      tag_115\n      swap2\n      swap1\n      tag_52\n      jump\t// in\n    tag_115:\n      swap1\n      dup2\n      mstore\n      0x20\n      add\n      mload(0x40)\n      dup1\n      swap2\n      sub\n      swap1\n      keccak256\n        /* \"contracts/CertificateVerifier.sol\":1983:2028  cidToCertificateId[_ipfsHash] = certificateId */\n      dup2\n      swap1\n      sstore\n      pop\n        /* \"contracts/CertificateVerifier.sol\":2115:2125  msg.sender */\n      caller\n        /* \"contracts/CertificateVerifier.sol\":2044:2126  CertificateIssued(certificateId, _studentName, _courseName, _ipfsHash, msg.sender) */\n      0xffffffffffffffffffffffffffffffffffffffff\n      and\n        /* \"contracts/CertificateVerifier.sol\":2062:2075  certificateId */\n      dup2\n        /* \"contracts/CertificateVerifier.sol\":2044:2126  CertificateIssued(certificateId, _studentName, _courseName, _ipfsHash, msg.sender) */\n      0x547234ba365a50d63dcb772fec536a40fb0b8abd74ae7db26e7cd93308e75ce6\n        /* \"contracts/CertificateVerifier.sol\":2077:2089  _studentName */\n      dup8\n        /* \"contracts/CertificateVerifier.sol\":2091:2102  _courseName */\n      dup8\n        /* \"contracts/CertificateVerifier.sol\":2104:2113  _ipfsHash */\n      dup8\n        /* \"contracts/CertificateVerifier.sol\":2044:2126  CertificateIssued(certificateId, _studentName, _courseName, _ipfsHash, msg.sender) */\n      mload(0x40)\n      tag_116\n      swap4\n      swap3\n      swap2\n      swap1\n      tag_117\n      jump\t// in\n    tag_116:\n      mload(0x40)\n      dup1\n      swap2\n      sub\n      swap1\n      log3\n        /* \"contracts/CertificateVerifier.sol\":2143:2156  certificateId */\n      dup1\n        /* \"contracts/CertificateVerifier.sol\":2136:2156  return certificateId */\n      swap2\n      pop\n      pop\n        /* \"contracts/CertificateVerifier.sol\":951:2163  function issueCertificate(... */\n      swap5\n      swap4\n      pop\n      pop\n      pop\n      pop\n      jump\t// out\n        /* \"contracts/CertificateVerifier.sol\":382:434  mapping(string => bytes32) public cidToCertificateId */\n    tag_32:\n      0x01\n      dup2\n      dup1\n      mload\n      0x20\n      dup2\n      add\n      dup3\n      add\n      dup1\n      mload\n      dup5\n      dup3\n      mstore\n      0x20\n      dup4\n      add\n      0x20\n      dup6\n      add\n      keccak256\n      dup2\n      dup4\n      mstore\n      dup1\n      swap6\n      pop\n      pop\n      pop\n      pop\n      pop\n      pop\n      0x00\n      swap2\n      pop\n      swap1\n      pop\n      sload\n      dup2\n      jump\t// out\n        /* \"contracts/CertificateVerifier.sol\":471:491  address public owner */\n    tag_35:\n      0x02\n      0x00\n      swap1\n      sload\n      swap1\n      0x0100\n      exp\n      swap1\n      div\n      0xffffffffffffffffffffffffffffffffffffffff\n      and\n      dup2\n      jump\t// out\n        /* \"contracts/CertificateVerifier.sol\":2205:2830  function verifyById(bytes32 _certificateId)... */\n    tag_40:\n        /* \"contracts/CertificateVerifier.sol\":2307:2317  bool valid */\n      0x00\n        /* \"contracts/CertificateVerifier.sol\":2331:2355  string memory issuerName */\n      0x60\n        /* \"contracts/CertificateVerifier.sol\":2369:2394  string memory studentName */\n      dup1\n        /* \"contracts/CertificateVerifier.sol\":2408:2432  string memory courseName */\n      0x60\n        /* \"contracts/CertificateVerifier.sol\":2446:2468  string memory ipfsHash */\n      dup1\n        /* \"contracts/CertificateVerifier.sol\":2482:2499  uint256 issueDate */\n      0x00\n        /* \"contracts/CertificateVerifier.sol\":2513:2527  address issuer */\n      0x00\n        /* \"contracts/CertificateVerifier.sol\":2552:2575  Certificate memory cert */\n      0x00\n        /* \"contracts/CertificateVerifier.sol\":2578:2590  certificates */\n      0x00\n        /* \"contracts/CertificateVerifier.sol\":2578:2606  certificates[_certificateId] */\n      0x00\n        /* \"contracts/CertificateVerifier.sol\":2591:2605  _certificateId */\n      dup11\n        /* \"contracts/CertificateVerifier.sol\":2578:2606  certificates[_certificateId] */\n      dup2\n      mstore\n      0x20\n      add\n      swap1\n      dup2\n      mstore\n      0x20\n      add\n      0x00\n      keccak256\n        /* \"contracts/CertificateVerifier.sol\":2552:2606  Certificate memory cert = certificates[_certificateId] */\n      mload(0x40)\n      dup1\n      0xe0\n      add\n      0x40\n      mstore\n      swap1\n      dup2\n      0x00\n      dup3\n      add\n      dup1\n      sload\n      tag_119\n      swap1\n      tag_54\n      jump\t// in\n    tag_119:\n      dup1\n      0x1f\n      add\n      0x20\n      dup1\n      swap2\n      div\n      mul\n      0x20\n      add\n      mload(0x40)\n      swap1\n      dup2\n      add\n      0x40\n      mstore\n      dup1\n      swap3\n      swap2\n      swap1\n      dup2\n      dup2\n      mstore\n      0x20\n      add\n      dup3\n      dup1\n      sload\n      tag_120\n      swap1\n      tag_54\n      jump\t// in\n    tag_120:\n      dup1\n      iszero\n      tag_121\n      jumpi\n      dup1\n      0x1f\n      lt\n      tag_122\n      jumpi\n      0x0100\n      dup1\n      dup4\n      sload\n      div\n      mul\n      dup4\n      mstore\n      swap2\n      0x20\n      add\n      swap2\n      jump(tag_121)\n    tag_122:\n      dup3\n      add\n      swap2\n      swap1\n      0x00\n      mstore\n      keccak256(0x00, 0x20)\n      swap1\n    tag_123:\n      dup2\n      sload\n      dup2\n      mstore\n      swap1\n      0x01\n      add\n      swap1\n      0x20\n      add\n      dup1\n      dup4\n      gt\n      tag_123\n      jumpi\n      dup3\n      swap1\n      sub\n      0x1f\n      and\n      dup3\n      add\n      swap2\n    tag_121:\n      pop\n      pop\n      pop\n      pop\n      pop\n      dup2\n      mstore\n      0x20\n      add\n      0x01\n      dup3\n      add\n      dup1\n      sload\n      tag_124\n      swap1\n      tag_54\n      jump\t// in\n    tag_124:\n      dup1\n      0x1f\n      add\n      0x20\n      dup1\n      swap2\n      div\n      mul\n      0x20\n      add\n      mload(0x40)\n      swap1\n      dup2\n      add\n      0x40\n      mstore\n      dup1\n      swap3\n      swap2\n      swap1\n      dup2\n      dup2\n      mstore\n      0x20\n      add\n      dup3\n      dup1\n      sload\n      tag_125\n      swap1\n      tag_54\n      jump\t// in\n    tag_125:\n      dup1\n      iszero\n      tag_126\n      jumpi\n      dup1\n      0x1f\n      lt\n      tag_127\n      jumpi\n      0x0100\n      dup1\n      dup4\n      sload\n      div\n      mul\n      dup4\n      mstore\n      swap2\n      0x20\n      add\n      swap2\n      jump(tag_126)\n    tag_127:\n      dup3\n      add\n      swap2\n      swap1\n      0x00\n      mstore\n      keccak256(0x00, 0x20)\n      swap1\n    tag_128:\n      dup2\n      sload\n      dup2\n      mstore\n      swap1\n      0x01\n      add\n      swap1\n      0x20\n      add\n      dup1\n      dup4\n      gt\n      tag_128\n      jumpi\n      dup3\n      swap1\n      sub\n      0x1f\n      and\n      dup3\n      add\n      swap2\n    tag_126:\n      pop\n      pop\n      pop\n      pop\n      pop\n      dup2\n      mstore\n      0x20\n      add\n      0x02\n      dup3\n      add\n      dup1\n      sload\n      tag_129\n      swap1\n      tag_54\n      jump\t// in\n    tag_129:\n      dup1\n      0x1f\n      add\n      0x20\n      dup1\n      swap2\n      div\n      mul\n      0x20\n      add\n      mload(0x40)\n      swap1\n      dup2\n      add\n      0x40\n      mstore\n      dup1\n      swap3\n      swap2\n      swap1\n      dup2\n      dup2\n      mstore\n      0x20\n      add\n      dup3\n      dup1\n      sload\n      tag_130\n      swap1\n      tag_54\n      jump\t// in\n    tag_130:\n      dup1\n      iszero\n      tag_131\n      jumpi\n      dup1\n      0x1f\n      lt\n      tag_132\n      jumpi\n      0x0100\n      dup1\n      dup4\n      sload\n      div\n      mul\n      dup4\n      mstore\n      swap2\n      0x20\n      add\n      swap2\n      jump(tag_131)\n    tag_132:\n      dup3\n      add\n      swap2\n      swap1\n      0x00\n      mstore\n      keccak256(0x00, 0x20)\n      swap1\n    tag_133:\n      dup2\n      sload\n      dup2\n      mstore\n      swap1\n      0x01\n      add\n      swap1\n      0x20\n      add\n      dup1\n      dup4\n      gt\n      tag_133\n      jumpi\n      dup3\n      swap1\n      sub\n      0x1f\n      and\n      dup3\n      add\n      swap2\n    tag_131:\n      pop\n      pop\n      pop\n      pop\n      pop\n      dup2\n      mstore\n      0x20\n      add\n      0x03\n      dup3\n      add\n      dup1\n      sload\n      tag_134\n      swap1\n      tag_54\n      jump\t// in\n    tag_134:\n      dup1\n      0x1f\n      add\n      0x20\n      dup1\n      swap2\n      div\n      mul\n      0x20\n      add\n      mload(0x40)\n      swap1\n      dup2\n      add\n      0x40\n      mstore\n      dup1\n      swap3\n      swap2\n      swap1\n      dup2\n      dup2\n      mstore\n      0x20\n      add\n      dup3\n      dup1\n      sload\n      tag_135\n      swap1\n      tag_54\n      jump\t// in\n    tag_135:\n      dup1\n      iszero\n      tag_136\n      jumpi\n      dup1\n      0x1f\n      lt\n      tag_137\n      jumpi\n      0x0100\n      dup1\n      dup4\n      sload\n      div\n      mul\n      dup4\n      mstore\n      swap2\n      0x20\n      add\n      swap2\n      jump(tag_136)\n    tag_137:\n      dup3\n      add\n      swap2\n      swap1\n      0x00\n      mstore\n      keccak256(0x00, 0x20)\n      swap1\n    tag_138:\n      dup2\n      sload\n      dup2\n      mstore\n      swap1\n      0x01\n      add\n      swap1\n      0x20\n      add\n      dup1\n      dup4\n      gt\n      tag_138\n      jumpi\n      dup3\n      swap1\n      sub\n      0x1f\n      and\n      dup3\n      add\n      swap2\n    tag_136:\n      pop\n      pop\n      pop\n      pop\n      pop\n      dup2\n      mstore\n      0x20\n      add\n      0x04\n      dup3\n      add\n      sload\n      dup2\n      mstore\n      0x20\n      add\n      0x05\n      dup3\n      add\n      0x00\n      swap1\n      sload\n      swap1\n      0x0100\n      exp\n      swap1\n      div\n      0xff\n      and\n      iszero\n      iszero\n      iszero\n      iszero\n      dup2\n      mstore\n      0x20\n      add\n      0x05\n      dup3\n      add\n      0x01\n      swap1\n      sload\n      swap1\n      0x0100\n      exp\n      swap1\n      div\n      0xffffffffffffffffffffffffffffffffffffffff\n      and\n      0xffffffffffffffffffffffffffffffffffffffff\n      and\n      0xffffffffffffffffffffffffffffffffffffffff\n      and\n      dup2\n      mstore\n      pop\n      pop\n      swap1\n      pop\n        /* \"contracts/CertificateVerifier.sol\":2621:2625  cert */\n      dup1\n        /* \"contracts/CertificateVerifier.sol\":2621:2633  cert.isValid */\n      0xa0\n      add\n      mload\n        /* \"contracts/CertificateVerifier.sol\":2616:2705  if (!cert.isValid) {... */\n      tag_139\n      jumpi\n        /* \"contracts/CertificateVerifier.sol\":2657:2662  false */\n      0x00\n        /* \"contracts/CertificateVerifier.sol\":2680:2681  0 */\n      0x00\n        /* \"contracts/CertificateVerifier.sol\":2691:2692  0 */\n      0x00\n        /* \"contracts/CertificateVerifier.sol\":2649:2694  return (false, \"\", \"\", \"\", \"\", 0, address(0)) */\n      mload(0x40)\n      dup1\n      0x20\n      add\n      0x40\n      mstore\n      dup1\n      0x00\n      dup2\n      mstore\n      pop\n      swap2\n      swap1\n      mload(0x40)\n      dup1\n      0x20\n      add\n      0x40\n      mstore\n      dup1\n      0x00\n      dup2\n      mstore\n      pop\n      swap2\n      swap1\n      mload(0x40)\n      dup1\n      0x20\n      add\n      0x40\n      mstore\n      dup1\n      0x00\n      dup2\n      mstore\n      pop\n      swap2\n      swap1\n      mload(0x40)\n      dup1\n      0x20\n      add\n      0x40\n      mstore\n      dup1\n      0x00\n      dup2\n      mstore\n      pop\n      swap2\n      swap1\n      swap8\n      pop\n      swap8\n      pop\n      swap8\n      pop\n      swap8\n      pop\n      swap8\n      pop\n      swap8\n      pop\n      swap8\n      pop\n      pop\n      jump(tag_118)\n        /* \"contracts/CertificateVerifier.sol\":2616:2705  if (!cert.isValid) {... */\n    tag_139:\n        /* \"contracts/CertificateVerifier.sol\":2722:2726  true */\n      0x01\n        /* \"contracts/CertificateVerifier.sol\":2728:2732  cert */\n      dup2\n        /* \"contracts/CertificateVerifier.sol\":2728:2743  cert.issuerName */\n      0x00\n      add\n      mload\n        /* \"contracts/CertificateVerifier.sol\":2745:2749  cert */\n      dup3\n        /* \"contracts/CertificateVerifier.sol\":2745:2761  cert.studentName */\n      0x20\n      add\n      mload\n        /* \"contracts/CertificateVerifier.sol\":2763:2767  cert */\n      dup4\n        /* \"contracts/CertificateVerifier.sol\":2763:2778  cert.courseName */\n      0x40\n      add\n      mload\n        /* \"contracts/CertificateVerifier.sol\":2780:2784  cert */\n      dup5\n        /* \"contracts/CertificateVerifier.sol\":2780:2793  cert.ipfsHash */\n      0x60\n      add\n      mload\n        /* \"contracts/CertificateVerifier.sol\":2795:2799  cert */\n      dup6\n        /* \"contracts/CertificateVerifier.sol\":2795:2809  cert.issueDate */\n      0x80\n      add\n      mload\n        /* \"contracts/CertificateVerifier.sol\":2811:2815  cert */\n      dup7\n        /* \"contracts/CertificateVerifier.sol\":2811:2822  cert.issuer */\n      0xc0\n      add\n      mload\n        /* \"contracts/CertificateVerifier.sol\":2714:2823  return (true, cert.issuerName, cert.studentName, cert.courseName, cert.ipfsHash, cert.issueDate, cert.issuer) */\n      swap8\n      pop\n      swap8\n      pop\n      swap8\n      pop\n      swap8\n      pop\n      swap8\n      pop\n      swap8\n      pop\n      swap8\n      pop\n      pop\n        /* \"contracts/CertificateVerifier.sol\":2205:2830  function verifyById(bytes32 _certificateId)... */\n    tag_118:\n      swap2\n      swap4\n      swap6\n      swap8\n      swap1\n      swap3\n      swap5\n      swap7\n      pop\n      jump\t// out\n        /* \"contracts/CertificateVerifier.sol\":3602:4052  function revokeCertificate(bytes32 _certificateId) public {... */\n    tag_45:\n        /* \"contracts/CertificateVerifier.sol\":3670:3694  Certificate storage cert */\n      0x00\n        /* \"contracts/CertificateVerifier.sol\":3697:3709  certificates */\n      0x00\n        /* \"contracts/CertificateVerifier.sol\":3697:3725  certificates[_certificateId] */\n      0x00\n        /* \"contracts/CertificateVerifier.sol\":3710:3724  _certificateId */\n      dup4\n        /* \"contracts/CertificateVerifier.sol\":3697:3725  certificates[_certificateId] */\n      dup2\n      mstore\n      0x20\n      add\n      swap1\n      dup2\n      mstore\n      0x20\n      add\n      0x00\n      keccak256\n        /* \"contracts/CertificateVerifier.sol\":3670:3725  Certificate storage cert = certificates[_certificateId] */\n      swap1\n      pop\n        /* \"contracts/CertificateVerifier.sol\":3743:3747  cert */\n      dup1\n        /* \"contracts/CertificateVerifier.sol\":3743:3755  cert.isValid */\n      0x05\n      add\n      0x00\n      swap1\n      sload\n      swap1\n      0x0100\n      exp\n      swap1\n      div\n      0xff\n      and\n        /* \"contracts/CertificateVerifier.sol\":3735:3808  require(cert.isValid, \"Certificate does not exist or is already revoked\") */\n      tag_141\n      jumpi\n      mload(0x40)\n      0x08c379a000000000000000000000000000000000000000000000000000000000\n      dup2\n      mstore\n      0x04\n      add\n      tag_142\n      swap1\n      tag_143\n      jump\t// in\n    tag_142:\n      mload(0x40)\n      dup1\n      swap2\n      sub\n      swap1\n      revert\n    tag_141:\n        /* \"contracts/CertificateVerifier.sol\":3854:3864  msg.sender */\n      caller\n        /* \"contracts/CertificateVerifier.sol\":3839:3864  cert.issuer == msg.sender */\n      0xffffffffffffffffffffffffffffffffffffffff\n      and\n        /* \"contracts/CertificateVerifier.sol\":3839:3843  cert */\n      dup2\n        /* \"contracts/CertificateVerifier.sol\":3839:3850  cert.issuer */\n      0x05\n      add\n      0x01\n      swap1\n      sload\n      swap1\n      0x0100\n      exp\n      swap1\n      div\n      0xffffffffffffffffffffffffffffffffffffffff\n      and\n        /* \"contracts/CertificateVerifier.sol\":3839:3864  cert.issuer == msg.sender */\n      0xffffffffffffffffffffffffffffffffffffffff\n      and\n      eq\n        /* \"contracts/CertificateVerifier.sol\":3839:3887  cert.issuer == msg.sender || msg.sender == owner */\n      dup1\n      tag_144\n      jumpi\n      pop\n        /* \"contracts/CertificateVerifier.sol\":3882:3887  owner */\n      0x02\n      0x00\n      swap1\n      sload\n      swap1\n      0x0100\n      exp\n      swap1\n      div\n      0xffffffffffffffffffffffffffffffffffffffff\n      and\n        /* \"contracts/CertificateVerifier.sol\":3868:3887  msg.sender == owner */\n      0xffffffffffffffffffffffffffffffffffffffff\n      and\n        /* \"contracts/CertificateVerifier.sol\":3868:3878  msg.sender */\n      caller\n        /* \"contracts/CertificateVerifier.sol\":3868:3887  msg.sender == owner */\n      0xffffffffffffffffffffffffffffffffffffffff\n      and\n      eq\n        /* \"contracts/CertificateVerifier.sol\":3839:3887  cert.issuer == msg.sender || msg.sender == owner */\n    tag_144:\n        /* \"contracts/CertificateVerifier.sol\":3818:3965  require(... */\n      tag_145\n      jumpi\n      mload(0x40)\n      0x08c379a000000000000000000000000000000000000000000000000000000000\n      dup2\n      mstore\n      0x04\n      add\n      tag_146\n      swap1\n      tag_147\n      jump\t// in\n    tag_146:\n      mload(0x40)\n      dup1\n      swap2\n      sub\n      swap1\n      revert\n    tag_145:\n        /* \"contracts/CertificateVerifier.sol\":3991:3996  false */\n      0x00\n        /* \"contracts/CertificateVerifier.sol\":3976:3980  cert */\n      dup2\n        /* \"contracts/CertificateVerifier.sol\":3976:3988  cert.isValid */\n      0x05\n      add\n      0x00\n        /* \"contracts/CertificateVerifier.sol\":3976:3996  cert.isValid = false */\n      0x0100\n      exp\n      dup2\n      sload\n      dup2\n      0xff\n      mul\n      not\n      and\n      swap1\n      dup4\n      iszero\n      iszero\n      mul\n      or\n      swap1\n      sstore\n      pop\n        /* \"contracts/CertificateVerifier.sol\":4030:4044  _certificateId */\n      dup2\n        /* \"contracts/CertificateVerifier.sol\":4011:4045  CertificateRevoked(_certificateId) */\n      0x44d80a438cb4fa3b5aedbe551ce3d9382e37f446917b783e1dee70a03b4180e3\n      mload(0x40)\n      mload(0x40)\n      dup1\n      swap2\n      sub\n      swap1\n      log2\n        /* \"contracts/CertificateVerifier.sol\":3660:4052  {... */\n      pop\n        /* \"contracts/CertificateVerifier.sol\":3602:4052  function revokeCertificate(bytes32 _certificateId) public {... */\n      pop\n      jump\t// out\n        /* \"contracts/CertificateVerifier.sol\":4082:4257  function transferOwnership(address _newOwner) public onlyOwner {... */\n    tag_49:\n        /* \"contracts/CertificateVerifier.sol\":799:804  owner */\n      0x02\n      0x00\n      swap1\n      sload\n      swap1\n      0x0100\n      exp\n      swap1\n      div\n      0xffffffffffffffffffffffffffffffffffffffff\n      and\n        /* \"contracts/CertificateVerifier.sol\":785:804  msg.sender == owner */\n      0xffffffffffffffffffffffffffffffffffffffff\n      and\n        /* \"contracts/CertificateVerifier.sol\":785:795  msg.sender */\n      caller\n        /* \"contracts/CertificateVerifier.sol\":785:804  msg.sender == owner */\n      0xffffffffffffffffffffffffffffffffffffffff\n      and\n      eq\n        /* \"contracts/CertificateVerifier.sol\":777:843  require(msg.sender == owner, \"Only owner can perform this action\") */\n      tag_149\n      jumpi\n      mload(0x40)\n      0x08c379a000000000000000000000000000000000000000000000000000000000\n      dup2\n      mstore\n      0x04\n      add\n      tag_150\n      swap1\n      tag_151\n      jump\t// in\n    tag_150:\n      mload(0x40)\n      dup1\n      swap2\n      sub\n      swap1\n      revert\n    tag_149:\n        /* \"contracts/CertificateVerifier.sol\":4184:4185  0 */\n      0x00\n        /* \"contracts/CertificateVerifier.sol\":4163:4186  _newOwner != address(0) */\n      0xffffffffffffffffffffffffffffffffffffffff\n      and\n        /* \"contracts/CertificateVerifier.sol\":4163:4172  _newOwner */\n      dup2\n        /* \"contracts/CertificateVerifier.sol\":4163:4186  _newOwner != address(0) */\n      0xffffffffffffffffffffffffffffffffffffffff\n      and\n      sub\n        /* \"contracts/CertificateVerifier.sol\":4155:4223  require(_newOwner != address(0), \"New owner cannot be zero address\") */\n      tag_153\n      jumpi\n      mload(0x40)\n      0x08c379a000000000000000000000000000000000000000000000000000000000\n      dup2\n      mstore\n      0x04\n      add\n      tag_154\n      swap1\n      tag_155\n      jump\t// in\n    tag_154:\n      mload(0x40)\n      dup1\n      swap2\n      sub\n      swap1\n      revert\n    tag_153:\n        /* \"contracts/CertificateVerifier.sol\":4241:4250  _newOwner */\n      dup1\n        /* \"contracts/CertificateVerifier.sol\":4233:4238  owner */\n      0x02\n      0x00\n        /* \"contracts/CertificateVerifier.sol\":4233:4250  owner = _newOwner */\n      0x0100\n      exp\n      dup2\n      sload\n      dup2\n      0xffffffffffffffffffffffffffffffffffffffff\n      mul\n      not\n      and\n      swap1\n      dup4\n      0xffffffffffffffffffffffffffffffffffffffff\n      and\n      mul\n      or\n      swap1\n      sstore\n      pop\n        /* \"contracts/CertificateVerifier.sol\":4082:4257  function transferOwnership(address _newOwner) public onlyOwner {... */\n      pop\n      jump\t// out\n        /* \"#utility.yul\":7:82   */\n    tag_156:\n        /* \"#utility.yul\":40:46   */\n      0x00\n        /* \"#utility.yul\":73:75   */\n      0x40\n        /* \"#utility.yul\":67:76   */\n      mload\n        /* \"#utility.yul\":57:76   */\n      swap1\n      pop\n        /* \"#utility.yul\":7:82   */\n      swap1\n      jump\t// out\n        /* \"#utility.yul\":88:205   */\n    tag_157:\n        /* \"#utility.yul\":197:198   */\n      0x00\n        /* \"#utility.yul\":194:195   */\n      0x00\n        /* \"#utility.yul\":187:199   */\n      revert\n        /* \"#utility.yul\":211:328   */\n    tag_158:\n        /* \"#utility.yul\":320:321   */\n      0x00\n        /* \"#utility.yul\":317:318   */\n      0x00\n        /* \"#utility.yul\":310:322   */\n      revert\n        /* \"#utility.yul\":334:451   */\n    tag_159:\n        /* \"#utility.yul\":443:444   */\n      0x00\n        /* \"#utility.yul\":440:441   */\n      0x00\n        /* \"#utility.yul\":433:445   */\n      revert\n        /* \"#utility.yul\":457:574   */\n    tag_160:\n        /* \"#utility.yul\":566:567   */\n      0x00\n        /* \"#utility.yul\":563:564   */\n      0x00\n        /* \"#utility.yul\":556:568   */\n      revert\n        /* \"#utility.yul\":580:682   */\n    tag_161:\n        /* \"#utility.yul\":621:627   */\n      0x00\n        /* \"#utility.yul\":672:674   */\n      0x1f\n        /* \"#utility.yul\":668:675   */\n      not\n        /* \"#utility.yul\":663:665   */\n      0x1f\n        /* \"#utility.yul\":656:661   */\n      dup4\n        /* \"#utility.yul\":652:666   */\n      add\n        /* \"#utility.yul\":648:676   */\n      and\n        /* \"#utility.yul\":638:676   */\n      swap1\n      pop\n        /* \"#utility.yul\":580:682   */\n      swap2\n      swap1\n      pop\n      jump\t// out\n        /* \"#utility.yul\":688:868   */\n    tag_162:\n        /* \"#utility.yul\":736:813   */\n      0x4e487b7100000000000000000000000000000000000000000000000000000000\n        /* \"#utility.yul\":733:734   */\n      0x00\n        /* \"#utility.yul\":726:814   */\n      mstore\n        /* \"#utility.yul\":833:837   */\n      0x41\n        /* \"#utility.yul\":830:831   */\n      0x04\n        /* \"#utility.yul\":823:838   */\n      mstore\n        /* \"#utility.yul\":857:861   */\n      0x24\n        /* \"#utility.yul\":854:855   */\n      0x00\n        /* \"#utility.yul\":847:862   */\n      revert\n        /* \"#utility.yul\":874:1155   */\n    tag_163:\n        /* \"#utility.yul\":957:984   */\n      tag_235\n        /* \"#utility.yul\":979:983   */\n      dup3\n        /* \"#utility.yul\":957:984   */\n      tag_161\n      jump\t// in\n    tag_235:\n        /* \"#utility.yul\":949:955   */\n      dup2\n        /* \"#utility.yul\":945:985   */\n      add\n        /* \"#utility.yul\":1087:1093   */\n      dup2\n        /* \"#utility.yul\":1075:1085   */\n      dup2\n        /* \"#utility.yul\":1072:1094   */\n      lt\n        /* \"#utility.yul\":1051:1069   */\n      0xffffffffffffffff\n        /* \"#utility.yul\":1039:1049   */\n      dup3\n        /* \"#utility.yul\":1036:1070   */\n      gt\n        /* \"#utility.yul\":1033:1095   */\n      or\n        /* \"#utility.yul\":1030:1118   */\n      iszero\n      tag_236\n      jumpi\n        /* \"#utility.yul\":1098:1116   */\n      tag_237\n      tag_162\n      jump\t// in\n    tag_237:\n        /* \"#utility.yul\":1030:1118   */\n    tag_236:\n        /* \"#utility.yul\":1138:1148   */\n      dup1\n        /* \"#utility.yul\":1134:1136   */\n      0x40\n        /* \"#utility.yul\":1127:1149   */\n      mstore\n        /* \"#utility.yul\":917:1155   */\n      pop\n        /* \"#utility.yul\":874:1155   */\n      pop\n      pop\n      jump\t// out\n        /* \"#utility.yul\":1161:1290   */\n    tag_164:\n        /* \"#utility.yul\":1195:1201   */\n      0x00\n        /* \"#utility.yul\":1222:1242   */\n      tag_239\n      tag_156\n      jump\t// in\n    tag_239:\n        /* \"#utility.yul\":1212:1242   */\n      swap1\n      pop\n        /* \"#utility.yul\":1251:1284   */\n      tag_240\n        /* \"#utility.yul\":1279:1283   */\n      dup3\n        /* \"#utility.yul\":1271:1277   */\n      dup3\n        /* \"#utility.yul\":1251:1284   */\n      tag_163\n      jump\t// in\n    tag_240:\n        /* \"#utility.yul\":1161:1290   */\n      swap2\n      swap1\n      pop\n      jump\t// out\n        /* \"#utility.yul\":1296:1604   */\n    tag_165:\n        /* \"#utility.yul\":1358:1362   */\n      0x00\n        /* \"#utility.yul\":1448:1466   */\n      0xffffffffffffffff\n        /* \"#utility.yul\":1440:1446   */\n      dup3\n        /* \"#utility.yul\":1437:1467   */\n      gt\n        /* \"#utility.yul\":1434:1490   */\n      iszero\n      tag_242\n      jumpi\n        /* \"#utility.yul\":1470:1488   */\n      tag_243\n      tag_162\n      jump\t// in\n    tag_243:\n        /* \"#utility.yul\":1434:1490   */\n    tag_242:\n        /* \"#utility.yul\":1508:1537   */\n      tag_244\n        /* \"#utility.yul\":1530:1536   */\n      dup3\n        /* \"#utility.yul\":1508:1537   */\n      tag_161\n      jump\t// in\n    tag_244:\n        /* \"#utility.yul\":1500:1537   */\n      swap1\n      pop\n        /* \"#utility.yul\":1592:1596   */\n      0x20\n        /* \"#utility.yul\":1586:1590   */\n      dup2\n        /* \"#utility.yul\":1582:1597   */\n      add\n        /* \"#utility.yul\":1574:1597   */\n      swap1\n      pop\n        /* \"#utility.yul\":1296:1604   */\n      swap2\n      swap1\n      pop\n      jump\t// out\n        /* \"#utility.yul\":1610:1758   */\n    tag_166:\n        /* \"#utility.yul\":1708:1714   */\n      dup3\n        /* \"#utility.yul\":1703:1706   */\n      dup2\n        /* \"#utility.yul\":1698:1701   */\n      dup4\n        /* \"#utility.yul\":1685:1715   */\n      calldatacopy\n        /* \"#utility.yul\":1749:1750   */\n      0x00\n        /* \"#utility.yul\":1740:1746   */\n      dup4\n        /* \"#utility.yul\":1735:1738   */\n      dup4\n        /* \"#utility.yul\":1731:1747   */\n      add\n        /* \"#utility.yul\":1724:1751   */\n      mstore\n        /* \"#utility.yul\":1610:1758   */\n      pop\n      pop\n      pop\n      jump\t// out\n        /* \"#utility.yul\":1764:2189   */\n    tag_167:\n        /* \"#utility.yul\":1842:1847   */\n      0x00\n        /* \"#utility.yul\":1867:1933   */\n      tag_247\n        /* \"#utility.yul\":1883:1932   */\n      tag_248\n        /* \"#utility.yul\":1925:1931   */\n      dup5\n        /* \"#utility.yul\":1883:1932   */\n      tag_165\n      jump\t// in\n    tag_248:\n        /* \"#utility.yul\":1867:1933   */\n      tag_164\n      jump\t// in\n    tag_247:\n        /* \"#utility.yul\":1858:1933   */\n      swap1\n      pop\n        /* \"#utility.yul\":1956:1962   */\n      dup3\n        /* \"#utility.yul\":1949:1954   */\n      dup2\n        /* \"#utility.yul\":1942:1963   */\n      mstore\n        /* \"#utility.yul\":1994:1998   */\n      0x20\n        /* \"#utility.yul\":1987:1992   */\n      dup2\n        /* \"#utility.yul\":1983:1999   */\n      add\n        /* \"#utility.yul\":2032:2035   */\n      dup5\n        /* \"#utility.yul\":2023:2029   */\n      dup5\n        /* \"#utility.yul\":2018:2021   */\n      dup5\n        /* \"#utility.yul\":2014:2030   */\n      add\n        /* \"#utility.yul\":2011:2036   */\n      gt\n        /* \"#utility.yul\":2008:2120   */\n      iszero\n      tag_249\n      jumpi\n        /* \"#utility.yul\":2039:2118   */\n      tag_250\n      tag_160\n      jump\t// in\n    tag_250:\n        /* \"#utility.yul\":2008:2120   */\n    tag_249:\n        /* \"#utility.yul\":2129:2183   */\n      tag_251\n        /* \"#utility.yul\":2176:2182   */\n      dup5\n        /* \"#utility.yul\":2171:2174   */\n      dup3\n        /* \"#utility.yul\":2166:2169   */\n      dup6\n        /* \"#utility.yul\":2129:2183   */\n      tag_166\n      jump\t// in\n    tag_251:\n        /* \"#utility.yul\":1848:2189   */\n      pop\n        /* \"#utility.yul\":1764:2189   */\n      swap4\n      swap3\n      pop\n      pop\n      pop\n      jump\t// out\n        /* \"#utility.yul\":2209:2549   */\n    tag_168:\n        /* \"#utility.yul\":2265:2270   */\n      0x00\n        /* \"#utility.yul\":2314:2317   */\n      dup3\n        /* \"#utility.yul\":2307:2311   */\n      0x1f\n        /* \"#utility.yul\":2299:2305   */\n      dup4\n        /* \"#utility.yul\":2295:2312   */\n      add\n        /* \"#utility.yul\":2291:2318   */\n      slt\n        /* \"#utility.yul\":2281:2403   */\n      tag_253\n      jumpi\n        /* \"#utility.yul\":2322:2401   */\n      tag_254\n      tag_159\n      jump\t// in\n    tag_254:\n        /* \"#utility.yul\":2281:2403   */\n    tag_253:\n        /* \"#utility.yul\":2439:2445   */\n      dup2\n        /* \"#utility.yul\":2426:2446   */\n      calldataload\n        /* \"#utility.yul\":2464:2543   */\n      tag_255\n        /* \"#utility.yul\":2539:2542   */\n      dup5\n        /* \"#utility.yul\":2531:2537   */\n      dup3\n        /* \"#utility.yul\":2524:2528   */\n      0x20\n        /* \"#utility.yul\":2516:2522   */\n      dup7\n        /* \"#utility.yul\":2512:2529   */\n      add\n        /* \"#utility.yul\":2464:2543   */\n      tag_167\n      jump\t// in\n    tag_255:\n        /* \"#utility.yul\":2455:2543   */\n      swap2\n      pop\n        /* \"#utility.yul\":2271:2549   */\n      pop\n        /* \"#utility.yul\":2209:2549   */\n      swap3\n      swap2\n      pop\n      pop\n      jump\t// out\n        /* \"#utility.yul\":2555:3064   */\n    tag_14:\n        /* \"#utility.yul\":2624:2630   */\n      0x00\n        /* \"#utility.yul\":2673:2675   */\n      0x20\n        /* \"#utility.yul\":2661:2670   */\n      dup3\n        /* \"#utility.yul\":2652:2659   */\n      dup5\n        /* \"#utility.yul\":2648:2671   */\n      sub\n        /* \"#utility.yul\":2644:2676   */\n      slt\n        /* \"#utility.yul\":2641:2760   */\n      iszero\n      tag_257\n      jumpi\n        /* \"#utility.yul\":2679:2758   */\n      tag_258\n      tag_157\n      jump\t// in\n    tag_258:\n        /* \"#utility.yul\":2641:2760   */\n    tag_257:\n        /* \"#utility.yul\":2827:2828   */\n      0x00\n        /* \"#utility.yul\":2816:2825   */\n      dup3\n        /* \"#utility.yul\":2812:2829   */\n      add\n        /* \"#utility.yul\":2799:2830   */\n      calldataload\n        /* \"#utility.yul\":2857:2875   */\n      0xffffffffffffffff\n        /* \"#utility.yul\":2849:2855   */\n      dup2\n        /* \"#utility.yul\":2846:2876   */\n      gt\n        /* \"#utility.yul\":2843:2960   */\n      iszero\n      tag_259\n      jumpi\n        /* \"#utility.yul\":2879:2958   */\n      tag_260\n      tag_158\n      jump\t// in\n    tag_260:\n        /* \"#utility.yul\":2843:2960   */\n    tag_259:\n        /* \"#utility.yul\":2984:3047   */\n      tag_261\n        /* \"#utility.yul\":3039:3046   */\n      dup5\n        /* \"#utility.yul\":3030:3036   */\n      dup3\n        /* \"#utility.yul\":3019:3028   */\n      dup6\n        /* \"#utility.yul\":3015:3037   */\n      add\n        /* \"#utility.yul\":2984:3047   */\n      tag_168\n      jump\t// in\n    tag_261:\n        /* \"#utility.yul\":2974:3047   */\n      swap2\n      pop\n        /* \"#utility.yul\":2770:3057   */\n      pop\n        /* \"#utility.yul\":2555:3064   */\n      swap3\n      swap2\n      pop\n      pop\n      jump\t// out\n        /* \"#utility.yul\":3070:3160   */\n    tag_169:\n        /* \"#utility.yul\":3104:3111   */\n      0x00\n        /* \"#utility.yul\":3147:3152   */\n      dup2\n        /* \"#utility.yul\":3140:3153   */\n      iszero\n        /* \"#utility.yul\":3133:3154   */\n      iszero\n        /* \"#utility.yul\":3122:3154   */\n      swap1\n      pop\n        /* \"#utility.yul\":3070:3160   */\n      swap2\n      swap1\n      pop\n      jump\t// out\n        /* \"#utility.yul\":3166:3275   */\n    tag_170:\n        /* \"#utility.yul\":3247:3268   */\n      tag_264\n        /* \"#utility.yul\":3262:3267   */\n      dup2\n        /* \"#utility.yul\":3247:3268   */\n      tag_169\n      jump\t// in\n    tag_264:\n        /* \"#utility.yul\":3242:3245   */\n      dup3\n        /* \"#utility.yul\":3235:3269   */\n      mstore\n        /* \"#utility.yul\":3166:3275   */\n      pop\n      pop\n      jump\t// out\n        /* \"#utility.yul\":3281:3358   */\n    tag_171:\n        /* \"#utility.yul\":3318:3325   */\n      0x00\n        /* \"#utility.yul\":3347:3352   */\n      dup2\n        /* \"#utility.yul\":3336:3352   */\n      swap1\n      pop\n        /* \"#utility.yul\":3281:3358   */\n      swap2\n      swap1\n      pop\n      jump\t// out\n        /* \"#utility.yul\":3364:3482   */\n    tag_172:\n        /* \"#utility.yul\":3451:3475   */\n      tag_267\n        /* \"#utility.yul\":3469:3474   */\n      dup2\n        /* \"#utility.yul\":3451:3475   */\n      tag_171\n      jump\t// in\n    tag_267:\n        /* \"#utility.yul\":3446:3449   */\n      dup3\n        /* \"#utility.yul\":3439:3476   */\n      mstore\n        /* \"#utility.yul\":3364:3482   */\n      pop\n      pop\n      jump\t// out\n        /* \"#utility.yul\":3488:3587   */\n    tag_173:\n        /* \"#utility.yul\":3540:3546   */\n      0x00\n        /* \"#utility.yul\":3574:3579   */\n      dup2\n        /* \"#utility.yul\":3568:3580   */\n      mload\n        /* \"#utility.yul\":3558:3580   */\n      swap1\n      pop\n        /* \"#utility.yul\":3488:3587   */\n      swap2\n      swap1\n      pop\n      jump\t// out\n        /* \"#utility.yul\":3593:3762   */\n    tag_174:\n        /* \"#utility.yul\":3677:3688   */\n      0x00\n        /* \"#utility.yul\":3711:3717   */\n      dup3\n        /* \"#utility.yul\":3706:3709   */\n      dup3\n        /* \"#utility.yul\":3699:3718   */\n      mstore\n        /* \"#utility.yul\":3751:3755   */\n      0x20\n        /* \"#utility.yul\":3746:3749   */\n      dup3\n        /* \"#utility.yul\":3742:3756   */\n      add\n        /* \"#utility.yul\":3727:3756   */\n      swap1\n      pop\n        /* \"#utility.yul\":3593:3762   */\n      swap3\n      swap2\n      pop\n      pop\n      jump\t// out\n        /* \"#utility.yul\":3768:3907   */\n    tag_175:\n        /* \"#utility.yul\":3857:3863   */\n      dup3\n        /* \"#utility.yul\":3852:3855   */\n      dup2\n        /* \"#utility.yul\":3847:3850   */\n      dup4\n        /* \"#utility.yul\":3841:3864   */\n      mcopy\n        /* \"#utility.yul\":3898:3899   */\n      0x00\n        /* \"#utility.yul\":3889:3895   */\n      dup4\n        /* \"#utility.yul\":3884:3887   */\n      dup4\n        /* \"#utility.yul\":3880:3896   */\n      add\n        /* \"#utility.yul\":3873:3900   */\n      mstore\n        /* \"#utility.yul\":3768:3907   */\n      pop\n      pop\n      pop\n      jump\t// out\n        /* \"#utility.yul\":3913:4290   */\n    tag_176:\n        /* \"#utility.yul\":4001:4004   */\n      0x00\n        /* \"#utility.yul\":4029:4068   */\n      tag_272\n        /* \"#utility.yul\":4062:4067   */\n      dup3\n        /* \"#utility.yul\":4029:4068   */\n      tag_173\n      jump\t// in\n    tag_272:\n        /* \"#utility.yul\":4084:4155   */\n      tag_273\n        /* \"#utility.yul\":4148:4154   */\n      dup2\n        /* \"#utility.yul\":4143:4146   */\n      dup6\n        /* \"#utility.yul\":4084:4155   */\n      tag_174\n      jump\t// in\n    tag_273:\n        /* \"#utility.yul\":4077:4155   */\n      swap4\n      pop\n        /* \"#utility.yul\":4164:4229   */\n      tag_274\n        /* \"#utility.yul\":4222:4228   */\n      dup2\n        /* \"#utility.yul\":4217:4220   */\n      dup6\n        /* \"#utility.yul\":4210:4214   */\n      0x20\n        /* \"#utility.yul\":4203:4208   */\n      dup7\n        /* \"#utility.yul\":4199:4215   */\n      add\n        /* \"#utility.yul\":4164:4229   */\n      tag_175\n      jump\t// in\n    tag_274:\n        /* \"#utility.yul\":4254:4283   */\n      tag_275\n        /* \"#utility.yul\":4276:4282   */\n      dup2\n        /* \"#utility.yul\":4254:4283   */\n      tag_161\n      jump\t// in\n    tag_275:\n        /* \"#utility.yul\":4249:4252   */\n      dup5\n        /* \"#utility.yul\":4245:4284   */\n      add\n        /* \"#utility.yul\":4238:4284   */\n      swap2\n      pop\n        /* \"#utility.yul\":4005:4290   */\n      pop\n        /* \"#utility.yul\":3913:4290   */\n      swap3\n      swap2\n      pop\n      pop\n      jump\t// out\n        /* \"#utility.yul\":4296:4373   */\n    tag_177:\n        /* \"#utility.yul\":4333:4340   */\n      0x00\n        /* \"#utility.yul\":4362:4367   */\n      dup2\n        /* \"#utility.yul\":4351:4367   */\n      swap1\n      pop\n        /* \"#utility.yul\":4296:4373   */\n      swap2\n      swap1\n      pop\n      jump\t// out\n        /* \"#utility.yul\":4379:4497   */\n    tag_178:\n        /* \"#utility.yul\":4466:4490   */\n      tag_278\n        /* \"#utility.yul\":4484:4489   */\n      dup2\n        /* \"#utility.yul\":4466:4490   */\n      tag_177\n      jump\t// in\n    tag_278:\n        /* \"#utility.yul\":4461:4464   */\n      dup3\n        /* \"#utility.yul\":4454:4491   */\n      mstore\n        /* \"#utility.yul\":4379:4497   */\n      pop\n      pop\n      jump\t// out\n        /* \"#utility.yul\":4503:4629   */\n    tag_179:\n        /* \"#utility.yul\":4540:4547   */\n      0x00\n        /* \"#utility.yul\":4580:4622   */\n      0xffffffffffffffffffffffffffffffffffffffff\n        /* \"#utility.yul\":4573:4578   */\n      dup3\n        /* \"#utility.yul\":4569:4623   */\n      and\n        /* \"#utility.yul\":4558:4623   */\n      swap1\n      pop\n        /* \"#utility.yul\":4503:4629   */\n      swap2\n      swap1\n      pop\n      jump\t// out\n        /* \"#utility.yul\":4635:4731   */\n    tag_180:\n        /* \"#utility.yul\":4672:4679   */\n      0x00\n        /* \"#utility.yul\":4701:4725   */\n      tag_281\n        /* \"#utility.yul\":4719:4724   */\n      dup3\n        /* \"#utility.yul\":4701:4725   */\n      tag_179\n      jump\t// in\n    tag_281:\n        /* \"#utility.yul\":4690:4725   */\n      swap1\n      pop\n        /* \"#utility.yul\":4635:4731   */\n      swap2\n      swap1\n      pop\n      jump\t// out\n        /* \"#utility.yul\":4737:4855   */\n    tag_181:\n        /* \"#utility.yul\":4824:4848   */\n      tag_283\n        /* \"#utility.yul\":4842:4847   */\n      dup2\n        /* \"#utility.yul\":4824:4848   */\n      tag_180\n      jump\t// in\n    tag_283:\n        /* \"#utility.yul\":4819:4822   */\n      dup3\n        /* \"#utility.yul\":4812:4849   */\n      mstore\n        /* \"#utility.yul\":4737:4855   */\n      pop\n      pop\n      jump\t// out\n        /* \"#utility.yul\":4861:6008   */\n    tag_17:\n        /* \"#utility.yul\":5176:5180   */\n      0x00\n        /* \"#utility.yul\":5214:5217   */\n      0xe0\n        /* \"#utility.yul\":5203:5212   */\n      dup3\n        /* \"#utility.yul\":5199:5218   */\n      add\n        /* \"#utility.yul\":5191:5218   */\n      swap1\n      pop\n        /* \"#utility.yul\":5228:5293   */\n      tag_285\n        /* \"#utility.yul\":5290:5291   */\n      0x00\n        /* \"#utility.yul\":5279:5288   */\n      dup4\n        /* \"#utility.yul\":5275:5292   */\n      add\n        /* \"#utility.yul\":5266:5272   */\n      dup11\n        /* \"#utility.yul\":5228:5293   */\n      tag_170\n      jump\t// in\n    tag_285:\n        /* \"#utility.yul\":5303:5375   */\n      tag_286\n        /* \"#utility.yul\":5371:5373   */\n      0x20\n        /* \"#utility.yul\":5360:5369   */\n      dup4\n        /* \"#utility.yul\":5356:5374   */\n      add\n        /* \"#utility.yul\":5347:5353   */\n      dup10\n        /* \"#utility.yul\":5303:5375   */\n      tag_172\n      jump\t// in\n    tag_286:\n        /* \"#utility.yul\":5422:5431   */\n      dup2\n        /* \"#utility.yul\":5416:5420   */\n      dup2\n        /* \"#utility.yul\":5412:5432   */\n      sub\n        /* \"#utility.yul\":5407:5409   */\n      0x40\n        /* \"#utility.yul\":5396:5405   */\n      dup4\n        /* \"#utility.yul\":5392:5410   */\n      add\n        /* \"#utility.yul\":5385:5433   */\n      mstore\n        /* \"#utility.yul\":5450:5528   */\n      tag_287\n        /* \"#utility.yul\":5523:5527   */\n      dup2\n        /* \"#utility.yul\":5514:5520   */\n      dup9\n        /* \"#utility.yul\":5450:5528   */\n      tag_176\n      jump\t// in\n    tag_287:\n        /* \"#utility.yul\":5442:5528   */\n      swap1\n      pop\n        /* \"#utility.yul\":5575:5584   */\n      dup2\n        /* \"#utility.yul\":5569:5573   */\n      dup2\n        /* \"#utility.yul\":5565:5585   */\n      sub\n        /* \"#utility.yul\":5560:5562   */\n      0x60\n        /* \"#utility.yul\":5549:5558   */\n      dup4\n        /* \"#utility.yul\":5545:5563   */\n      add\n        /* \"#utility.yul\":5538:5586   */\n      mstore\n        /* \"#utility.yul\":5603:5681   */\n      tag_288\n        /* \"#utility.yul\":5676:5680   */\n      dup2\n        /* \"#utility.yul\":5667:5673   */\n      dup8\n        /* \"#utility.yul\":5603:5681   */\n      tag_176\n      jump\t// in\n    tag_288:\n        /* \"#utility.yul\":5595:5681   */\n      swap1\n      pop\n        /* \"#utility.yul\":5729:5738   */\n      dup2\n        /* \"#utility.yul\":5723:5727   */\n      dup2\n        /* \"#utility.yul\":5719:5739   */\n      sub\n        /* \"#utility.yul\":5713:5716   */\n      0x80\n        /* \"#utility.yul\":5702:5711   */\n      dup4\n        /* \"#utility.yul\":5698:5717   */\n      add\n        /* \"#utility.yul\":5691:5740   */\n      mstore\n        /* \"#utility.yul\":5757:5835   */\n      tag_289\n        /* \"#utility.yul\":5830:5834   */\n      dup2\n        /* \"#utility.yul\":5821:5827   */\n      dup7\n        /* \"#utility.yul\":5757:5835   */\n      tag_176\n      jump\t// in\n    tag_289:\n        /* \"#utility.yul\":5749:5835   */\n      swap1\n      pop\n        /* \"#utility.yul\":5845:5918   */\n      tag_290\n        /* \"#utility.yul\":5913:5916   */\n      0xa0\n        /* \"#utility.yul\":5902:5911   */\n      dup4\n        /* \"#utility.yul\":5898:5917   */\n      add\n        /* \"#utility.yul\":5889:5895   */\n      dup6\n        /* \"#utility.yul\":5845:5918   */\n      tag_178\n      jump\t// in\n    tag_290:\n        /* \"#utility.yul\":5928:6001   */\n      tag_291\n        /* \"#utility.yul\":5996:5999   */\n      0xc0\n        /* \"#utility.yul\":5985:5994   */\n      dup4\n        /* \"#utility.yul\":5981:6000   */\n      add\n        /* \"#utility.yul\":5972:5978   */\n      dup5\n        /* \"#utility.yul\":5928:6001   */\n      tag_181\n      jump\t// in\n    tag_291:\n        /* \"#utility.yul\":4861:6008   */\n      swap9\n      swap8\n      pop\n      pop\n      pop\n      pop\n      pop\n      pop\n      pop\n      pop\n      jump\t// out\n        /* \"#utility.yul\":6014:6136   */\n    tag_182:\n        /* \"#utility.yul\":6087:6111   */\n      tag_293\n        /* \"#utility.yul\":6105:6110   */\n      dup2\n        /* \"#utility.yul\":6087:6111   */\n      tag_171\n      jump\t// in\n    tag_293:\n        /* \"#utility.yul\":6080:6085   */\n      dup2\n        /* \"#utility.yul\":6077:6112   */\n      eq\n        /* \"#utility.yul\":6067:6130   */\n      tag_294\n      jumpi\n        /* \"#utility.yul\":6126:6127   */\n      0x00\n        /* \"#utility.yul\":6123:6124   */\n      0x00\n        /* \"#utility.yul\":6116:6128   */\n      revert\n        /* \"#utility.yul\":6067:6130   */\n    tag_294:\n        /* \"#utility.yul\":6014:6136   */\n      pop\n      jump\t// out\n        /* \"#utility.yul\":6142:6281   */\n    tag_183:\n        /* \"#utility.yul\":6188:6193   */\n      0x00\n        /* \"#utility.yul\":6226:6232   */\n      dup2\n        /* \"#utility.yul\":6213:6233   */\n      calldataload\n        /* \"#utility.yul\":6204:6233   */\n      swap1\n      pop\n        /* \"#utility.yul\":6242:6275   */\n      tag_296\n        /* \"#utility.yul\":6269:6274   */\n      dup2\n        /* \"#utility.yul\":6242:6275   */\n      tag_182\n      jump\t// in\n    tag_296:\n        /* \"#utility.yul\":6142:6281   */\n      swap3\n      swap2\n      pop\n      pop\n      jump\t// out\n        /* \"#utility.yul\":6287:6616   */\n    tag_20:\n        /* \"#utility.yul\":6346:6352   */\n      0x00\n        /* \"#utility.yul\":6395:6397   */\n      0x20\n        /* \"#utility.yul\":6383:6392   */\n      dup3\n        /* \"#utility.yul\":6374:6381   */\n      dup5\n        /* \"#utility.yul\":6370:6393   */\n      sub\n        /* \"#utility.yul\":6366:6398   */\n      slt\n        /* \"#utility.yul\":6363:6482   */\n      iszero\n      tag_298\n      jumpi\n        /* \"#utility.yul\":6401:6480   */\n      tag_299\n      tag_157\n      jump\t// in\n    tag_299:\n        /* \"#utility.yul\":6363:6482   */\n    tag_298:\n        /* \"#utility.yul\":6521:6522   */\n      0x00\n        /* \"#utility.yul\":6546:6599   */\n      tag_300\n        /* \"#utility.yul\":6591:6598   */\n      dup5\n        /* \"#utility.yul\":6582:6588   */\n      dup3\n        /* \"#utility.yul\":6571:6580   */\n      dup6\n        /* \"#utility.yul\":6567:6589   */\n      add\n        /* \"#utility.yul\":6546:6599   */\n      tag_183\n      jump\t// in\n    tag_300:\n        /* \"#utility.yul\":6536:6599   */\n      swap2\n      pop\n        /* \"#utility.yul\":6492:6609   */\n      pop\n        /* \"#utility.yul\":6287:6616   */\n      swap3\n      swap2\n      pop\n      pop\n      jump\t// out\n        /* \"#utility.yul\":6622:7860   */\n    tag_23:\n        /* \"#utility.yul\":6957:6961   */\n      0x00\n        /* \"#utility.yul\":6995:6998   */\n      0xe0\n        /* \"#utility.yul\":6984:6993   */\n      dup3\n        /* \"#utility.yul\":6980:6999   */\n      add\n        /* \"#utility.yul\":6972:6999   */\n      swap1\n      pop\n        /* \"#utility.yul\":7045:7054   */\n      dup2\n        /* \"#utility.yul\":7039:7043   */\n      dup2\n        /* \"#utility.yul\":7035:7055   */\n      sub\n        /* \"#utility.yul\":7031:7032   */\n      0x00\n        /* \"#utility.yul\":7020:7029   */\n      dup4\n        /* \"#utility.yul\":7016:7033   */\n      add\n        /* \"#utility.yul\":7009:7056   */\n      mstore\n        /* \"#utility.yul\":7073:7151   */\n      tag_302\n        /* \"#utility.yul\":7146:7150   */\n      dup2\n        /* \"#utility.yul\":7137:7143   */\n      dup11\n        /* \"#utility.yul\":7073:7151   */\n      tag_176\n      jump\t// in\n    tag_302:\n        /* \"#utility.yul\":7065:7151   */\n      swap1\n      pop\n        /* \"#utility.yul\":7198:7207   */\n      dup2\n        /* \"#utility.yul\":7192:7196   */\n      dup2\n        /* \"#utility.yul\":7188:7208   */\n      sub\n        /* \"#utility.yul\":7183:7185   */\n      0x20\n        /* \"#utility.yul\":7172:7181   */\n      dup4\n        /* \"#utility.yul\":7168:7186   */\n      add\n        /* \"#utility.yul\":7161:7209   */\n      mstore\n        /* \"#utility.yul\":7226:7304   */\n      tag_303\n        /* \"#utility.yul\":7299:7303   */\n      dup2\n        /* \"#utility.yul\":7290:7296   */\n      dup10\n        /* \"#utility.yul\":7226:7304   */\n      tag_176\n      jump\t// in\n    tag_303:\n        /* \"#utility.yul\":7218:7304   */\n      swap1\n      pop\n        /* \"#utility.yul\":7351:7360   */\n      dup2\n        /* \"#utility.yul\":7345:7349   */\n      dup2\n        /* \"#utility.yul\":7341:7361   */\n      sub\n        /* \"#utility.yul\":7336:7338   */\n      0x40\n        /* \"#utility.yul\":7325:7334   */\n      dup4\n        /* \"#utility.yul\":7321:7339   */\n      add\n        /* \"#utility.yul\":7314:7362   */\n      mstore\n        /* \"#utility.yul\":7379:7457   */\n      tag_304\n        /* \"#utility.yul\":7452:7456   */\n      dup2\n        /* \"#utility.yul\":7443:7449   */\n      dup9\n        /* \"#utility.yul\":7379:7457   */\n      tag_176\n      jump\t// in\n    tag_304:\n        /* \"#utility.yul\":7371:7457   */\n      swap1\n      pop\n        /* \"#utility.yul\":7504:7513   */\n      dup2\n        /* \"#utility.yul\":7498:7502   */\n      dup2\n        /* \"#utility.yul\":7494:7514   */\n      sub\n        /* \"#utility.yul\":7489:7491   */\n      0x60\n        /* \"#utility.yul\":7478:7487   */\n      dup4\n        /* \"#utility.yul\":7474:7492   */\n      add\n        /* \"#utility.yul\":7467:7515   */\n      mstore\n        /* \"#utility.yul\":7532:7610   */\n      tag_305\n        /* \"#utility.yul\":7605:7609   */\n      dup2\n        /* \"#utility.yul\":7596:7602   */\n      dup8\n        /* \"#utility.yul\":7532:7610   */\n      tag_176\n      jump\t// in\n    tag_305:\n        /* \"#utility.yul\":7524:7610   */\n      swap1\n      pop\n        /* \"#utility.yul\":7620:7693   */\n      tag_306\n        /* \"#utility.yul\":7688:7691   */\n      0x80\n        /* \"#utility.yul\":7677:7686   */\n      dup4\n        /* \"#utility.yul\":7673:7692   */\n      add\n        /* \"#utility.yul\":7664:7670   */\n      dup7\n        /* \"#utility.yul\":7620:7693   */\n      tag_178\n      jump\t// in\n    tag_306:\n        /* \"#utility.yul\":7703:7770   */\n      tag_307\n        /* \"#utility.yul\":7765:7768   */\n      0xa0\n        /* \"#utility.yul\":7754:7763   */\n      dup4\n        /* \"#utility.yul\":7750:7769   */\n      add\n        /* \"#utility.yul\":7741:7747   */\n      dup6\n        /* \"#utility.yul\":7703:7770   */\n      tag_170\n      jump\t// in\n    tag_307:\n        /* \"#utility.yul\":7780:7853   */\n      tag_308\n        /* \"#utility.yul\":7848:7851   */\n      0xc0\n        /* \"#utility.yul\":7837:7846   */\n      dup4\n        /* \"#utility.yul\":7833:7852   */\n      add\n        /* \"#utility.yul\":7824:7830   */\n      dup5\n        /* \"#utility.yul\":7780:7853   */\n      tag_181\n      jump\t// in\n    tag_308:\n        /* \"#utility.yul\":6622:7860   */\n      swap9\n      swap8\n      pop\n      pop\n      pop\n      pop\n      pop\n      pop\n      pop\n      pop\n      jump\t// out\n        /* \"#utility.yul\":7866:9351   */\n    tag_26:\n        /* \"#utility.yul\":7992:7998   */\n      0x00\n        /* \"#utility.yul\":8000:8006   */\n      0x00\n        /* \"#utility.yul\":8008:8014   */\n      0x00\n        /* \"#utility.yul\":8016:8022   */\n      0x00\n        /* \"#utility.yul\":8065:8068   */\n      0x80\n        /* \"#utility.yul\":8053:8062   */\n      dup6\n        /* \"#utility.yul\":8044:8051   */\n      dup8\n        /* \"#utility.yul\":8040:8063   */\n      sub\n        /* \"#utility.yul\":8036:8069   */\n      slt\n        /* \"#utility.yul\":8033:8153   */\n      iszero\n      tag_310\n      jumpi\n        /* \"#utility.yul\":8072:8151   */\n      tag_311\n      tag_157\n      jump\t// in\n    tag_311:\n        /* \"#utility.yul\":8033:8153   */\n    tag_310:\n        /* \"#utility.yul\":8220:8221   */\n      0x00\n        /* \"#utility.yul\":8209:8218   */\n      dup6\n        /* \"#utility.yul\":8205:8222   */\n      add\n        /* \"#utility.yul\":8192:8223   */\n      calldataload\n        /* \"#utility.yul\":8250:8268   */\n      0xffffffffffffffff\n        /* \"#utility.yul\":8242:8248   */\n      dup2\n        /* \"#utility.yul\":8239:8269   */\n      gt\n        /* \"#utility.yul\":8236:8353   */\n      iszero\n      tag_312\n      jumpi\n        /* \"#utility.yul\":8272:8351   */\n      tag_313\n      tag_158\n      jump\t// in\n    tag_313:\n        /* \"#utility.yul\":8236:8353   */\n    tag_312:\n        /* \"#utility.yul\":8377:8440   */\n      tag_314\n        /* \"#utility.yul\":8432:8439   */\n      dup8\n        /* \"#utility.yul\":8423:8429   */\n      dup3\n        /* \"#utility.yul\":8412:8421   */\n      dup9\n        /* \"#utility.yul\":8408:8430   */\n      add\n        /* \"#utility.yul\":8377:8440   */\n      tag_168\n      jump\t// in\n    tag_314:\n        /* \"#utility.yul\":8367:8440   */\n      swap5\n      pop\n        /* \"#utility.yul\":8163:8450   */\n      pop\n        /* \"#utility.yul\":8517:8519   */\n      0x20\n        /* \"#utility.yul\":8506:8515   */\n      dup6\n        /* \"#utility.yul\":8502:8520   */\n      add\n        /* \"#utility.yul\":8489:8521   */\n      calldataload\n        /* \"#utility.yul\":8548:8566   */\n      0xffffffffffffffff\n        /* \"#utility.yul\":8540:8546   */\n      dup2\n        /* \"#utility.yul\":8537:8567   */\n      gt\n        /* \"#utility.yul\":8534:8651   */\n      iszero\n      tag_315\n      jumpi\n        /* \"#utility.yul\":8570:8649   */\n      tag_316\n      tag_158\n      jump\t// in\n    tag_316:\n        /* \"#utility.yul\":8534:8651   */\n    tag_315:\n        /* \"#utility.yul\":8675:8738   */\n      tag_317\n        /* \"#utility.yul\":8730:8737   */\n      dup8\n        /* \"#utility.yul\":8721:8727   */\n      dup3\n        /* \"#utility.yul\":8710:8719   */\n      dup9\n        /* \"#utility.yul\":8706:8728   */\n      add\n        /* \"#utility.yul\":8675:8738   */\n      tag_168\n      jump\t// in\n    tag_317:\n        /* \"#utility.yul\":8665:8738   */\n      swap4\n      pop\n        /* \"#utility.yul\":8460:8748   */\n      pop\n        /* \"#utility.yul\":8815:8817   */\n      0x40\n        /* \"#utility.yul\":8804:8813   */\n      dup6\n        /* \"#utility.yul\":8800:8818   */\n      add\n        /* \"#utility.yul\":8787:8819   */\n      calldataload\n        /* \"#utility.yul\":8846:8864   */\n      0xffffffffffffffff\n        /* \"#utility.yul\":8838:8844   */\n      dup2\n        /* \"#utility.yul\":8835:8865   */\n      gt\n        /* \"#utility.yul\":8832:8949   */\n      iszero\n      tag_318\n      jumpi\n        /* \"#utility.yul\":8868:8947   */\n      tag_319\n      tag_158\n      jump\t// in\n    tag_319:\n        /* \"#utility.yul\":8832:8949   */\n    tag_318:\n        /* \"#utility.yul\":8973:9036   */\n      tag_320\n        /* \"#utility.yul\":9028:9035   */\n      dup8\n        /* \"#utility.yul\":9019:9025   */\n      dup3\n        /* \"#utility.yul\":9008:9017   */\n      dup9\n        /* \"#utility.yul\":9004:9026   */\n      add\n        /* \"#utility.yul\":8973:9036   */\n      tag_168\n      jump\t// in\n    tag_320:\n        /* \"#utility.yul\":8963:9036   */\n      swap3\n      pop\n        /* \"#utility.yul\":8758:9046   */\n      pop\n        /* \"#utility.yul\":9113:9115   */\n      0x60\n        /* \"#utility.yul\":9102:9111   */\n      dup6\n        /* \"#utility.yul\":9098:9116   */\n      add\n        /* \"#utility.yul\":9085:9117   */\n      calldataload\n        /* \"#utility.yul\":9144:9162   */\n      0xffffffffffffffff\n        /* \"#utility.yul\":9136:9142   */\n      dup2\n        /* \"#utility.yul\":9133:9163   */\n      gt\n        /* \"#utility.yul\":9130:9247   */\n      iszero\n      tag_321\n      jumpi\n        /* \"#utility.yul\":9166:9245   */\n      tag_322\n      tag_158\n      jump\t// in\n    tag_322:\n        /* \"#utility.yul\":9130:9247   */\n    tag_321:\n        /* \"#utility.yul\":9271:9334   */\n      tag_323\n        /* \"#utility.yul\":9326:9333   */\n      dup8\n        /* \"#utility.yul\":9317:9323   */\n      dup3\n        /* \"#utility.yul\":9306:9315   */\n      dup9\n        /* \"#utility.yul\":9302:9324   */\n      add\n        /* \"#utility.yul\":9271:9334   */\n      tag_168\n      jump\t// in\n    tag_323:\n        /* \"#utility.yul\":9261:9334   */\n      swap2\n      pop\n        /* \"#utility.yul\":9056:9344   */\n      pop\n        /* \"#utility.yul\":7866:9351   */\n      swap3\n      swap6\n      swap2\n      swap5\n      pop\n      swap3\n      pop\n      jump\t// out\n        /* \"#utility.yul\":9357:9579   */\n    tag_29:\n        /* \"#utility.yul\":9450:9454   */\n      0x00\n        /* \"#utility.yul\":9488:9490   */\n      0x20\n        /* \"#utility.yul\":9477:9486   */\n      dup3\n        /* \"#utility.yul\":9473:9491   */\n      add\n        /* \"#utility.yul\":9465:9491   */\n      swap1\n      pop\n        /* \"#utility.yul\":9501:9572   */\n      tag_325\n        /* \"#utility.yul\":9569:9570   */\n      0x00\n        /* \"#utility.yul\":9558:9567   */\n      dup4\n        /* \"#utility.yul\":9554:9571   */\n      add\n        /* \"#utility.yul\":9545:9551   */\n      dup5\n        /* \"#utility.yul\":9501:9572   */\n      tag_172\n      jump\t// in\n    tag_325:\n        /* \"#utility.yul\":9357:9579   */\n      swap3\n      swap2\n      pop\n      pop\n      jump\t// out\n        /* \"#utility.yul\":9585:9807   */\n    tag_37:\n        /* \"#utility.yul\":9678:9682   */\n      0x00\n        /* \"#utility.yul\":9716:9718   */\n      0x20\n        /* \"#utility.yul\":9705:9714   */\n      dup3\n        /* \"#utility.yul\":9701:9719   */\n      add\n        /* \"#utility.yul\":9693:9719   */\n      swap1\n      pop\n        /* \"#utility.yul\":9729:9800   */\n      tag_327\n        /* \"#utility.yul\":9797:9798   */\n      0x00\n        /* \"#utility.yul\":9786:9795   */\n      dup4\n        /* \"#utility.yul\":9782:9799   */\n      add\n        /* \"#utility.yul\":9773:9779   */\n      dup5\n        /* \"#utility.yul\":9729:9800   */\n      tag_181\n      jump\t// in\n    tag_327:\n        /* \"#utility.yul\":9585:9807   */\n      swap3\n      swap2\n      pop\n      pop\n      jump\t// out\n        /* \"#utility.yul\":9813:11051   */\n    tag_42:\n        /* \"#utility.yul\":10148:10152   */\n      0x00\n        /* \"#utility.yul\":10186:10189   */\n      0xe0\n        /* \"#utility.yul\":10175:10184   */\n      dup3\n        /* \"#utility.yul\":10171:10190   */\n      add\n        /* \"#utility.yul\":10163:10190   */\n      swap1\n      pop\n        /* \"#utility.yul\":10200:10265   */\n      tag_329\n        /* \"#utility.yul\":10262:10263   */\n      0x00\n        /* \"#utility.yul\":10251:10260   */\n      dup4\n        /* \"#utility.yul\":10247:10264   */\n      add\n        /* \"#utility.yul\":10238:10244   */\n      dup11\n        /* \"#utility.yul\":10200:10265   */\n      tag_170\n      jump\t// in\n    tag_329:\n        /* \"#utility.yul\":10312:10321   */\n      dup2\n        /* \"#utility.yul\":10306:10310   */\n      dup2\n        /* \"#utility.yul\":10302:10322   */\n      sub\n        /* \"#utility.yul\":10297:10299   */\n      0x20\n        /* \"#utility.yul\":10286:10295   */\n      dup4\n        /* \"#utility.yul\":10282:10300   */\n      add\n        /* \"#utility.yul\":10275:10323   */\n      mstore\n        /* \"#utility.yul\":10340:10418   */\n      tag_330\n        /* \"#utility.yul\":10413:10417   */\n      dup2\n        /* \"#utility.yul\":10404:10410   */\n      dup10\n        /* \"#utility.yul\":10340:10418   */\n      tag_176\n      jump\t// in\n    tag_330:\n        /* \"#utility.yul\":10332:10418   */\n      swap1\n      pop\n        /* \"#utility.yul\":10465:10474   */\n      dup2\n        /* \"#utility.yul\":10459:10463   */\n      dup2\n        /* \"#utility.yul\":10455:10475   */\n      sub\n        /* \"#utility.yul\":10450:10452   */\n      0x40\n        /* \"#utility.yul\":10439:10448   */\n      dup4\n        /* \"#utility.yul\":10435:10453   */\n      add\n        /* \"#utility.yul\":10428:10476   */\n      mstore\n        /* \"#utility.yul\":10493:10571   */\n      tag_331\n        /* \"#utility.yul\":10566:10570   */\n      dup2\n        /* \"#utility.yul\":10557:10563   */\n      dup9\n        /* \"#utility.yul\":10493:10571   */\n      tag_176\n      jump\t// in\n    tag_331:\n        /* \"#utility.yul\":10485:10571   */\n      swap1\n      pop\n        /* \"#utility.yul\":10618:10627   */\n      dup2\n        /* \"#utility.yul\":10612:10616   */\n      dup2\n        /* \"#utility.yul\":10608:10628   */\n      sub\n        /* \"#utility.yul\":10603:10605   */\n      0x60\n        /* \"#utility.yul\":10592:10601   */\n      dup4\n        /* \"#utility.yul\":10588:10606   */\n      add\n        /* \"#utility.yul\":10581:10629   */\n      mstore\n        /* \"#utility.yul\":10646:10724   */\n      tag_332\n        /* \"#utility.yul\":10719:10723   */\n      dup2\n        /* \"#utility.yul\":10710:10716   */\n      dup8\n        /* \"#utility.yul\":10646:10724   */\n      tag_176\n      jump\t// in\n    tag_332:\n        /* \"#utility.yul\":10638:10724   */\n      swap1\n      pop\n        /* \"#utility.yul\":10772:10781   */\n      dup2\n        /* \"#utility.yul\":10766:10770   */\n      dup2\n        /* \"#utility.yul\":10762:10782   */\n      sub\n        /* \"#utility.yul\":10756:10759   */\n      0x80\n        /* \"#utility.yul\":10745:10754   */\n      dup4\n        /* \"#utility.yul\":10741:10760   */\n      add\n        /* \"#utility.yul\":10734:10783   */\n      mstore\n        /* \"#utility.yul\":10800:10878   */\n      tag_333\n        /* \"#utility.yul\":10873:10877   */\n      dup2\n        /* \"#utility.yul\":10864:10870   */\n      dup7\n        /* \"#utility.yul\":10800:10878   */\n      tag_176\n      jump\t// in\n    tag_333:\n        /* \"#utility.yul\":10792:10878   */\n      swap1\n      pop\n        /* \"#utility.yul\":10888:10961   */\n      tag_334\n        /* \"#utility.yul\":10956:10959   */\n      0xa0\n        /* \"#utility.yul\":10945:10954   */\n      dup4\n        /* \"#utility.yul\":10941:10960   */\n      add\n        /* \"#utility.yul\":10932:10938   */\n      dup6\n        /* \"#utility.yul\":10888:10961   */\n      tag_178\n      jump\t// in\n    tag_334:\n        /* \"#utility.yul\":10971:11044   */\n      tag_335\n        /* \"#utility.yul\":11039:11042   */\n      0xc0\n        /* \"#utility.yul\":11028:11037   */\n      dup4\n        /* \"#utility.yul\":11024:11043   */\n      add\n        /* \"#utility.yul\":11015:11021   */\n      dup5\n        /* \"#utility.yul\":10971:11044   */\n      tag_181\n      jump\t// in\n    tag_335:\n        /* \"#utility.yul\":9813:11051   */\n      swap9\n      swap8\n      pop\n      pop\n      pop\n      pop\n      pop\n      pop\n      pop\n      pop\n      jump\t// out\n        /* \"#utility.yul\":11057:11179   */\n    tag_184:\n        /* \"#utility.yul\":11130:11154   */\n      tag_337\n        /* \"#utility.yul\":11148:11153   */\n      dup2\n        /* \"#utility.yul\":11130:11154   */\n      tag_180\n      jump\t// in\n    tag_337:\n        /* \"#utility.yul\":11123:11128   */\n      dup2\n        /* \"#utility.yul\":11120:11155   */\n      eq\n        /* \"#utility.yul\":11110:11173   */\n      tag_338\n      jumpi\n        /* \"#utility.yul\":11169:11170   */\n      0x00\n        /* \"#utility.yul\":11166:11167   */\n      0x00\n        /* \"#utility.yul\":11159:11171   */\n      revert\n        /* \"#utility.yul\":11110:11173   */\n    tag_338:\n        /* \"#utility.yul\":11057:11179   */\n      pop\n      jump\t// out\n        /* \"#utility.yul\":11185:11324   */\n    tag_185:\n        /* \"#utility.yul\":11231:11236   */\n      0x00\n        /* \"#utility.yul\":11269:11275   */\n      dup2\n        /* \"#utility.yul\":11256:11276   */\n      calldataload\n        /* \"#utility.yul\":11247:11276   */\n      swap1\n      pop\n        /* \"#utility.yul\":11285:11318   */\n      tag_340\n        /* \"#utility.yul\":11312:11317   */\n      dup2\n        /* \"#utility.yul\":11285:11318   */\n      tag_184\n      jump\t// in\n    tag_340:\n        /* \"#utility.yul\":11185:11324   */\n      swap3\n      swap2\n      pop\n      pop\n      jump\t// out\n        /* \"#utility.yul\":11330:11659   */\n    tag_48:\n        /* \"#utility.yul\":11389:11395   */\n      0x00\n        /* \"#utility.yul\":11438:11440   */\n      0x20\n        /* \"#utility.yul\":11426:11435   */\n      dup3\n        /* \"#utility.yul\":11417:11424   */\n      dup5\n        /* \"#utility.yul\":11413:11436   */\n      sub\n        /* \"#utility.yul\":11409:11441   */\n      slt\n        /* \"#utility.yul\":11406:11525   */\n      iszero\n      tag_342\n      jumpi\n        /* \"#utility.yul\":11444:11523   */\n      tag_343\n      tag_157\n      jump\t// in\n    tag_343:\n        /* \"#utility.yul\":11406:11525   */\n    tag_342:\n        /* \"#utility.yul\":11564:11565   */\n      0x00\n        /* \"#utility.yul\":11589:11642   */\n      tag_344\n        /* \"#utility.yul\":11634:11641   */\n      dup5\n        /* \"#utility.yul\":11625:11631   */\n      dup3\n        /* \"#utility.yul\":11614:11623   */\n      dup6\n        /* \"#utility.yul\":11610:11632   */\n      add\n        /* \"#utility.yul\":11589:11642   */\n      tag_185\n      jump\t// in\n    tag_344:\n        /* \"#utility.yul\":11579:11642   */\n      swap2\n      pop\n        /* \"#utility.yul\":11535:11652   */\n      pop\n        /* \"#utility.yul\":11330:11659   */\n      swap3\n      swap2\n      pop\n      pop\n      jump\t// out\n        /* \"#utility.yul\":11665:11813   */\n    tag_186:\n        /* \"#utility.yul\":11767:11778   */\n      0x00\n        /* \"#utility.yul\":11804:11807   */\n      dup2\n        /* \"#utility.yul\":11789:11807   */\n      swap1\n      pop\n        /* \"#utility.yul\":11665:11813   */\n      swap3\n      swap2\n      pop\n      pop\n      jump\t// out\n        /* \"#utility.yul\":11819:12209   */\n    tag_187:\n        /* \"#utility.yul\":11925:11928   */\n      0x00\n        /* \"#utility.yul\":11953:11992   */\n      tag_347\n        /* \"#utility.yul\":11986:11991   */\n      dup3\n        /* \"#utility.yul\":11953:11992   */\n      tag_173\n      jump\t// in\n    tag_347:\n        /* \"#utility.yul\":12008:12097   */\n      tag_348\n        /* \"#utility.yul\":12090:12096   */\n      dup2\n        /* \"#utility.yul\":12085:12088   */\n      dup6\n        /* \"#utility.yul\":12008:12097   */\n      tag_186\n      jump\t// in\n    tag_348:\n        /* \"#utility.yul\":12001:12097   */\n      swap4\n      pop\n        /* \"#utility.yul\":12106:12171   */\n      tag_349\n        /* \"#utility.yul\":12164:12170   */\n      dup2\n        /* \"#utility.yul\":12159:12162   */\n      dup6\n        /* \"#utility.yul\":12152:12156   */\n      0x20\n        /* \"#utility.yul\":12145:12150   */\n      dup7\n        /* \"#utility.yul\":12141:12157   */\n      add\n        /* \"#utility.yul\":12106:12171   */\n      tag_175\n      jump\t// in\n    tag_349:\n        /* \"#utility.yul\":12196:12202   */\n      dup1\n        /* \"#utility.yul\":12191:12194   */\n      dup5\n        /* \"#utility.yul\":12187:12203   */\n      add\n        /* \"#utility.yul\":12180:12203   */\n      swap2\n      pop\n        /* \"#utility.yul\":11929:12209   */\n      pop\n        /* \"#utility.yul\":11819:12209   */\n      swap3\n      swap2\n      pop\n      pop\n      jump\t// out\n        /* \"#utility.yul\":12215:12490   */\n    tag_52:\n        /* \"#utility.yul\":12347:12350   */\n      0x00\n        /* \"#utility.yul\":12369:12464   */\n      tag_351\n        /* \"#utility.yul\":12460:12463   */\n      dup3\n        /* \"#utility.yul\":12451:12457   */\n      dup5\n        /* \"#utility.yul\":12369:12464   */\n      tag_187\n      jump\t// in\n    tag_351:\n        /* \"#utility.yul\":12362:12464   */\n      swap2\n      pop\n        /* \"#utility.yul\":12481:12484   */\n      dup2\n        /* \"#utility.yul\":12474:12484   */\n      swap1\n      pop\n        /* \"#utility.yul\":12215:12490   */\n      swap3\n      swap2\n      pop\n      pop\n      jump\t// out\n        /* \"#utility.yul\":12496:12676   */\n    tag_188:\n        /* \"#utility.yul\":12544:12621   */\n      0x4e487b7100000000000000000000000000000000000000000000000000000000\n        /* \"#utility.yul\":12541:12542   */\n      0x00\n        /* \"#utility.yul\":12534:12622   */\n      mstore\n        /* \"#utility.yul\":12641:12645   */\n      0x22\n        /* \"#utility.yul\":12638:12639   */\n      0x04\n        /* \"#utility.yul\":12631:12646   */\n      mstore\n        /* \"#utility.yul\":12665:12669   */\n      0x24\n        /* \"#utility.yul\":12662:12663   */\n      0x00\n        /* \"#utility.yul\":12655:12670   */\n      revert\n        /* \"#utility.yul\":12682:13002   */\n    tag_54:\n        /* \"#utility.yul\":12726:12732   */\n      0x00\n        /* \"#utility.yul\":12763:12764   */\n      0x02\n        /* \"#utility.yul\":12757:12761   */\n      dup3\n        /* \"#utility.yul\":12753:12765   */\n      div\n        /* \"#utility.yul\":12743:12765   */\n      swap1\n      pop\n        /* \"#utility.yul\":12810:12811   */\n      0x01\n        /* \"#utility.yul\":12804:12808   */\n      dup3\n        /* \"#utility.yul\":12800:12812   */\n      and\n        /* \"#utility.yul\":12831:12849   */\n      dup1\n        /* \"#utility.yul\":12821:12902   */\n      tag_354\n      jumpi\n        /* \"#utility.yul\":12887:12891   */\n      0x7f\n        /* \"#utility.yul\":12879:12885   */\n      dup3\n        /* \"#utility.yul\":12875:12892   */\n      and\n        /* \"#utility.yul\":12865:12892   */\n      swap2\n      pop\n        /* \"#utility.yul\":12821:12902   */\n    tag_354:\n        /* \"#utility.yul\":12949:12951   */\n      0x20\n        /* \"#utility.yul\":12941:12947   */\n      dup3\n        /* \"#utility.yul\":12938:12952   */\n      lt\n        /* \"#utility.yul\":12918:12936   */\n      dup2\n        /* \"#utility.yul\":12915:12953   */\n      sub\n        /* \"#utility.yul\":12912:12996   */\n      tag_355\n      jumpi\n        /* \"#utility.yul\":12968:12986   */\n      tag_356\n      tag_188\n      jump\t// in\n    tag_356:\n        /* \"#utility.yul\":12912:12996   */\n    tag_355:\n        /* \"#utility.yul\":12733:13002   */\n      pop\n        /* \"#utility.yul\":12682:13002   */\n      swap2\n      swap1\n      pop\n      jump\t// out\n        /* \"#utility.yul\":13008:13186   */\n    tag_189:\n        /* \"#utility.yul\":13148:13178   */\n      0x53747564656e74206e616d652063616e6e6f7420626520656d70747900000000\n        /* \"#utility.yul\":13144:13145   */\n      0x00\n        /* \"#utility.yul\":13136:13142   */\n      dup3\n        /* \"#utility.yul\":13132:13146   */\n      add\n        /* \"#utility.yul\":13125:13179   */\n      mstore\n        /* \"#utility.yul\":13008:13186   */\n      pop\n      jump\t// out\n        /* \"#utility.yul\":13192:13558   */\n    tag_190:\n        /* \"#utility.yul\":13334:13337   */\n      0x00\n        /* \"#utility.yul\":13355:13422   */\n      tag_359\n        /* \"#utility.yul\":13419:13421   */\n      0x1c\n        /* \"#utility.yul\":13414:13417   */\n      dup4\n        /* \"#utility.yul\":13355:13422   */\n      tag_174\n      jump\t// in\n    tag_359:\n        /* \"#utility.yul\":13348:13422   */\n      swap2\n      pop\n        /* \"#utility.yul\":13431:13524   */\n      tag_360\n        /* \"#utility.yul\":13520:13523   */\n      dup3\n        /* \"#utility.yul\":13431:13524   */\n      tag_189\n      jump\t// in\n    tag_360:\n        /* \"#utility.yul\":13549:13551   */\n      0x20\n        /* \"#utility.yul\":13544:13547   */\n      dup3\n        /* \"#utility.yul\":13540:13552   */\n      add\n        /* \"#utility.yul\":13533:13552   */\n      swap1\n      pop\n        /* \"#utility.yul\":13192:13558   */\n      swap2\n      swap1\n      pop\n      jump\t// out\n        /* \"#utility.yul\":13564:13983   */\n    tag_98:\n        /* \"#utility.yul\":13730:13734   */\n      0x00\n        /* \"#utility.yul\":13768:13770   */\n      0x20\n        /* \"#utility.yul\":13757:13766   */\n      dup3\n        /* \"#utility.yul\":13753:13771   */\n      add\n        /* \"#utility.yul\":13745:13771   */\n      swap1\n      pop\n        /* \"#utility.yul\":13817:13826   */\n      dup2\n        /* \"#utility.yul\":13811:13815   */\n      dup2\n        /* \"#utility.yul\":13807:13827   */\n      sub\n        /* \"#utility.yul\":13803:13804   */\n      0x00\n        /* \"#utility.yul\":13792:13801   */\n      dup4\n        /* \"#utility.yul\":13788:13805   */\n      add\n        /* \"#utility.yul\":13781:13828   */\n      mstore\n        /* \"#utility.yul\":13845:13976   */\n      tag_362\n        /* \"#utility.yul\":13971:13975   */\n      dup2\n        /* \"#utility.yul\":13845:13976   */\n      tag_190\n      jump\t// in\n    tag_362:\n        /* \"#utility.yul\":13837:13976   */\n      swap1\n      pop\n        /* \"#utility.yul\":13564:13983   */\n      swap2\n      swap1\n      pop\n      jump\t// out\n        /* \"#utility.yul\":13989:14166   */\n    tag_191:\n        /* \"#utility.yul\":14129:14158   */\n      0x436f75727365206e616d652063616e6e6f7420626520656d7074790000000000\n        /* \"#utility.yul\":14125:14126   */\n      0x00\n        /* \"#utility.yul\":14117:14123   */\n      dup3\n        /* \"#utility.yul\":14113:14127   */\n      add\n        /* \"#utility.yul\":14106:14159   */\n      mstore\n        /* \"#utility.yul\":13989:14166   */\n      pop\n      jump\t// out\n        /* \"#utility.yul\":14172:14538   */\n    tag_192:\n        /* \"#utility.yul\":14314:14317   */\n      0x00\n        /* \"#utility.yul\":14335:14402   */\n      tag_365\n        /* \"#utility.yul\":14399:14401   */\n      0x1b\n        /* \"#utility.yul\":14394:14397   */\n      dup4\n        /* \"#utility.yul\":14335:14402   */\n      tag_174\n      jump\t// in\n    tag_365:\n        /* \"#utility.yul\":14328:14402   */\n      swap2\n      pop\n        /* \"#utility.yul\":14411:14504   */\n      tag_366\n        /* \"#utility.yul\":14500:14503   */\n      dup3\n        /* \"#utility.yul\":14411:14504   */\n      tag_191\n      jump\t// in\n    tag_366:\n        /* \"#utility.yul\":14529:14531   */\n      0x20\n        /* \"#utility.yul\":14524:14527   */\n      dup3\n        /* \"#utility.yul\":14520:14532   */\n      add\n        /* \"#utility.yul\":14513:14532   */\n      swap1\n      pop\n        /* \"#utility.yul\":14172:14538   */\n      swap2\n      swap1\n      pop\n      jump\t// out\n        /* \"#utility.yul\":14544:14963   */\n    tag_101:\n        /* \"#utility.yul\":14710:14714   */\n      0x00\n        /* \"#utility.yul\":14748:14750   */\n      0x20\n        /* \"#utility.yul\":14737:14746   */\n      dup3\n        /* \"#utility.yul\":14733:14751   */\n      add\n        /* \"#utility.yul\":14725:14751   */\n      swap1\n      pop\n        /* \"#utility.yul\":14797:14806   */\n      dup2\n        /* \"#utility.yul\":14791:14795   */\n      dup2\n        /* \"#utility.yul\":14787:14807   */\n      sub\n        /* \"#utility.yul\":14783:14784   */\n      0x00\n        /* \"#utility.yul\":14772:14781   */\n      dup4\n        /* \"#utility.yul\":14768:14785   */\n      add\n        /* \"#utility.yul\":14761:14808   */\n      mstore\n        /* \"#utility.yul\":14825:14956   */\n      tag_368\n        /* \"#utility.yul\":14951:14955   */\n      dup2\n        /* \"#utility.yul\":14825:14956   */\n      tag_192\n      jump\t// in\n    tag_368:\n        /* \"#utility.yul\":14817:14956   */\n      swap1\n      pop\n        /* \"#utility.yul\":14544:14963   */\n      swap2\n      swap1\n      pop\n      jump\t// out\n        /* \"#utility.yul\":14969:15144   */\n    tag_193:\n        /* \"#utility.yul\":15109:15136   */\n      0x4950465320686173682063616e6e6f7420626520656d70747900000000000000\n        /* \"#utility.yul\":15105:15106   */\n      0x00\n        /* \"#utility.yul\":15097:15103   */\n      dup3\n        /* \"#utility.yul\":15093:15107   */\n      add\n        /* \"#utility.yul\":15086:15137   */\n      mstore\n        /* \"#utility.yul\":14969:15144   */\n      pop\n      jump\t// out\n        /* \"#utility.yul\":15150:15516   */\n    tag_194:\n        /* \"#utility.yul\":15292:15295   */\n      0x00\n        /* \"#utility.yul\":15313:15380   */\n      tag_371\n        /* \"#utility.yul\":15377:15379   */\n      0x19\n        /* \"#utility.yul\":15372:15375   */\n      dup4\n        /* \"#utility.yul\":15313:15380   */\n      tag_174\n      jump\t// in\n    tag_371:\n        /* \"#utility.yul\":15306:15380   */\n      swap2\n      pop\n        /* \"#utility.yul\":15389:15482   */\n      tag_372\n        /* \"#utility.yul\":15478:15481   */\n      dup3\n        /* \"#utility.yul\":15389:15482   */\n      tag_193\n      jump\t// in\n    tag_372:\n        /* \"#utility.yul\":15507:15509   */\n      0x20\n        /* \"#utility.yul\":15502:15505   */\n      dup3\n        /* \"#utility.yul\":15498:15510   */\n      add\n        /* \"#utility.yul\":15491:15510   */\n      swap1\n      pop\n        /* \"#utility.yul\":15150:15516   */\n      swap2\n      swap1\n      pop\n      jump\t// out\n        /* \"#utility.yul\":15522:15941   */\n    tag_104:\n        /* \"#utility.yul\":15688:15692   */\n      0x00\n        /* \"#utility.yul\":15726:15728   */\n      0x20\n        /* \"#utility.yul\":15715:15724   */\n      dup3\n        /* \"#utility.yul\":15711:15729   */\n      add\n        /* \"#utility.yul\":15703:15729   */\n      swap1\n      pop\n        /* \"#utility.yul\":15775:15784   */\n      dup2\n        /* \"#utility.yul\":15769:15773   */\n      dup2\n        /* \"#utility.yul\":15765:15785   */\n      sub\n        /* \"#utility.yul\":15761:15762   */\n      0x00\n        /* \"#utility.yul\":15750:15759   */\n      dup4\n        /* \"#utility.yul\":15746:15763   */\n      add\n        /* \"#utility.yul\":15739:15786   */\n      mstore\n        /* \"#utility.yul\":15803:15934   */\n      tag_374\n        /* \"#utility.yul\":15929:15933   */\n      dup2\n        /* \"#utility.yul\":15803:15934   */\n      tag_194\n      jump\t// in\n    tag_374:\n        /* \"#utility.yul\":15795:15934   */\n      swap1\n      pop\n        /* \"#utility.yul\":15522:15941   */\n      swap2\n      swap1\n      pop\n      jump\t// out\n        /* \"#utility.yul\":15947:16026   */\n    tag_195:\n        /* \"#utility.yul\":15986:15993   */\n      0x00\n        /* \"#utility.yul\":16015:16020   */\n      dup2\n        /* \"#utility.yul\":16004:16020   */\n      swap1\n      pop\n        /* \"#utility.yul\":15947:16026   */\n      swap2\n      swap1\n      pop\n      jump\t// out\n        /* \"#utility.yul\":16032:16189   */\n    tag_196:\n        /* \"#utility.yul\":16137:16182   */\n      tag_377\n        /* \"#utility.yul\":16157:16181   */\n      tag_378\n        /* \"#utility.yul\":16175:16180   */\n      dup3\n        /* \"#utility.yul\":16157:16181   */\n      tag_177\n      jump\t// in\n    tag_378:\n        /* \"#utility.yul\":16137:16182   */\n      tag_195\n      jump\t// in\n    tag_377:\n        /* \"#utility.yul\":16132:16135   */\n      dup3\n        /* \"#utility.yul\":16125:16183   */\n      mstore\n        /* \"#utility.yul\":16032:16189   */\n      pop\n      pop\n      jump\t// out\n        /* \"#utility.yul\":16195:16289   */\n    tag_197:\n        /* \"#utility.yul\":16228:16236   */\n      0x00\n        /* \"#utility.yul\":16276:16281   */\n      dup2\n        /* \"#utility.yul\":16272:16274   */\n      0x60\n        /* \"#utility.yul\":16268:16282   */\n      shl\n        /* \"#utility.yul\":16247:16282   */\n      swap1\n      pop\n        /* \"#utility.yul\":16195:16289   */\n      swap2\n      swap1\n      pop\n      jump\t// out\n        /* \"#utility.yul\":16295:16389   */\n    tag_198:\n        /* \"#utility.yul\":16334:16341   */\n      0x00\n        /* \"#utility.yul\":16363:16383   */\n      tag_381\n        /* \"#utility.yul\":16377:16382   */\n      dup3\n        /* \"#utility.yul\":16363:16383   */\n      tag_197\n      jump\t// in\n    tag_381:\n        /* \"#utility.yul\":16352:16383   */\n      swap1\n      pop\n        /* \"#utility.yul\":16295:16389   */\n      swap2\n      swap1\n      pop\n      jump\t// out\n        /* \"#utility.yul\":16395:16495   */\n    tag_199:\n        /* \"#utility.yul\":16434:16441   */\n      0x00\n        /* \"#utility.yul\":16463:16489   */\n      tag_383\n        /* \"#utility.yul\":16483:16488   */\n      dup3\n        /* \"#utility.yul\":16463:16489   */\n      tag_198\n      jump\t// in\n    tag_383:\n        /* \"#utility.yul\":16452:16489   */\n      swap1\n      pop\n        /* \"#utility.yul\":16395:16495   */\n      swap2\n      swap1\n      pop\n      jump\t// out\n        /* \"#utility.yul\":16501:16658   */\n    tag_200:\n        /* \"#utility.yul\":16606:16651   */\n      tag_385\n        /* \"#utility.yul\":16626:16650   */\n      tag_386\n        /* \"#utility.yul\":16644:16649   */\n      dup3\n        /* \"#utility.yul\":16626:16650   */\n      tag_180\n      jump\t// in\n    tag_386:\n        /* \"#utility.yul\":16606:16651   */\n      tag_199\n      jump\t// in\n    tag_385:\n        /* \"#utility.yul\":16601:16604   */\n      dup3\n        /* \"#utility.yul\":16594:16652   */\n      mstore\n        /* \"#utility.yul\":16501:16658   */\n      pop\n      pop\n      jump\t// out\n        /* \"#utility.yul\":16664:17541   */\n    tag_106:\n        /* \"#utility.yul\":16948:16951   */\n      0x00\n        /* \"#utility.yul\":16970:17065   */\n      tag_388\n        /* \"#utility.yul\":17061:17064   */\n      dup3\n        /* \"#utility.yul\":17052:17058   */\n      dup9\n        /* \"#utility.yul\":16970:17065   */\n      tag_187\n      jump\t// in\n    tag_388:\n        /* \"#utility.yul\":16963:17065   */\n      swap2\n      pop\n        /* \"#utility.yul\":17082:17177   */\n      tag_389\n        /* \"#utility.yul\":17173:17176   */\n      dup3\n        /* \"#utility.yul\":17164:17170   */\n      dup8\n        /* \"#utility.yul\":17082:17177   */\n      tag_187\n      jump\t// in\n    tag_389:\n        /* \"#utility.yul\":17075:17177   */\n      swap2\n      pop\n        /* \"#utility.yul\":17194:17289   */\n      tag_390\n        /* \"#utility.yul\":17285:17288   */\n      dup3\n        /* \"#utility.yul\":17276:17282   */\n      dup7\n        /* \"#utility.yul\":17194:17289   */\n      tag_187\n      jump\t// in\n    tag_390:\n        /* \"#utility.yul\":17187:17289   */\n      swap2\n      pop\n        /* \"#utility.yul\":17299:17374   */\n      tag_391\n        /* \"#utility.yul\":17370:17373   */\n      dup3\n        /* \"#utility.yul\":17361:17367   */\n      dup6\n        /* \"#utility.yul\":17299:17374   */\n      tag_196\n      jump\t// in\n    tag_391:\n        /* \"#utility.yul\":17399:17401   */\n      0x20\n        /* \"#utility.yul\":17394:17397   */\n      dup3\n        /* \"#utility.yul\":17390:17402   */\n      add\n        /* \"#utility.yul\":17383:17402   */\n      swap2\n      pop\n        /* \"#utility.yul\":17412:17487   */\n      tag_392\n        /* \"#utility.yul\":17483:17486   */\n      dup3\n        /* \"#utility.yul\":17474:17480   */\n      dup5\n        /* \"#utility.yul\":17412:17487   */\n      tag_200\n      jump\t// in\n    tag_392:\n        /* \"#utility.yul\":17512:17514   */\n      0x14\n        /* \"#utility.yul\":17507:17510   */\n      dup3\n        /* \"#utility.yul\":17503:17515   */\n      add\n        /* \"#utility.yul\":17496:17515   */\n      swap2\n      pop\n        /* \"#utility.yul\":17532:17535   */\n      dup2\n        /* \"#utility.yul\":17525:17535   */\n      swap1\n      pop\n        /* \"#utility.yul\":16664:17541   */\n      swap7\n      swap6\n      pop\n      pop\n      pop\n      pop\n      pop\n      pop\n      jump\t// out\n        /* \"#utility.yul\":17547:17723   */\n    tag_201:\n        /* \"#utility.yul\":17687:17715   */\n      0x436572746966696361746520616c726561647920657869737473000000000000\n        /* \"#utility.yul\":17683:17684   */\n      0x00\n        /* \"#utility.yul\":17675:17681   */\n      dup3\n        /* \"#utility.yul\":17671:17685   */\n      add\n        /* \"#utility.yul\":17664:17716   */\n      mstore\n        /* \"#utility.yul\":17547:17723   */\n      pop\n      jump\t// out\n        /* \"#utility.yul\":17729:18095   */\n    tag_202:\n        /* \"#utility.yul\":17871:17874   */\n      0x00\n        /* \"#utility.yul\":17892:17959   */\n      tag_395\n        /* \"#utility.yul\":17956:17958   */\n      0x1a\n        /* \"#utility.yul\":17951:17954   */\n      dup4\n        /* \"#utility.yul\":17892:17959   */\n      tag_174\n      jump\t// in\n    tag_395:\n        /* \"#utility.yul\":17885:17959   */\n      swap2\n      pop\n        /* \"#utility.yul\":17968:18061   */\n      tag_396\n        /* \"#utility.yul\":18057:18060   */\n      dup3\n        /* \"#utility.yul\":17968:18061   */\n      tag_201\n      jump\t// in\n    tag_396:\n        /* \"#utility.yul\":18086:18088   */\n      0x20\n        /* \"#utility.yul\":18081:18084   */\n      dup3\n        /* \"#utility.yul\":18077:18089   */\n      add\n        /* \"#utility.yul\":18070:18089   */\n      swap1\n      pop\n        /* \"#utility.yul\":17729:18095   */\n      swap2\n      swap1\n      pop\n      jump\t// out\n        /* \"#utility.yul\":18101:18520   */\n    tag_109:\n        /* \"#utility.yul\":18267:18271   */\n      0x00\n        /* \"#utility.yul\":18305:18307   */\n      0x20\n        /* \"#utility.yul\":18294:18303   */\n      dup3\n        /* \"#utility.yul\":18290:18308   */\n      add\n        /* \"#utility.yul\":18282:18308   */\n      swap1\n      pop\n        /* \"#utility.yul\":18354:18363   */\n      dup2\n        /* \"#utility.yul\":18348:18352   */\n      dup2\n        /* \"#utility.yul\":18344:18364   */\n      sub\n        /* \"#utility.yul\":18340:18341   */\n      0x00\n        /* \"#utility.yul\":18329:18338   */\n      dup4\n        /* \"#utility.yul\":18325:18342   */\n      add\n        /* \"#utility.yul\":18318:18365   */\n      mstore\n        /* \"#utility.yul\":18382:18513   */\n      tag_398\n        /* \"#utility.yul\":18508:18512   */\n      dup2\n        /* \"#utility.yul\":18382:18513   */\n      tag_202\n      jump\t// in\n    tag_398:\n        /* \"#utility.yul\":18374:18513   */\n      swap1\n      pop\n        /* \"#utility.yul\":18101:18520   */\n      swap2\n      swap1\n      pop\n      jump\t// out\n        /* \"#utility.yul\":18526:18667   */\n    tag_203:\n        /* \"#utility.yul\":18575:18579   */\n      0x00\n        /* \"#utility.yul\":18598:18601   */\n      dup2\n        /* \"#utility.yul\":18590:18601   */\n      swap1\n      pop\n        /* \"#utility.yul\":18621:18624   */\n      dup2\n        /* \"#utility.yul\":18618:18619   */\n      0x00\n        /* \"#utility.yul\":18611:18625   */\n      mstore\n        /* \"#utility.yul\":18655:18659   */\n      0x20\n        /* \"#utility.yul\":18652:18653   */\n      0x00\n        /* \"#utility.yul\":18642:18660   */\n      keccak256\n        /* \"#utility.yul\":18634:18660   */\n      swap1\n      pop\n        /* \"#utility.yul\":18526:18667   */\n      swap2\n      swap1\n      pop\n      jump\t// out\n        /* \"#utility.yul\":18673:18766   */\n    tag_204:\n        /* \"#utility.yul\":18710:18716   */\n      0x00\n        /* \"#utility.yul\":18757:18759   */\n      0x20\n        /* \"#utility.yul\":18752:18754   */\n      0x1f\n        /* \"#utility.yul\":18745:18750   */\n      dup4\n        /* \"#utility.yul\":18741:18755   */\n      add\n        /* \"#utility.yul\":18737:18760   */\n      div\n        /* \"#utility.yul\":18727:18760   */\n      swap1\n      pop\n        /* \"#utility.yul\":18673:18766   */\n      swap2\n      swap1\n      pop\n      jump\t// out\n        /* \"#utility.yul\":18772:18879   */\n    tag_205:\n        /* \"#utility.yul\":18816:18824   */\n      0x00\n        /* \"#utility.yul\":18866:18871   */\n      dup3\n        /* \"#utility.yul\":18860:18864   */\n      dup3\n        /* \"#utility.yul\":18856:18872   */\n      shl\n        /* \"#utility.yul\":18835:18872   */\n      swap1\n      pop\n        /* \"#utility.yul\":18772:18879   */\n      swap3\n      swap2\n      pop\n      pop\n      jump\t// out\n        /* \"#utility.yul\":18885:19278   */\n    tag_206:\n        /* \"#utility.yul\":18954:18960   */\n      0x00\n        /* \"#utility.yul\":19004:19005   */\n      0x08\n        /* \"#utility.yul\":18992:19002   */\n      dup4\n        /* \"#utility.yul\":18988:19006   */\n      mul\n        /* \"#utility.yul\":19027:19124   */\n      tag_403\n        /* \"#utility.yul\":19057:19123   */\n      0xffffffffffffffffffffffffffffffffffffffffffffffffffffffffffffffff\n        /* \"#utility.yul\":19046:19055   */\n      dup3\n        /* \"#utility.yul\":19027:19124   */\n      tag_205\n      jump\t// in\n    tag_403:\n        /* \"#utility.yul\":19145:19184   */\n      tag_404\n        /* \"#utility.yul\":19175:19183   */\n      dup7\n        /* \"#utility.yul\":19164:19173   */\n      dup4\n        /* \"#utility.yul\":19145:19184   */\n      tag_205\n      jump\t// in\n    tag_404:\n        /* \"#utility.yul\":19133:19184   */\n      swap6\n      pop\n        /* \"#utility.yul\":19217:19221   */\n      dup1\n        /* \"#utility.yul\":19213:19222   */\n      not\n        /* \"#utility.yul\":19206:19211   */\n      dup5\n        /* \"#utility.yul\":19202:19223   */\n      and\n        /* \"#utility.yul\":19193:19223   */\n      swap4\n      pop\n        /* \"#utility.yul\":19266:19270   */\n      dup1\n        /* \"#utility.yul\":19256:19264   */\n      dup7\n        /* \"#utility.yul\":19252:19271   */\n      and\n        /* \"#utility.yul\":19245:19250   */\n      dup5\n        /* \"#utility.yul\":19242:19272   */\n      or\n        /* \"#utility.yul\":19232:19272   */\n      swap3\n      pop\n        /* \"#utility.yul\":18961:19278   */\n      pop\n      pop\n        /* \"#utility.yul\":18885:19278   */\n      swap4\n      swap3\n      pop\n      pop\n      pop\n      jump\t// out\n        /* \"#utility.yul\":19284:19344   */\n    tag_207:\n        /* \"#utility.yul\":19312:19315   */\n      0x00\n        /* \"#utility.yul\":19333:19338   */\n      dup2\n        /* \"#utility.yul\":19326:19338   */\n      swap1\n      pop\n        /* \"#utility.yul\":19284:19344   */\n      swap2\n      swap1\n      pop\n      jump\t// out\n        /* \"#utility.yul\":19350:19492   */\n    tag_208:\n        /* \"#utility.yul\":19400:19409   */\n      0x00\n        /* \"#utility.yul\":19433:19486   */\n      tag_407\n        /* \"#utility.yul\":19451:19485   */\n      tag_408\n        /* \"#utility.yul\":19460:19484   */\n      tag_409\n        /* \"#utility.yul\":19478:19483   */\n      dup5\n        /* \"#utility.yul\":19460:19484   */\n      tag_177\n      jump\t// in\n    tag_409:\n        /* \"#utility.yul\":19451:19485   */\n      tag_207\n      jump\t// in\n    tag_408:\n        /* \"#utility.yul\":19433:19486   */\n      tag_177\n      jump\t// in\n    tag_407:\n        /* \"#utility.yul\":19420:19486   */\n      swap1\n      pop\n        /* \"#utility.yul\":19350:19492   */\n      swap2\n      swap1\n      pop\n      jump\t// out\n        /* \"#utility.yul\":19498:19573   */\n    tag_209:\n        /* \"#utility.yul\":19541:19544   */\n      0x00\n        /* \"#utility.yul\":19562:19567   */\n      dup2\n        /* \"#utility.yul\":19555:19567   */\n      swap1\n      pop\n        /* \"#utility.yul\":19498:19573   */\n      swap2\n      swap1\n      pop\n      jump\t// out\n        /* \"#utility.yul\":19579:19848   */\n    tag_210:\n        /* \"#utility.yul\":19689:19728   */\n      tag_412\n        /* \"#utility.yul\":19720:19727   */\n      dup4\n        /* \"#utility.yul\":19689:19728   */\n      tag_208\n      jump\t// in\n    tag_412:\n        /* \"#utility.yul\":19750:19841   */\n      tag_413\n        /* \"#utility.yul\":19799:19840   */\n      tag_414\n        /* \"#utility.yul\":19823:19839   */\n      dup3\n        /* \"#utility.yul\":19799:19840   */\n      tag_209\n      jump\t// in\n    tag_414:\n        /* \"#utility.yul\":19791:19797   */\n      dup5\n        /* \"#utility.yul\":19784:19788   */\n      dup5\n        /* \"#utility.yul\":19778:19789   */\n      sload\n        /* \"#utility.yul\":19750:19841   */\n      tag_206\n      jump\t// in\n    tag_413:\n        /* \"#utility.yul\":19744:19748   */\n      dup3\n        /* \"#utility.yul\":19737:19842   */\n      sstore\n        /* \"#utility.yul\":19655:19848   */\n      pop\n        /* \"#utility.yul\":19579:19848   */\n      pop\n      pop\n      pop\n      jump\t// out\n        /* \"#utility.yul\":19854:19927   */\n    tag_211:\n        /* \"#utility.yul\":19899:19902   */\n      0x00\n        /* \"#utility.yul\":19920:19921   */\n      0x00\n        /* \"#utility.yul\":19913:19921   */\n      swap1\n      pop\n        /* \"#utility.yul\":19854:19927   */\n      swap1\n      jump\t// out\n        /* \"#utility.yul\":19933:20122   */\n    tag_212:\n        /* \"#utility.yul\":20010:20042   */\n      tag_417\n      tag_211\n      jump\t// in\n    tag_417:\n        /* \"#utility.yul\":20051:20116   */\n      tag_418\n        /* \"#utility.yul\":20109:20115   */\n      dup2\n        /* \"#utility.yul\":20101:20107   */\n      dup5\n        /* \"#utility.yul\":20095:20099   */\n      dup5\n        /* \"#utility.yul\":20051:20116   */\n      tag_210\n      jump\t// in\n    tag_418:\n        /* \"#utility.yul\":19986:20122   */\n      pop\n        /* \"#utility.yul\":19933:20122   */\n      pop\n      pop\n      jump\t// out\n        /* \"#utility.yul\":20128:20314   */\n    tag_213:\n        /* \"#utility.yul\":20188:20308   */\n    tag_420:\n        /* \"#utility.yul\":20205:20208   */\n      dup2\n        /* \"#utility.yul\":20198:20203   */\n      dup2\n        /* \"#utility.yul\":20195:20209   */\n      lt\n        /* \"#utility.yul\":20188:20308   */\n      iszero\n      tag_422\n      jumpi\n        /* \"#utility.yul\":20259:20298   */\n      tag_423\n        /* \"#utility.yul\":20296:20297   */\n      0x00\n        /* \"#utility.yul\":20289:20294   */\n      dup3\n        /* \"#utility.yul\":20259:20298   */\n      tag_212\n      jump\t// in\n    tag_423:\n        /* \"#utility.yul\":20232:20233   */\n      0x01\n        /* \"#utility.yul\":20225:20230   */\n      dup2\n        /* \"#utility.yul\":20221:20234   */\n      add\n        /* \"#utility.yul\":20212:20234   */\n      swap1\n      pop\n        /* \"#utility.yul\":20188:20308   */\n      jump(tag_420)\n    tag_422:\n        /* \"#utility.yul\":20128:20314   */\n      pop\n      pop\n      jump\t// out\n        /* \"#utility.yul\":20320:20863   */\n    tag_214:\n        /* \"#utility.yul\":20421:20423   */\n      0x1f\n        /* \"#utility.yul\":20416:20419   */\n      dup3\n        /* \"#utility.yul\":20413:20424   */\n      gt\n        /* \"#utility.yul\":20410:20856   */\n      iszero\n      tag_425\n      jumpi\n        /* \"#utility.yul\":20455:20493   */\n      tag_426\n        /* \"#utility.yul\":20487:20492   */\n      dup2\n        /* \"#utility.yul\":20455:20493   */\n      tag_203\n      jump\t// in\n    tag_426:\n        /* \"#utility.yul\":20539:20568   */\n      tag_427\n        /* \"#utility.yul\":20557:20567   */\n      dup5\n        /* \"#utility.yul\":20539:20568   */\n      tag_204\n      jump\t// in\n    tag_427:\n        /* \"#utility.yul\":20529:20537   */\n      dup2\n        /* \"#utility.yul\":20525:20569   */\n      add\n        /* \"#utility.yul\":20722:20724   */\n      0x20\n        /* \"#utility.yul\":20710:20720   */\n      dup6\n        /* \"#utility.yul\":20707:20725   */\n      lt\n        /* \"#utility.yul\":20704:20753   */\n      iszero\n      tag_428\n      jumpi\n        /* \"#utility.yul\":20743:20751   */\n      dup2\n        /* \"#utility.yul\":20728:20751   */\n      swap1\n      pop\n        /* \"#utility.yul\":20704:20753   */\n    tag_428:\n        /* \"#utility.yul\":20766:20846   */\n      tag_429\n        /* \"#utility.yul\":20822:20844   */\n      tag_430\n        /* \"#utility.yul\":20840:20843   */\n      dup6\n        /* \"#utility.yul\":20822:20844   */\n      tag_204\n      jump\t// in\n    tag_430:\n        /* \"#utility.yul\":20812:20820   */\n      dup4\n        /* \"#utility.yul\":20808:20845   */\n      add\n        /* \"#utility.yul\":20795:20806   */\n      dup3\n        /* \"#utility.yul\":20766:20846   */\n      tag_213\n      jump\t// in\n    tag_429:\n        /* \"#utility.yul\":20425:20856   */\n      pop\n      pop\n        /* \"#utility.yul\":20410:20856   */\n    tag_425:\n        /* \"#utility.yul\":20320:20863   */\n      pop\n      pop\n      pop\n      jump\t// out\n        /* \"#utility.yul\":20869:20986   */\n    tag_215:\n        /* \"#utility.yul\":20923:20931   */\n      0x00\n        /* \"#utility.yul\":20973:20978   */\n      dup3\n        /* \"#utility.yul\":20967:20971   */\n      dup3\n        /* \"#utility.yul\":20963:20979   */\n      shr\n        /* \"#utility.yul\":20942:20979   */\n      swap1\n      pop\n        /* \"#utility.yul\":20869:20986   */\n      swap3\n      swap2\n      pop\n      pop\n      jump\t// out\n        /* \"#utility.yul\":20992:21161   */\n    tag_216:\n        /* \"#utility.yul\":21036:21042   */\n      0x00\n        /* \"#utility.yul\":21069:21120   */\n      tag_433\n        /* \"#utility.yul\":21117:21118   */\n      0x00\n        /* \"#utility.yul\":21113:21119   */\n      not\n        /* \"#utility.yul\":21105:21110   */\n      dup5\n        /* \"#utility.yul\":21102:21103   */\n      0x08\n        /* \"#utility.yul\":21098:21111   */\n      mul\n        /* \"#utility.yul\":21069:21120   */\n      tag_215\n      jump\t// in\n    tag_433:\n        /* \"#utility.yul\":21065:21121   */\n      not\n        /* \"#utility.yul\":21150:21154   */\n      dup1\n        /* \"#utility.yul\":21144:21148   */\n      dup4\n        /* \"#utility.yul\":21140:21155   */\n      and\n        /* \"#utility.yul\":21130:21155   */\n      swap2\n      pop\n        /* \"#utility.yul\":21043:21161   */\n      pop\n        /* \"#utility.yul\":20992:21161   */\n      swap3\n      swap2\n      pop\n      pop\n      jump\t// out\n        /* \"#utility.yul\":21166:21461   */\n    tag_217:\n        /* \"#utility.yul\":21242:21246   */\n      0x00\n        /* \"#utility.yul\":21388:21417   */\n      tag_435\n        /* \"#utility.yul\":21413:21416   */\n      dup4\n        /* \"#utility.yul\":21407:21411   */\n      dup4\n        /* \"#utility.yul\":21388:21417   */\n      tag_216\n      jump\t// in\n    tag_435:\n        /* \"#utility.yul\":21380:21417   */\n      swap2\n      pop\n        /* \"#utility.yul\":21450:21453   */\n      dup3\n        /* \"#utility.yul\":21447:21448   */\n      0x02\n        /* \"#utility.yul\":21443:21454   */\n      mul\n        /* \"#utility.yul\":21437:21441   */\n      dup3\n        /* \"#utility.yul\":21434:21455   */\n      or\n        /* \"#utility.yul\":21426:21455   */\n      swap1\n      pop\n        /* \"#utility.yul\":21166:21461   */\n      swap3\n      swap2\n      pop\n      pop\n      jump\t// out\n        /* \"#utility.yul\":21466:22861   */\n    tag_111:\n        /* \"#utility.yul\":21583:21620   */\n      tag_437\n        /* \"#utility.yul\":21616:21619   */\n      dup3\n        /* \"#utility.yul\":21583:21620   */\n      tag_173\n      jump\t// in\n    tag_437:\n        /* \"#utility.yul\":21685:21703   */\n      0xffffffffffffffff\n        /* \"#utility.yul\":21677:21683   */\n      dup2\n        /* \"#utility.yul\":21674:21704   */\n      gt\n        /* \"#utility.yul\":21671:21727   */\n      iszero\n      tag_438\n      jumpi\n        /* \"#utility.yul\":21707:21725   */\n      tag_439\n      tag_162\n      jump\t// in\n    tag_439:\n        /* \"#utility.yul\":21671:21727   */\n    tag_438:\n        /* \"#utility.yul\":21751:21789   */\n      tag_440\n        /* \"#utility.yul\":21783:21787   */\n      dup3\n        /* \"#utility.yul\":21777:21788   */\n      sload\n        /* \"#utility.yul\":21751:21789   */\n      tag_54\n      jump\t// in\n    tag_440:\n        /* \"#utility.yul\":21836:21903   */\n      tag_441\n        /* \"#utility.yul\":21896:21902   */\n      dup3\n        /* \"#utility.yul\":21888:21894   */\n      dup3\n        /* \"#utility.yul\":21882:21886   */\n      dup6\n        /* \"#utility.yul\":21836:21903   */\n      tag_214\n      jump\t// in\n    tag_441:\n        /* \"#utility.yul\":21930:21931   */\n      0x00\n        /* \"#utility.yul\":21954:21958   */\n      0x20\n        /* \"#utility.yul\":21941:21958   */\n      swap1\n      pop\n        /* \"#utility.yul\":21986:21988   */\n      0x1f\n        /* \"#utility.yul\":21978:21984   */\n      dup4\n        /* \"#utility.yul\":21975:21989   */\n      gt\n        /* \"#utility.yul\":22003:22004   */\n      0x01\n        /* \"#utility.yul\":21998:22616   */\n      dup2\n      eq\n      tag_443\n      jumpi\n        /* \"#utility.yul\":22660:22661   */\n      0x00\n        /* \"#utility.yul\":22677:22683   */\n      dup5\n        /* \"#utility.yul\":22674:22751   */\n      iszero\n      tag_444\n      jumpi\n        /* \"#utility.yul\":22726:22735   */\n      dup3\n        /* \"#utility.yul\":22721:22724   */\n      dup8\n        /* \"#utility.yul\":22717:22736   */\n      add\n        /* \"#utility.yul\":22711:22737   */\n      mload\n        /* \"#utility.yul\":22702:22737   */\n      swap1\n      pop\n        /* \"#utility.yul\":22674:22751   */\n    tag_444:\n        /* \"#utility.yul\":22777:22844   */\n      tag_445\n        /* \"#utility.yul\":22837:22843   */\n      dup6\n        /* \"#utility.yul\":22830:22835   */\n      dup3\n        /* \"#utility.yul\":22777:22844   */\n      tag_217\n      jump\t// in\n    tag_445:\n        /* \"#utility.yul\":22771:22775   */\n      dup7\n        /* \"#utility.yul\":22764:22845   */\n      sstore\n        /* \"#utility.yul\":22633:22855   */\n      pop\n        /* \"#utility.yul\":21968:22855   */\n      jump(tag_442)\n        /* \"#utility.yul\":21998:22616   */\n    tag_443:\n        /* \"#utility.yul\":22050:22054   */\n      0x1f\n        /* \"#utility.yul\":22046:22055   */\n      not\n        /* \"#utility.yul\":22038:22044   */\n      dup5\n        /* \"#utility.yul\":22034:22056   */\n      and\n        /* \"#utility.yul\":22084:22121   */\n      tag_446\n        /* \"#utility.yul\":22116:22120   */\n      dup7\n        /* \"#utility.yul\":22084:22121   */\n      tag_203\n      jump\t// in\n    tag_446:\n        /* \"#utility.yul\":22143:22144   */\n      0x00\n        /* \"#utility.yul\":22157:22365   */\n    tag_447:\n        /* \"#utility.yul\":22171:22178   */\n      dup3\n        /* \"#utility.yul\":22168:22169   */\n      dup2\n        /* \"#utility.yul\":22165:22179   */\n      lt\n        /* \"#utility.yul\":22157:22365   */\n      iszero\n      tag_449\n      jumpi\n        /* \"#utility.yul\":22250:22259   */\n      dup5\n        /* \"#utility.yul\":22245:22248   */\n      dup10\n        /* \"#utility.yul\":22241:22260   */\n      add\n        /* \"#utility.yul\":22235:22261   */\n      mload\n        /* \"#utility.yul\":22227:22233   */\n      dup3\n        /* \"#utility.yul\":22220:22262   */\n      sstore\n        /* \"#utility.yul\":22301:22302   */\n      0x01\n        /* \"#utility.yul\":22293:22299   */\n      dup3\n        /* \"#utility.yul\":22289:22303   */\n      add\n        /* \"#utility.yul\":22279:22303   */\n      swap2\n      pop\n        /* \"#utility.yul\":22348:22350   */\n      0x20\n        /* \"#utility.yul\":22337:22346   */\n      dup6\n        /* \"#utility.yul\":22333:22351   */\n      add\n        /* \"#utility.yul\":22320:22351   */\n      swap5\n      pop\n        /* \"#utility.yul\":22194:22198   */\n      0x20\n        /* \"#utility.yul\":22191:22192   */\n      dup2\n        /* \"#utility.yul\":22187:22199   */\n      add\n        /* \"#utility.yul\":22182:22199   */\n      swap1\n      pop\n        /* \"#utility.yul\":22157:22365   */\n      jump(tag_447)\n    tag_449:\n        /* \"#utility.yul\":22393:22399   */\n      dup7\n        /* \"#utility.yul\":22384:22391   */\n      dup4\n        /* \"#utility.yul\":22381:22400   */\n      lt\n        /* \"#utility.yul\":22378:22557   */\n      iszero\n      tag_450\n      jumpi\n        /* \"#utility.yul\":22451:22460   */\n      dup5\n        /* \"#utility.yul\":22446:22449   */\n      dup10\n        /* \"#utility.yul\":22442:22461   */\n      add\n        /* \"#utility.yul\":22436:22462   */\n      mload\n        /* \"#utility.yul\":22494:22542   */\n      tag_451\n        /* \"#utility.yul\":22536:22540   */\n      0x1f\n        /* \"#utility.yul\":22528:22534   */\n      dup10\n        /* \"#utility.yul\":22524:22541   */\n      and\n        /* \"#utility.yul\":22513:22522   */\n      dup3\n        /* \"#utility.yul\":22494:22542   */\n      tag_216\n      jump\t// in\n    tag_451:\n        /* \"#utility.yul\":22486:22492   */\n      dup4\n        /* \"#utility.yul\":22479:22543   */\n      sstore\n        /* \"#utility.yul\":22401:22557   */\n      pop\n        /* \"#utility.yul\":22378:22557   */\n    tag_450:\n        /* \"#utility.yul\":22603:22604   */\n      0x01\n        /* \"#utility.yul\":22599:22600   */\n      0x02\n        /* \"#utility.yul\":22591:22597   */\n      dup9\n        /* \"#utility.yul\":22587:22601   */\n      mul\n        /* \"#utility.yul\":22583:22605   */\n      add\n        /* \"#utility.yul\":22577:22581   */\n      dup9\n        /* \"#utility.yul\":22570:22606   */\n      sstore\n        /* \"#utility.yul\":22005:22616   */\n      pop\n      pop\n      pop\n        /* \"#utility.yul\":21968:22855   */\n    tag_442:\n      pop\n        /* \"#utility.yul\":21558:22861   */\n      pop\n      pop\n      pop\n        /* \"#utility.yul\":21466:22861   */\n      pop\n      pop\n      jump\t// out\n        /* \"#utility.yul\":22867:23582   */\n    tag_117:\n        /* \"#utility.yul\":23076:23080   */\n      0x00\n        /* \"#utility.yul\":23114:23116   */\n      0x60\n        /* \"#utility.yul\":23103:23112   */\n      dup3\n        /* \"#utility.yul\":23099:23117   */\n      add\n        /* \"#utility.yul\":23091:23117   */\n      swap1\n      pop\n        /* \"#utility.yul\":23163:23172   */\n      dup2\n        /* \"#utility.yul\":23157:23161   */\n      dup2\n        /* \"#utility.yul\":23153:23173   */\n      sub\n        /* \"#utility.yul\":23149:23150   */\n      0x00\n        /* \"#utility.yul\":23138:23147   */\n      dup4\n        /* \"#utility.yul\":23134:23151   */\n      add\n        /* \"#utility.yul\":23127:23174   */\n      mstore\n        /* \"#utility.yul\":23191:23269   */\n      tag_453\n        /* \"#utility.yul\":23264:23268   */\n      dup2\n        /* \"#utility.yul\":23255:23261   */\n      dup7\n        /* \"#utility.yul\":23191:23269   */\n      tag_176\n      jump\t// in\n    tag_453:\n        /* \"#utility.yul\":23183:23269   */\n      swap1\n      pop\n        /* \"#utility.yul\":23316:23325   */\n      dup2\n        /* \"#utility.yul\":23310:23314   */\n      dup2\n        /* \"#utility.yul\":23306:23326   */\n      sub\n        /* \"#utility.yul\":23301:23303   */\n      0x20\n        /* \"#utility.yul\":23290:23299   */\n      dup4\n        /* \"#utility.yul\":23286:23304   */\n      add\n        /* \"#utility.yul\":23279:23327   */\n      mstore\n        /* \"#utility.yul\":23344:23422   */\n      tag_454\n        /* \"#utility.yul\":23417:23421   */\n      dup2\n        /* \"#utility.yul\":23408:23414   */\n      dup6\n        /* \"#utility.yul\":23344:23422   */\n      tag_176\n      jump\t// in\n    tag_454:\n        /* \"#utility.yul\":23336:23422   */\n      swap1\n      pop\n        /* \"#utility.yul\":23469:23478   */\n      dup2\n        /* \"#utility.yul\":23463:23467   */\n      dup2\n        /* \"#utility.yul\":23459:23479   */\n      sub\n        /* \"#utility.yul\":23454:23456   */\n      0x40\n        /* \"#utility.yul\":23443:23452   */\n      dup4\n        /* \"#utility.yul\":23439:23457   */\n      add\n        /* \"#utility.yul\":23432:23480   */\n      mstore\n        /* \"#utility.yul\":23497:23575   */\n      tag_455\n        /* \"#utility.yul\":23570:23574   */\n      dup2\n        /* \"#utility.yul\":23561:23567   */\n      dup5\n        /* \"#utility.yul\":23497:23575   */\n      tag_176\n      jump\t// in\n    tag_455:\n        /* \"#utility.yul\":23489:23575   */\n      swap1\n      pop\n        /* \"#utility.yul\":22867:23582   */\n      swap5\n      swap4\n      pop\n      pop\n      pop\n      pop\n      jump\t// out\n        /* \"#utility.yul\":23588:23823   */\n    tag_218:\n        /* \"#utility.yul\":23728:23762   */\n      0x436572746966696361746520646f6573206e6f74206578697374206f72206973\n        /* \"#utility.yul\":23724:23725   */\n      0x00\n        /* \"#utility.yul\":23716:23722   */\n      dup3\n        /* \"#utility.yul\":23712:23726   */\n      add\n        /* \"#utility.yul\":23705:23763   */\n      mstore\n        /* \"#utility.yul\":23797:23815   */\n      0x20616c7265616479207265766f6b656400000000000000000000000000000000\n        /* \"#utility.yul\":23792:23794   */\n      0x20\n        /* \"#utility.yul\":23784:23790   */\n      dup3\n        /* \"#utility.yul\":23780:23795   */\n      add\n        /* \"#utility.yul\":23773:23816   */\n      mstore\n        /* \"#utility.yul\":23588:23823   */\n      pop\n      jump\t// out\n        /* \"#utility.yul\":23829:24195   */\n    tag_219:\n        /* \"#utility.yul\":23971:23974   */\n      0x00\n        /* \"#utility.yul\":23992:24059   */\n      tag_458\n        /* \"#utility.yul\":24056:24058   */\n      0x30\n        /* \"#utility.yul\":24051:24054   */\n      dup4\n        /* \"#utility.yul\":23992:24059   */\n      tag_174\n      jump\t// in\n    tag_458:\n        /* \"#utility.yul\":23985:24059   */\n      swap2\n      pop\n        /* \"#utility.yul\":24068:24161   */\n      tag_459\n        /* \"#utility.yul\":24157:24160   */\n      dup3\n        /* \"#utility.yul\":24068:24161   */\n      tag_218\n      jump\t// in\n    tag_459:\n        /* \"#utility.yul\":24186:24188   */\n      0x40\n        /* \"#utility.yul\":24181:24184   */\n      dup3\n        /* \"#utility.yul\":24177:24189   */\n      add\n        /* \"#utility.yul\":24170:24189   */\n      swap1\n      pop\n        /* \"#utility.yul\":23829:24195   */\n      swap2\n      swap1\n      pop\n      jump\t// out\n        /* \"#utility.yul\":24201:24620   */\n    tag_143:\n        /* \"#utility.yul\":24367:24371   */\n      0x00\n        /* \"#utility.yul\":24405:24407   */\n      0x20\n        /* \"#utility.yul\":24394:24403   */\n      dup3\n        /* \"#utility.yul\":24390:24408   */\n      add\n        /* \"#utility.yul\":24382:24408   */\n      swap1\n      pop\n        /* \"#utility.yul\":24454:24463   */\n      dup2\n        /* \"#utility.yul\":24448:24452   */\n      dup2\n        /* \"#utility.yul\":24444:24464   */\n      sub\n        /* \"#utility.yul\":24440:24441   */\n      0x00\n        /* \"#utility.yul\":24429:24438   */\n      dup4\n        /* \"#utility.yul\":24425:24442   */\n      add\n        /* \"#utility.yul\":24418:24465   */\n      mstore\n        /* \"#utility.yul\":24482:24613   */\n      tag_461\n        /* \"#utility.yul\":24608:24612   */\n      dup2\n        /* \"#utility.yul\":24482:24613   */\n      tag_219\n      jump\t// in\n    tag_461:\n        /* \"#utility.yul\":24474:24613   */\n      swap1\n      pop\n        /* \"#utility.yul\":24201:24620   */\n      swap2\n      swap1\n      pop\n      jump\t// out\n        /* \"#utility.yul\":24626:24865   */\n    tag_220:\n        /* \"#utility.yul\":24766:24800   */\n      0x4f6e6c792074686520697373756572206f72206f776e65722063616e20726576\n        /* \"#utility.yul\":24762:24763   */\n      0x00\n        /* \"#utility.yul\":24754:24760   */\n      dup3\n        /* \"#utility.yul\":24750:24764   */\n      add\n        /* \"#utility.yul\":24743:24801   */\n      mstore\n        /* \"#utility.yul\":24835:24857   */\n      0x6f6b652074686973206365727469666963617465000000000000000000000000\n        /* \"#utility.yul\":24830:24832   */\n      0x20\n        /* \"#utility.yul\":24822:24828   */\n      dup3\n        /* \"#utility.yul\":24818:24833   */\n      add\n        /* \"#utility.yul\":24811:24858   */\n      mstore\n        /* \"#utility.yul\":24626:24865   */\n      pop\n      jump\t// out\n        /* \"#utility.yul\":24871:25237   */\n    tag_221:\n        /* \"#utility.yul\":25013:25016   */\n      0x00\n        /* \"#utility.yul\":25034:25101   */\n      tag_464\n        /* \"#utility.yul\":25098:25100   */\n      0x34\n        /* \"#utility.yul\":25093:25096   */\n      dup4\n        /* \"#utility.yul\":25034:25101   */\n      tag_174\n      jump\t// in\n    tag_464:\n        /* \"#utility.yul\":25027:25101   */\n      swap2\n      pop\n        /* \"#utility.yul\":25110:25203   */\n      tag_465\n        /* \"#utility.yul\":25199:25202   */\n      dup3\n        /* \"#utility.yul\":25110:25203   */\n      tag_220\n      jump\t// in\n    tag_465:\n        /* \"#utility.yul\":25228:25230   */\n      0x40\n        /* \"#utility.yul\":25223:25226   */\n      dup3\n        /* \"#utility.yul\":25219:25231   */\n      add\n        /* \"#utility.yul\":25212:25231   */\n      swap1\n      pop\n        /* \"#utility.yul\":24871:25237   */\n      swap2\n      swap1\n      pop\n      jump\t// out\n        /* \"#utility.yul\":25243:25662   */\n    tag_147:\n        /* \"#utility.yul\":25409:25413   */\n      0x00\n        /* \"#utility.yul\":25447:25449   */\n      0x20\n        /* \"#utility.yul\":25436:25445   */\n      dup3\n        /* \"#utility.yul\":25432:25450   */\n      add\n        /* \"#utility.yul\":25424:25450   */\n      swap1\n      pop\n        /* \"#utility.yul\":25496:25505   */\n      dup2\n        /* \"#utility.yul\":25490:25494   */\n      dup2\n        /* \"#utility.yul\":25486:25506   */\n      sub\n        /* \"#utility.yul\":25482:25483   */\n      0x00\n        /* \"#utility.yul\":25471:25480   */\n      dup4\n        /* \"#utility.yul\":25467:25484   */\n      add\n        /* \"#utility.yul\":25460:25507   */\n      mstore\n        /* \"#utility.yul\":25524:25655   */\n      tag_467\n        /* \"#utility.yul\":25650:25654   */\n      dup2\n        /* \"#utility.yul\":25524:25655   */\n      tag_221\n      jump\t// in\n    tag_467:\n        /* \"#utility.yul\":25516:25655   */\n      swap1\n      pop\n        /* \"#utility.yul\":25243:25662   */\n      swap2\n      swap1\n      pop\n      jump\t// out\n        /* \"#utility.yul\":25668:25889   */\n    tag_222:\n        /* \"#utility.yul\":25808:25842   */\n      0x4f6e6c79206f776e65722063616e20706572666f726d20746869732061637469\n        /* \"#utility.yul\":25804:25805   */\n      0x00\n        /* \"#utility.yul\":25796:25802   */\n      dup3\n        /* \"#utility.yul\":25792:25806   */\n      add\n        /* \"#utility.yul\":25785:25843   */\n      mstore\n        /* \"#utility.yul\":25877:25881   */\n      0x6f6e000000000000000000000000000000000000000000000000000000000000\n        /* \"#utility.yul\":25872:25874   */\n      0x20\n        /* \"#utility.yul\":25864:25870   */\n      dup3\n        /* \"#utility.yul\":25860:25875   */\n      add\n        /* \"#utility.yul\":25853:25882   */\n      mstore\n        /* \"#utility.yul\":25668:25889   */\n      pop\n      jump\t// out\n        /* \"#utility.yul\":25895:26261   */\n    tag_223:\n        /* \"#utility.yul\":26037:26040   */\n      0x00\n        /* \"#utility.yul\":26058:26125   */\n      tag_470\n        /* \"#utility.yul\":26122:26124   */\n      0x22\n        /* \"#utility.yul\":26117:26120   */\n      dup4\n        /* \"#utility.yul\":26058:26125   */\n      tag_174\n      jump\t// in\n    tag_470:\n        /* \"#utility.yul\":26051:26125   */\n      swap2\n      pop\n        /* \"#utility.yul\":26134:26227   */\n      tag_471\n        /* \"#utility.yul\":26223:26226   */\n      dup3\n        /* \"#utility.yul\":26134:26227   */\n      tag_222\n      jump\t// in\n    tag_471:\n        /* \"#utility.yul\":26252:26254   */\n      0x40\n        /* \"#utility.yul\":26247:26250   */\n      dup3\n        /* \"#utility.yul\":26243:26255   */\n      add\n        /* \"#utility.yul\":26236:26255   */\n      swap1\n      pop\n        /* \"#utility.yul\":25895:26261   */\n      swap2\n      swap1\n      pop\n      jump\t// out\n        /* \"#utility.yul\":26267:26686   */\n    tag_151:\n        /* \"#utility.yul\":26433:26437   */\n      0x00\n        /* \"#utility.yul\":26471:26473   */\n      0x20\n        /* \"#utility.yul\":26460:26469   */\n      dup3\n        /* \"#utility.yul\":26456:26474   */\n      add\n        /* \"#utility.yul\":26448:26474   */\n      swap1\n      pop\n        /* \"#utility.yul\":26520:26529   */\n      dup2\n        /* \"#utility.yul\":26514:26518   */\n      dup2\n        /* \"#utility.yul\":26510:26530   */\n      sub\n        /* \"#utility.yul\":26506:26507   */\n      0x00\n        /* \"#utility.yul\":26495:26504   */\n      dup4\n        /* \"#utility.yul\":26491:26508   */\n      add\n        /* \"#utility.yul\":26484:26531   */\n      mstore\n        /* \"#utility.yul\":26548:26679   */\n      tag_473\n        /* \"#utility.yul\":26674:26678   */\n      dup2\n        /* \"#utility.yul\":26548:26679   */\n      tag_223\n      jump\t// in\n    tag_473:\n        /* \"#utility.yul\":26540:26679   */\n      swap1\n      pop\n        /* \"#utility.yul\":26267:26686   */\n      swap2\n      swap1\n      pop\n      jump\t// out\n        /* \"#utility.yul\":26692:26874   */\n    tag_224:\n        /* \"#utility.yul\":26832:26866   */\n      0x4e6577206f776e65722063616e6e6f74206265207a65726f2061646472657373\n        /* \"#utility.yul\":26828:26829   */\n      0x00\n        /* \"#utility.yul\":26820:26826   */\n      dup3\n        /* \"#utility.yul\":26816:26830   */\n      add\n        /* \"#utility.yul\":26809:26867   */\n      mstore\n        /* \"#utility.yul\":26692:26874   */\n      pop\n      jump\t// out\n        /* \"#utility.yul\":26880:27246   */\n    tag_225:\n        /* \"#utility.yul\":27022:27025   */\n      0x00\n        /* \"#utility.yul\":27043:27110   */\n      tag_476\n        /* \"#utility.yul\":27107:27109   */\n      0x20\n        /* \"#utility.yul\":27102:27105   */\n      dup4\n        /* \"#utility.yul\":27043:27110   */\n      tag_174\n      jump\t// in\n    tag_476:\n        /* \"#utility.yul\":27036:27110   */\n      swap2\n      pop\n        /* \"#utility.yul\":27119:27212   */\n      tag_477\n        /* \"#utility.yul\":27208:27211   */\n      dup3\n        /* \"#utility.yul\":27119:27212   */\n      tag_224\n      jump\t// in\n    tag_477:\n        /* \"#utility.yul\":27237:27239   */\n      0x20\n        /* \"#utility.yul\":27232:27235   */\n      dup3\n        /* \"#utility.yul\":27228:27240   */\n      add\n        /* \"#utility.yul\":27221:27240   */\n      swap1\n      pop\n        /* \"#utility.yul\":26880:27246   */\n      swap2\n      swap1\n      pop\n      jump\t// out\n        /* \"#utility.yul\":27252:27671   */\n    tag_155:\n        /* \"#utility.yul\":27418:27422   */\n      0x00\n        /* \"#utility.yul\":27456:27458   */\n      0x20\n        /* \"#utility.yul\":27445:27454   */\n      dup3\n        /* \"#utility.yul\":27441:27459   */\n      add\n        /* \"#utility.yul\":27433:27459   */\n      swap1\n      pop\n        /* \"#utility.yul\":27505:27514   */\n      dup2\n        /* \"#utility.yul\":27499:27503   */\n      dup2\n        /* \"#utility.yul\":27495:27515   */\n      sub\n        /* \"#utility.yul\":27491:27492   */\n      0x00\n        /* \"#utility.yul\":27480:27489   */\n      dup4\n        /* \"#utility.yul\":27476:27493   */\n      add\n        /* \"#utility.yul\":27469:27516   */\n      mstore\n        /* \"#utility.yul\":27533:27664   */\n      tag_479\n        /* \"#utility.yul\":27659:27663   */\n      dup2\n        /* \"#utility.yul\":27533:27664   */\n      tag_225\n      jump\t// in\n    tag_479:\n        /* \"#utility.yul\":27525:27664   */\n      swap1\n      pop\n        /* \"#utility.yul\":27252:27671   */\n      swap2\n      swap1\n      pop\n      jump\t// out\n\n    auxdata: 0xa26469706673582212204f35fa0772c0e4a5bff90e73235dbdedfcbfee5d0f3d123ef2344903301ead0c64736f6c634300081e0033\n}\n",
				"bytecode": {
					"linkReferences": {},
					"object": "6080604052348015600e575f5ffd5b503360025f6101000a81548173ffffffffffffffffffffffffffffffffffffffff021916908373ffffffffffffffffffffffffffffffffffffffff160217905550611f648061005c5f395ff3fe608060405234801561000f575f5ffd5b5060043610610086575f3560e01c80638da5cb5b116100595780638da5cb5b14610156578063abe692d214610174578063c6cbc52a146101aa578063f2fde38b146101c657610086565b80632451a2821461008a578063742f0688146100c0578063818a2994146100f6578063836ae77114610126575b5f5ffd5b6100a4600480360381019061009f91906112eb565b6101e2565b6040516100b7979695949392919061141b565b60405180910390f35b6100da60048036038101906100d591906114c7565b610572565b6040516100ed97969594939291906114f2565b60405180910390f35b610110600480360381019061010b919061157b565b6107f3565b60405161011d919061164f565b60405180910390f35b610140600480360381019061013b91906112eb565b610af6565b60405161014d919061164f565b60405180910390f35b61015e610b23565b60405161016b9190611668565b60405180910390f35b61018e600480360381019061018991906114c7565b610b48565b6040516101a19796959493929190611681565b60405180910390f35b6101c460048036038101906101bf91906114c7565b610ec6565b005b6101e060048036038101906101db9190611734565b61105e565b005b5f5f60608060605f5f5f6001896040516101fc9190611799565b90815260200160405180910390205490505f5f5f8381526020019081526020015f206040518060e00160405290815f82018054610238906117dc565b80601f0160208091040260200160405190810160405280929190818152602001828054610264906117dc565b80156102af5780601f10610286576101008083540402835291602001916102af565b820191905f5260205f20905b81548152906001019060200180831161029257829003601f168201915b505050505081526020016001820180546102c8906117dc565b80601f01602080910402602001604051908101604052809291908181526020018280546102f4906117dc565b801561033f5780601f106103165761010080835404028352916020019161033f565b820191905f5260205f20905b81548152906001019060200180831161032257829003601f168201915b50505050508152602001600282018054610358906117dc565b80601f0160208091040260200160405190810160405280929190818152602001828054610384906117dc565b80156103cf5780601f106103a6576101008083540402835291602001916103cf565b820191905f5260205f20905b8154815290600101906020018083116103b257829003601f168201915b505050505081526020016003820180546103e8906117dc565b80601f0160208091040260200160405190810160405280929190818152602001828054610414906117dc565b801561045f5780601f106104365761010080835404028352916020019161045f565b820191905f5260205f20905b81548152906001019060200180831161044257829003601f168201915b5050505050815260200160048201548152602001600582015f9054906101000a900460ff161515151581526020016005820160019054906101000a900473ffffffffffffffffffffffffffffffffffffffff1673ffffffffffffffffffffffffffffffffffffffff1673ffffffffffffffffffffffffffffffffffffffff168152505090508060a0015161053b575f5f5f1b5f5f60405180602001604052805f815250919060405180602001604052805f815250919060405180602001604052805f815250919098509850985098509850985098505050610567565b600182825f01518360200151846040015185608001518660c00151985098509850985098509850985050505b919395979092949650565b5f602052805f5260405f205f91509050805f018054610590906117dc565b80601f01602080910402602001604051908101604052809291908181526020018280546105bc906117dc565b80156106075780601f106105de57610100808354040283529160200191610607565b820191905f5260205f20905b8154815290600101906020018083116105ea57829003601f168201915b50505050509080600101805461061c906117dc565b80601f0160208091040260200160405190810160405280929190818152602001828054610648906117dc565b80156106935780601f1061066a57610100808354040283529160200191610693565b820191905f5260205f20905b81548152906001019060200180831161067657829003601f168201915b5050505050908060020180546106a8906117dc565b80601f01602080910402602001604051908101604052809291908181526020018280546106d4906117dc565b801561071f5780601f106106f65761010080835404028352916020019161071f565b820191905f5260205f20905b81548152906001019060200180831161070257829003601f168201915b505050505090806003018054610734906117dc565b80601f0160208091040260200160405190810160405280929190818152602001828054610760906117dc565b80156107ab5780601f10610782576101008083540402835291602001916107ab565b820191905f5260205f20905b81548152906001019060200180831161078e57829003601f168201915b505050505090806004015490806005015f9054906101000a900460ff16908060050160019054906101000a900473ffffffffffffffffffffffffffffffffffffffff16905087565b5f5f845111610837576040517f08c379a000000000000000000000000000000000000000000000000000000000815260040161082e90611856565b60405180910390fd5b5f83511161087a576040517f08c379a0000000000000000000000000000000000000000000000000000000008152600401610871906118be565b60405180910390fd5b5f8251116108bd576040517f08c379a00000000000000000000000000000000000000000000000000000000081526004016108b490611926565b60405180910390fd5b5f84848442336040516020016108d79594939291906119a9565b6040516020818303038152906040528051906020012090505f5f8281526020019081526020015f206005015f9054906101000a900460ff161561094f576040517f08c379a000000000000000000000000000000000000000000000000000000000815260040161094690611a45565b60405180910390fd5b6040518060e001604052808781526020018681526020018581526020018481526020014281526020016001151581526020013373ffffffffffffffffffffffffffffffffffffffff168152505f5f8381526020019081526020015f205f820151815f0190816109be9190611c03565b5060208201518160010190816109d49190611c03565b5060408201518160020190816109ea9190611c03565b506060820151816003019081610a009190611c03565b506080820151816004015560a0820151816005015f6101000a81548160ff02191690831515021790555060c08201518160050160016101000a81548173ffffffffffffffffffffffffffffffffffffffff021916908373ffffffffffffffffffffffffffffffffffffffff16021790555090505080600184604051610a859190611799565b9081526020016040518091039020819055503373ffffffffffffffffffffffffffffffffffffffff16817f547234ba365a50d63dcb772fec536a40fb0b8abd74ae7db26e7cd93308e75ce6878787604051610ae293929190611cd2565b60405180910390a380915050949350505050565b6001818051602081018201805184825260208301602085012081835280955050505050505f915090505481565b60025f9054906101000a900473ffffffffffffffffffffffffffffffffffffffff1681565b5f6060806060805f5f5f5f5f8a81526020019081526020015f206040518060e00160405290815f82018054610b7c906117dc565b80601f0160208091040260200160405190810160405280929190818152602001828054610ba8906117dc565b8015610bf35780601f10610bca57610100808354040283529160200191610bf3565b820191905f5260205f20905b815481529060010190602001808311610bd657829003601f168201915b50505050508152602001600182018054610c0c906117dc565b80601f0160208091040260200160405190810160405280929190818152602001828054610c38906117dc565b8015610c835780601f10610c5a57610100808354040283529160200191610c83565b820191905f5260205f20905b815481529060010190602001808311610c6657829003601f168201915b50505050508152602001600282018054610c9c906117dc565b80601f0160208091040260200160405190810160405280929190818152602001828054610cc8906117dc565b8015610d135780601f10610cea57610100808354040283529160200191610d13565b820191905f5260205f20905b815481529060010190602001808311610cf657829003601f168201915b50505050508152602001600382018054610d2c906117dc565b80601f0160208091040260200160405190810160405280929190818152602001828054610d58906117dc565b8015610da35780601f10610d7a57610100808354040283529160200191610da3565b820191905f5260205f20905b815481529060010190602001808311610d8657829003601f168201915b5050505050815260200160048201548152602001600582015f9054906101000a900460ff161515151581526020016005820160019054906101000a900473ffffffffffffffffffffffffffffffffffffffff1673ffffffffffffffffffffffffffffffffffffffff1673ffffffffffffffffffffffffffffffffffffffff168152505090508060a00151610e8c575f5f5f60405180602001604052805f815250919060405180602001604052805f815250919060405180602001604052805f815250919060405180602001604052805f8152509190975097509750975097509750975050610ebb565b6001815f015182602001518360400151846060015185608001518660c001519750975097509750975097509750505b919395979092949650565b5f5f5f8381526020019081526020015f209050806005015f9054906101000a900460ff16610f29576040517f08c379a0000000000000000000000000000000000000000000000000000000008152600401610f2090611d8c565b60405180910390fd5b3373ffffffffffffffffffffffffffffffffffffffff168160050160019054906101000a900473ffffffffffffffffffffffffffffffffffffffff1673ffffffffffffffffffffffffffffffffffffffff161480610fd3575060025f9054906101000a900473ffffffffffffffffffffffffffffffffffffffff1673ffffffffffffffffffffffffffffffffffffffff163373ffffffffffffffffffffffffffffffffffffffff16145b611012576040517f08c379a000000000000000000000000000000000000000000000000000000000815260040161100990611e1a565b60405180910390fd5b5f816005015f6101000a81548160ff021916908315150217905550817f44d80a438cb4fa3b5aedbe551ce3d9382e37f446917b783e1dee70a03b4180e360405160405180910390a25050565b60025f9054906101000a900473ffffffffffffffffffffffffffffffffffffffff1673ffffffffffffffffffffffffffffffffffffffff163373ffffffffffffffffffffffffffffffffffffffff16146110ed576040517f08c379a00000000000000000000000000000000000000000000000000000000081526004016110e490611ea8565b60405180910390fd5b5f73ffffffffffffffffffffffffffffffffffffffff168173ffffffffffffffffffffffffffffffffffffffff160361115b576040517f08c379a000000000000000000000000000000000000000000000000000000000815260040161115290611f10565b60405180910390fd5b8060025f6101000a81548173ffffffffffffffffffffffffffffffffffffffff021916908373ffffffffffffffffffffffffffffffffffffffff16021790555050565b5f604051905090565b5f5ffd5b5f5ffd5b5f5ffd5b5f5ffd5b5f601f19601f8301169050919050565b7f4e487b71000000000000000000000000000000000000000000000000000000005f52604160045260245ffd5b6111fd826111b7565b810181811067ffffffffffffffff8211171561121c5761121b6111c7565b5b80604052505050565b5f61122e61119e565b905061123a82826111f4565b919050565b5f67ffffffffffffffff821115611259576112586111c7565b5b611262826111b7565b9050602081019050919050565b828183375f83830152505050565b5f61128f61128a8461123f565b611225565b9050828152602081018484840111156112ab576112aa6111b3565b5b6112b684828561126f565b509392505050565b5f82601f8301126112d2576112d16111af565b5b81356112e284826020860161127d565b91505092915050565b5f60208284031215611300576112ff6111a7565b5b5f82013567ffffffffffffffff81111561131d5761131c6111ab565b5b611329848285016112be565b91505092915050565b5f8115159050919050565b61134681611332565b82525050565b5f819050919050565b61135e8161134c565b82525050565b5f81519050919050565b5f82825260208201905092915050565b8281835e5f83830152505050565b5f61139682611364565b6113a0818561136e565b93506113b081856020860161137e565b6113b9816111b7565b840191505092915050565b5f819050919050565b6113d6816113c4565b82525050565b5f73ffffffffffffffffffffffffffffffffffffffff82169050919050565b5f611405826113dc565b9050919050565b611415816113fb565b82525050565b5f60e08201905061142e5f83018a61133d565b61143b6020830189611355565b818103604083015261144d818861138c565b90508181036060830152611461818761138c565b90508181036080830152611475818661138c565b905061148460a08301856113cd565b61149160c083018461140c565b98975050505050505050565b6114a68161134c565b81146114b0575f5ffd5b50565b5f813590506114c18161149d565b92915050565b5f602082840312156114dc576114db6111a7565b5b5f6114e9848285016114b3565b91505092915050565b5f60e0820190508181035f83015261150a818a61138c565b9050818103602083015261151e818961138c565b90508181036040830152611532818861138c565b90508181036060830152611546818761138c565b905061155560808301866113cd565b61156260a083018561133d565b61156f60c083018461140c565b98975050505050505050565b5f5f5f5f60808587031215611593576115926111a7565b5b5f85013567ffffffffffffffff8111156115b0576115af6111ab565b5b6115bc878288016112be565b945050602085013567ffffffffffffffff8111156115dd576115dc6111ab565b5b6115e9878288016112be565b935050604085013567ffffffffffffffff81111561160a576116096111ab565b5b611616878288016112be565b925050606085013567ffffffffffffffff811115611637576116366111ab565b5b611643878288016112be565b91505092959194509250565b5f6020820190506116625f830184611355565b92915050565b5f60208201905061167b5f83018461140c565b92915050565b5f60e0820190506116945f83018a61133d565b81810360208301526116a6818961138c565b905081810360408301526116ba818861138c565b905081810360608301526116ce818761138c565b905081810360808301526116e2818661138c565b90506116f160a08301856113cd565b6116fe60c083018461140c565b98975050505050505050565b611713816113fb565b811461171d575f5ffd5b50565b5f8135905061172e8161170a565b92915050565b5f60208284031215611749576117486111a7565b5b5f61175684828501611720565b91505092915050565b5f81905092915050565b5f61177382611364565b61177d818561175f565b935061178d81856020860161137e565b80840191505092915050565b5f6117a48284611769565b915081905092915050565b7f4e487b71000000000000000000000000000000000000000000000000000000005f52602260045260245ffd5b5f60028204905060018216806117f357607f821691505b602082108103611806576118056117af565b5b50919050565b7f53747564656e74206e616d652063616e6e6f7420626520656d707479000000005f82015250565b5f611840601c8361136e565b915061184b8261180c565b602082019050919050565b5f6020820190508181035f83015261186d81611834565b9050919050565b7f436f75727365206e616d652063616e6e6f7420626520656d70747900000000005f82015250565b5f6118a8601b8361136e565b91506118b382611874565b602082019050919050565b5f6020820190508181035f8301526118d58161189c565b9050919050565b7f4950465320686173682063616e6e6f7420626520656d707479000000000000005f82015250565b5f61191060198361136e565b915061191b826118dc565b602082019050919050565b5f6020820190508181035f83015261193d81611904565b9050919050565b5f819050919050565b61195e611959826113c4565b611944565b82525050565b5f8160601b9050919050565b5f61197a82611964565b9050919050565b5f61198b82611970565b9050919050565b6119a361199e826113fb565b611981565b82525050565b5f6119b48288611769565b91506119c08287611769565b91506119cc8286611769565b91506119d8828561194d565b6020820191506119e88284611992565b6014820191508190509695505050505050565b7f436572746966696361746520616c7265616479206578697374730000000000005f82015250565b5f611a2f601a8361136e565b9150611a3a826119fb565b602082019050919050565b5f6020820190508181035f830152611a5c81611a23565b9050919050565b5f819050815f5260205f209050919050565b5f6020601f8301049050919050565b5f82821b905092915050565b5f60088302611abf7fffffffffffffffffffffffffffffffffffffffffffffffffffffffffffffffff82611a84565b611ac98683611a84565b95508019841693508086168417925050509392505050565b5f819050919050565b5f611b04611aff611afa846113c4565b611ae1565b6113c4565b9050919050565b5f819050919050565b611b1d83611aea565b611b31611b2982611b0b565b848454611a90565b825550505050565b5f5f905090565b611b48611b39565b611b53818484611b14565b505050565b5b81811015611b7657611b6b5f82611b40565b600181019050611b59565b5050565b601f821115611bbb57611b8c81611a63565b611b9584611a75565b81016020851015611ba4578190505b611bb8611bb085611a75565b830182611b58565b50505b505050565b5f82821c905092915050565b5f611bdb5f1984600802611bc0565b1980831691505092915050565b5f611bf38383611bcc565b9150826002028217905092915050565b611c0c82611364565b67ffffffffffffffff811115611c2557611c246111c7565b5b611c2f82546117dc565b611c3a828285611b7a565b5f60209050601f831160018114611c6b575f8415611c59578287015190505b611c638582611be8565b865550611cca565b601f198416611c7986611a63565b5f5b82811015611ca057848901518255600182019150602085019450602081019050611c7b565b86831015611cbd5784890151611cb9601f891682611bcc565b8355505b6001600288020188555050505b505050505050565b5f6060820190508181035f830152611cea818661138c565b90508181036020830152611cfe818561138c565b90508181036040830152611d12818461138c565b9050949350505050565b7f436572746966696361746520646f6573206e6f74206578697374206f722069735f8201527f20616c7265616479207265766f6b656400000000000000000000000000000000602082015250565b5f611d7660308361136e565b9150611d8182611d1c565b604082019050919050565b5f6020820190508181035f830152611da381611d6a565b9050919050565b7f4f6e6c792074686520697373756572206f72206f776e65722063616e207265765f8201527f6f6b652074686973206365727469666963617465000000000000000000000000602082015250565b5f611e0460348361136e565b9150611e0f82611daa565b604082019050919050565b5f6020820190508181035f830152611e3181611df8565b9050919050565b7f4f6e6c79206f776e65722063616e20706572666f726d207468697320616374695f8201527f6f6e000000000000000000000000000000000000000000000000000000000000602082015250565b5f611e9260228361136e565b9150611e9d82611e38565b604082019050919050565b5f6020820190508181035f830152611ebf81611e86565b9050919050565b7f4e6577206f776e65722063616e6e6f74206265207a65726f20616464726573735f82015250565b5f611efa60208361136e565b9150611f0582611ec6565b602082019050919050565b5f6020820190508181035f830152611f2781611eee565b905091905056fea26469706673582212204f35fa0772c0e4a5bff90e73235dbdedfcbfee5d0f3d123ef2344903301ead0c64736f6c634300081e0033",
					"opcodes": "PUSH1 0x80 PUSH1 0x40 MSTORE CALLVALUE DUP1 ISZERO PUSH1 0xE JUMPI PUSH0 PUSH0 REVERT JUMPDEST POP CALLER PUSH1 0x2 PUSH0 PUSH2 0x100 EXP DUP2 SLOAD DUP2 PUSH20 0xFFFFFFFFFFFFFFFFFFFFFFFFFFFFFFFFFFFFFFFF MUL NOT AND SWAP1 DUP4 PUSH20 0xFFFFFFFFFFFFFFFFFFFFFFFFFFFFFFFFFFFFFFFF AND MUL OR SWAP1 SSTORE POP PUSH2 0x1F64 DUP1 PUSH2 0x5C PUSH0 CODECOPY PUSH0 RETURN INVALID PUSH1 0x80 PUSH1 0x40 MSTORE CALLVALUE DUP1 ISZERO PUSH2 0xF JUMPI PUSH0 PUSH0 REVERT JUMPDEST POP PUSH1 0x4 CALLDATASIZE LT PUSH2 0x86 JUMPI PUSH0 CALLDATALOAD PUSH1 0xE0 SHR DUP1 PUSH4 0x8DA5CB5B GT PUSH2 0x59 JUMPI DUP1 PUSH4 0x8DA5CB5B EQ PUSH2 0x156 JUMPI DUP1 PUSH4 0xABE692D2 EQ PUSH2 0x174 JUMPI DUP1 PUSH4 0xC6CBC52A EQ PUSH2 0x1AA JUMPI DUP1 PUSH4 0xF2FDE38B EQ PUSH2 0x1C6 JUMPI PUSH2 0x86 JUMP JUMPDEST DUP1 PUSH4 0x2451A282 EQ PUSH2 0x8A JUMPI DUP1 PUSH4 0x742F0688 EQ PUSH2 0xC0 JUMPI DUP1 PUSH4 0x818A2994 EQ PUSH2 0xF6 JUMPI DUP1 PUSH4 0x836AE771 EQ PUSH2 0x126 JUMPI JUMPDEST PUSH0 PUSH0 REVERT JUMPDEST PUSH2 0xA4 PUSH1 0x4 DUP1 CALLDATASIZE SUB DUP2 ADD SWAP1 PUSH2 0x9F SWAP2 SWAP1 PUSH2 0x12EB JUMP JUMPDEST PUSH2 0x1E2 JUMP JUMPDEST PUSH1 0x40 MLOAD PUSH2 0xB7 SWAP8 SWAP7 SWAP6 SWAP5 SWAP4 SWAP3 SWAP2 SWAP1 PUSH2 0x141B JUMP JUMPDEST PUSH1 0x40 MLOAD DUP1 SWAP2 SUB SWAP1 RETURN JUMPDEST PUSH2 0xDA PUSH1 0x4 DUP1 CALLDATASIZE SUB DUP2 ADD SWAP1 PUSH2 0xD5 SWAP2 SWAP1 PUSH2 0x14C7 JUMP JUMPDEST PUSH2 0x572 JUMP JUMPDEST PUSH1 0x40 MLOAD PUSH2 0xED SWAP8 SWAP7 SWAP6 SWAP5 SWAP4 SWAP3 SWAP2 SWAP1 PUSH2 0x14F2 JUMP JUMPDEST PUSH1 0x40 MLOAD DUP1 SWAP2 SUB SWAP1 RETURN JUMPDEST PUSH2 0x110 PUSH1 0x4 DUP1 CALLDATASIZE SUB DUP2 ADD SWAP1 PUSH2 0x10B SWAP2 SWAP1 PUSH2 0x157B JUMP JUMPDEST PUSH2 0x7F3 JUMP JUMPDEST PUSH1 0x40 MLOAD PUSH2 0x11D SWAP2 SWAP1 PUSH2 0x164F JUMP JUMPDEST PUSH1 0x40 MLOAD DUP1 SWAP2 SUB SWAP1 RETURN JUMPDEST PUSH2 0x140 PUSH1 0x4 DUP1 CALLDATASIZE SUB DUP2 ADD SWAP1 PUSH2 0x13B SWAP2 SWAP1 PUSH2 0x12EB JUMP JUMPDEST PUSH2 0xAF6 JUMP JUMPDEST PUSH1 0x40 MLOAD PUSH2 0x14D SWAP2 SWAP1 PUSH2 0x164F JUMP JUMPDEST PUSH1 0x40 MLOAD DUP1 SWAP2 SUB SWAP1 RETURN JUMPDEST PUSH2 0x15E PUSH2 0xB23 JUMP JUMPDEST PUSH1 0x40 MLOAD PUSH2 0x16B SWAP2 SWAP1 PUSH2 0x1668 JUMP JUMPDEST PUSH1 0x40 MLOAD DUP1 SWAP2 SUB SWAP1 RETURN JUMPDEST PUSH2 0x18E PUSH1 0x4 DUP1 CALLDATASIZE SUB DUP2 ADD SWAP1 PUSH2 0x189 SWAP2 SWAP1 PUSH2 0x14C7 JUMP JUMPDEST PUSH2 0xB48 JUMP JUMPDEST PUSH1 0x40 MLOAD PUSH2 0x1A1 SWAP8 SWAP7 SWAP6 SWAP5 SWAP4 SWAP3 SWAP2 SWAP1 PUSH2 0x1681 JUMP JUMPDEST PUSH1 0x40 MLOAD DUP1 SWAP2 SUB SWAP1 RETURN JUMPDEST PUSH2 0x1C4 PUSH1 0x4 DUP1 CALLDATASIZE SUB DUP2 ADD SWAP1 PUSH2 0x1BF SWAP2 SWAP1 PUSH2 0x14C7 JUMP JUMPDEST PUSH2 0xEC6 JUMP JUMPDEST STOP JUMPDEST PUSH2 0x1E0 PUSH1 0x4 DUP1 CALLDATASIZE SUB DUP2 ADD SWAP1 PUSH2 0x1DB SWAP2 SWAP1 PUSH2 0x1734 JUMP JUMPDEST PUSH2 0x105E JUMP JUMPDEST STOP JUMPDEST PUSH0 PUSH0 PUSH1 0x60 DUP1 PUSH1 0x60 PUSH0 PUSH0 PUSH0 PUSH1 0x1 DUP10 PUSH1 0x40 MLOAD PUSH2 0x1FC SWAP2 SWAP1 PUSH2 0x1799 JUMP JUMPDEST SWAP1 DUP2 MSTORE PUSH1 0x20 ADD PUSH1 0x40 MLOAD DUP1 SWAP2 SUB SWAP1 KECCAK256 SLOAD SWAP1 POP PUSH0 PUSH0 PUSH0 DUP4 DUP2 MSTORE PUSH1 0x20 ADD SWAP1 DUP2 MSTORE PUSH1 0x20 ADD PUSH0 KECCAK256 PUSH1 0x40 MLOAD DUP1 PUSH1 0xE0 ADD PUSH1 0x40 MSTORE SWAP1 DUP2 PUSH0 DUP3 ADD DUP1 SLOAD PUSH2 0x238 SWAP1 PUSH2 0x17DC JUMP JUMPDEST DUP1 PUSH1 0x1F ADD PUSH1 0x20 DUP1 SWAP2 DIV MUL PUSH1 0x20 ADD PUSH1 0x40 MLOAD SWAP1 DUP2 ADD PUSH1 0x40 MSTORE DUP1 SWAP3 SWAP2 SWAP1 DUP2 DUP2 MSTORE PUSH1 0x20 ADD DUP3 DUP1 SLOAD PUSH2 0x264 SWAP1 PUSH2 0x17DC JUMP JUMPDEST DUP1 ISZERO PUSH2 0x2AF JUMPI DUP1 PUSH1 0x1F LT PUSH2 0x286 JUMPI PUSH2 0x100 DUP1 DUP4 SLOAD DIV MUL DUP4 MSTORE SWAP2 PUSH1 0x20 ADD SWAP2 PUSH2 0x2AF JUMP JUMPDEST DUP3 ADD SWAP2 SWAP1 PUSH0 MSTORE PUSH1 0x20 PUSH0 KECCAK256 SWAP1 JUMPDEST DUP2 SLOAD DUP2 MSTORE SWAP1 PUSH1 0x1 ADD SWAP1 PUSH1 0x20 ADD DUP1 DUP4 GT PUSH2 0x292 JUMPI DUP3 SWAP1 SUB PUSH1 0x1F AND DUP3 ADD SWAP2 JUMPDEST POP POP POP POP POP DUP2 MSTORE PUSH1 0x20 ADD PUSH1 0x1 DUP3 ADD DUP1 SLOAD PUSH2 0x2C8 SWAP1 PUSH2 0x17DC JUMP JUMPDEST DUP1 PUSH1 0x1F ADD PUSH1 0x20 DUP1 SWAP2 DIV MUL PUSH1 0x20 ADD PUSH1 0x40 MLOAD SWAP1 DUP2 ADD PUSH1 0x40 MSTORE DUP1 SWAP3 SWAP2 SWAP1 DUP2 DUP2 MSTORE PUSH1 0x20 ADD DUP3 DUP1 SLOAD PUSH2 0x2F4 SWAP1 PUSH2 0x17DC JUMP JUMPDEST DUP1 ISZERO PUSH2 0x33F JUMPI DUP1 PUSH1 0x1F LT PUSH2 0x316 JUMPI PUSH2 0x100 DUP1 DUP4 SLOAD DIV MUL DUP4 MSTORE SWAP2 PUSH1 0x20 ADD SWAP2 PUSH2 0x33F JUMP JUMPDEST DUP3 ADD SWAP2 SWAP1 PUSH0 MSTORE PUSH1 0x20 PUSH0 KECCAK256 SWAP1 JUMPDEST DUP2 SLOAD DUP2 MSTORE SWAP1 PUSH1 0x1 ADD SWAP1 PUSH1 0x20 ADD DUP1 DUP4 GT PUSH2 0x322 JUMPI DUP3 SWAP1 SUB PUSH1 0x1F AND DUP3 ADD SWAP2 JUMPDEST POP POP POP POP POP DUP2 MSTORE PUSH1 0x20 ADD PUSH1 0x2 DUP3 ADD DUP1 SLOAD PUSH2 0x358 SWAP1 PUSH2 0x17DC JUMP JUMPDEST DUP1 PUSH1 0x1F ADD PUSH1 0x20 DUP1 SWAP2 DIV MUL PUSH1 0x20 ADD PUSH1 0x40 MLOAD SWAP1 DUP2 ADD PUSH1 0x40 MSTORE DUP1 SWAP3 SWAP2 SWAP1 DUP2 DUP2 MSTORE PUSH1 0x20 ADD DUP3 DUP1 SLOAD PUSH2 0x384 SWAP1 PUSH2 0x17DC JUMP JUMPDEST DUP1 ISZERO PUSH2 0x3CF JUMPI DUP1 PUSH1 0x1F LT PUSH2 0x3A6 JUMPI PUSH2 0x100 DUP1 DUP4 SLOAD DIV MUL DUP4 MSTORE SWAP2 PUSH1 0x20 ADD SWAP2 PUSH2 0x3CF JUMP JUMPDEST DUP3 ADD SWAP2 SWAP1 PUSH0 MSTORE PUSH1 0x20 PUSH0 KECCAK256 SWAP1 JUMPDEST DUP2 SLOAD DUP2 MSTORE SWAP1 PUSH1 0x1 ADD SWAP1 PUSH1 0x20 ADD DUP1 DUP4 GT PUSH2 0x3B2 JUMPI DUP3 SWAP1 SUB PUSH1 0x1F AND DUP3 ADD SWAP2 JUMPDEST POP POP POP POP POP DUP2 MSTORE PUSH1 0x20 ADD PUSH1 0x3 DUP3 ADD DUP1 SLOAD PUSH2 0x3E8 SWAP1 PUSH2 0x17DC JUMP JUMPDEST DUP1 PUSH1 0x1F ADD PUSH1 0x20 DUP1 SWAP2 DIV MUL PUSH1 0x20 ADD PUSH1 0x40 MLOAD SWAP1 DUP2 ADD PUSH1 0x40 MSTORE DUP1 SWAP3 SWAP2 SWAP1 DUP2 DUP2 MSTORE PUSH1 0x20 ADD DUP3 DUP1 SLOAD PUSH2 0x414 SWAP1 PUSH2 0x17DC JUMP JUMPDEST DUP1 ISZERO PUSH2 0x45F JUMPI DUP1 PUSH1 0x1F LT PUSH2 0x436 JUMPI PUSH2 0x100 DUP1 DUP4 SLOAD DIV MUL DUP4 MSTORE SWAP2 PUSH1 0x20 ADD SWAP2 PUSH2 0x45F JUMP JUMPDEST DUP3 ADD SWAP2 SWAP1 PUSH0 MSTORE PUSH1 0x20 PUSH0 KECCAK256 SWAP1 JUMPDEST DUP2 SLOAD DUP2 MSTORE SWAP1 PUSH1 0x1 ADD SWAP1 PUSH1 0x20 ADD DUP1 DUP4 GT PUSH2 0x442 JUMPI DUP3 SWAP1 SUB PUSH1 0x1F AND DUP3 ADD SWAP2 JUMPDEST POP POP POP POP POP DUP2 MSTORE PUSH1 0x20 ADD PUSH1 0x4 DUP3 ADD SLOAD DUP2 MSTORE PUSH1 0x20 ADD PUSH1 0x5 DUP3 ADD PUSH0 SWAP1 SLOAD SWAP1 PUSH2 0x100 EXP SWAP1 DIV PUSH1 0xFF AND ISZERO ISZERO ISZERO ISZERO DUP2 MSTORE PUSH1 0x20 ADD PUSH1 0x5 DUP3 ADD PUSH1 0x1 SWAP1 SLOAD SWAP1 PUSH2 0x100 EXP SWAP1 DIV PUSH20 0xFFFFFFFFFFFFFFFFFFFFFFFFFFFFFFFFFFFFFFFF AND PUSH20 0xFFFFFFFFFFFFFFFFFFFFFFFFFFFFFFFFFFFFFFFF AND PUSH20 0xFFFFFFFFFFFFFFFFFFFFFFFFFFFFFFFFFFFFFFFF AND DUP2 MSTORE POP POP SWAP1 POP DUP1 PUSH1 0xA0 ADD MLOAD PUSH2 0x53B JUMPI PUSH0 PUSH0 PUSH0 SHL PUSH0 PUSH0 PUSH1 0x40 MLOAD DUP1 PUSH1 0x20 ADD PUSH1 0x40 MSTORE DUP1 PUSH0 DUP2 MSTORE POP SWAP2 SWAP1 PUSH1 0x40 MLOAD DUP1 PUSH1 0x20 ADD PUSH1 0x40 MSTORE DUP1 PUSH0 DUP2 MSTORE POP SWAP2 SWAP1 PUSH1 0x40 MLOAD DUP1 PUSH1 0x20 ADD PUSH1 0x40 MSTORE DUP1 PUSH0 DUP2 MSTORE POP SWAP2 SWAP1 SWAP9 POP SWAP9 POP SWAP9 POP SWAP9 POP SWAP9 POP SWAP9 POP SWAP9 POP POP POP PUSH2 0x567 JUMP JUMPDEST PUSH1 0x1 DUP3 DUP3 PUSH0 ADD MLOAD DUP4 PUSH1 0x20 ADD MLOAD DUP5 PUSH1 0x40 ADD MLOAD DUP6 PUSH1 0x80 ADD MLOAD DUP7 PUSH1 0xC0 ADD MLOAD SWAP9 POP SWAP9 POP SWAP9 POP SWAP9 POP SWAP9 POP SWAP9 POP SWAP9 POP POP POP JUMPDEST SWAP2 SWAP4 SWAP6 SWAP8 SWAP1 SWAP3 SWAP5 SWAP7 POP JUMP JUMPDEST PUSH0 PUSH1 0x20 MSTORE DUP1 PUSH0 MSTORE PUSH1 0x40 PUSH0 KECCAK256 PUSH0 SWAP2 POP SWAP1 POP DUP1 PUSH0 ADD DUP1 SLOAD PUSH2 0x590 SWAP1 PUSH2 0x17DC JUMP JUMPDEST DUP1 PUSH1 0x1F ADD PUSH1 0x20 DUP1 SWAP2 DIV MUL PUSH1 0x20 ADD PUSH1 0x40 MLOAD SWAP1 DUP2 ADD PUSH1 0x40 MSTORE DUP1 SWAP3 SWAP2 SWAP1 DUP2 DUP2 MSTORE PUSH1 0x20 ADD DUP3 DUP1 SLOAD PUSH2 0x5BC SWAP1 PUSH2 0x17DC JUMP JUMPDEST DUP1 ISZERO PUSH2 0x607 JUMPI DUP1 PUSH1 0x1F LT PUSH2 0x5DE JUMPI PUSH2 0x100 DUP1 DUP4 SLOAD DIV MUL DUP4 MSTORE SWAP2 PUSH1 0x20 ADD SWAP2 PUSH2 0x607 JUMP JUMPDEST DUP3 ADD SWAP2 SWAP1 PUSH0 MSTORE PUSH1 0x20 PUSH0 KECCAK256 SWAP1 JUMPDEST DUP2 SLOAD DUP2 MSTORE SWAP1 PUSH1 0x1 ADD SWAP1 PUSH1 0x20 ADD DUP1 DUP4 GT PUSH2 0x5EA JUMPI DUP3 SWAP1 SUB PUSH1 0x1F AND DUP3 ADD SWAP2 JUMPDEST POP POP POP POP POP SWAP1 DUP1 PUSH1 0x1 ADD DUP1 SLOAD PUSH2 0x61C SWAP1 PUSH2 0x17DC JUMP JUMPDEST DUP1 PUSH1 0x1F ADD PUSH1 0x20 DUP1 SWAP2 DIV MUL PUSH1 0x20 ADD PUSH1 0x40 MLOAD SWAP1 DUP2 ADD PUSH1 0x40 MSTORE DUP1 SWAP3 SWAP2 SWAP1 DUP2 DUP2 MSTORE PUSH1 0x20 ADD DUP3 DUP1 SLOAD PUSH2 0x648 SWAP1 PUSH2 0x17DC JUMP JUMPDEST DUP1 ISZERO PUSH2 0x693 JUMPI DUP1 PUSH1 0x1F LT PUSH2 0x66A JUMPI PUSH2 0x100 DUP1 DUP4 SLOAD DIV MUL DUP4 MSTORE SWAP2 PUSH1 0x20 ADD SWAP2 PUSH2 0x693 JUMP JUMPDEST DUP3 ADD SWAP2 SWAP1 PUSH0 MSTORE PUSH1 0x20 PUSH0 KECCAK256 SWAP1 JUMPDEST DUP2 SLOAD DUP2 MSTORE SWAP1 PUSH1 0x1 ADD SWAP1 PUSH1 0x20 ADD DUP1 DUP4 GT PUSH2 0x676 JUMPI DUP3 SWAP1 SUB PUSH1 0x1F AND DUP3 ADD SWAP2 JUMPDEST POP POP POP POP POP SWAP1 DUP1 PUSH1 0x2 ADD DUP1 SLOAD PUSH2 0x6A8 SWAP1 PUSH2 0x17DC JUMP JUMPDEST DUP1 PUSH1 0x1F ADD PUSH1 0x20 DUP1 SWAP2 DIV MUL PUSH1 0x20 ADD PUSH1 0x40 MLOAD SWAP1 DUP2 ADD PUSH1 0x40 MSTORE DUP1 SWAP3 SWAP2 SWAP1 DUP2 DUP2 MSTORE PUSH1 0x20 ADD DUP3 DUP1 SLOAD PUSH2 0x6D4 SWAP1 PUSH2 0x17DC JUMP JUMPDEST DUP1 ISZERO PUSH2 0x71F JUMPI DUP1 PUSH1 0x1F LT PUSH2 0x6F6 JUMPI PUSH2 0x100 DUP1 DUP4 SLOAD DIV MUL DUP4 MSTORE SWAP2 PUSH1 0x20 ADD SWAP2 PUSH2 0x71F JUMP JUMPDEST DUP3 ADD SWAP2 SWAP1 PUSH0 MSTORE PUSH1 0x20 PUSH0 KECCAK256 SWAP1 JUMPDEST DUP2 SLOAD DUP2 MSTORE SWAP1 PUSH1 0x1 ADD SWAP1 PUSH1 0x20 ADD DUP1 DUP4 GT PUSH2 0x702 JUMPI DUP3 SWAP1 SUB PUSH1 0x1F AND DUP3 ADD SWAP2 JUMPDEST POP POP POP POP POP SWAP1 DUP1 PUSH1 0x3 ADD DUP1 SLOAD PUSH2 0x734 SWAP1 PUSH2 0x17DC JUMP JUMPDEST DUP1 PUSH1 0x1F ADD PUSH1 0x20 DUP1 SWAP2 DIV MUL PUSH1 0x20 ADD PUSH1 0x40 MLOAD SWAP1 DUP2 ADD PUSH1 0x40 MSTORE DUP1 SWAP3 SWAP2 SWAP1 DUP2 DUP2 MSTORE PUSH1 0x20 ADD DUP3 DUP1 SLOAD PUSH2 0x760 SWAP1 PUSH2 0x17DC JUMP JUMPDEST DUP1 ISZERO PUSH2 0x7AB JUMPI DUP1 PUSH1 0x1F LT PUSH2 0x782 JUMPI PUSH2 0x100 DUP1 DUP4 SLOAD DIV MUL DUP4 MSTORE SWAP2 PUSH1 0x20 ADD SWAP2 PUSH2 0x7AB JUMP JUMPDEST DUP3 ADD SWAP2 SWAP1 PUSH0 MSTORE PUSH1 0x20 PUSH0 KECCAK256 SWAP1 JUMPDEST DUP2 SLOAD DUP2 MSTORE SWAP1 PUSH1 0x1 ADD SWAP1 PUSH1 0x20 ADD DUP1 DUP4 GT PUSH2 0x78E JUMPI DUP3 SWAP1 SUB PUSH1 0x1F AND DUP3 ADD SWAP2 JUMPDEST POP POP POP POP POP SWAP1 DUP1 PUSH1 0x4 ADD SLOAD SWAP1 DUP1 PUSH1 0x5 ADD PUSH0 SWAP1 SLOAD SWAP1 PUSH2 0x100 EXP SWAP1 DIV PUSH1 0xFF AND SWAP1 DUP1 PUSH1 0x5 ADD PUSH1 0x1 SWAP1 SLOAD SWAP1 PUSH2 0x100 EXP SWAP1 DIV PUSH20 0xFFFFFFFFFFFFFFFFFFFFFFFFFFFFFFFFFFFFFFFF AND SWAP1 POP DUP8 JUMP JUMPDEST PUSH0 PUSH0 DUP5 MLOAD GT PUSH2 0x837 JUMPI PUSH1 0x40 MLOAD PUSH32 0x8C379A000000000000000000000000000000000000000000000000000000000 DUP2 MSTORE PUSH1 0x4 ADD PUSH2 0x82E SWAP1 PUSH2 0x1856 JUMP JUMPDEST PUSH1 0x40 MLOAD DUP1 SWAP2 SUB SWAP1 REVERT JUMPDEST PUSH0 DUP4 MLOAD GT PUSH2 0x87A JUMPI PUSH1 0x40 MLOAD PUSH32 0x8C379A000000000000000000000000000000000000000000000000000000000 DUP2 MSTORE PUSH1 0x4 ADD PUSH2 0x871 SWAP1 PUSH2 0x18BE JUMP JUMPDEST PUSH1 0x40 MLOAD DUP1 SWAP2 SUB SWAP1 REVERT JUMPDEST PUSH0 DUP3 MLOAD GT PUSH2 0x8BD JUMPI PUSH1 0x40 MLOAD PUSH32 0x8C379A000000000000000000000000000000000000000000000000000000000 DUP2 MSTORE PUSH1 0x4 ADD PUSH2 0x8B4 SWAP1 PUSH2 0x1926 JUMP JUMPDEST PUSH1 0x40 MLOAD DUP1 SWAP2 SUB SWAP1 REVERT JUMPDEST PUSH0 DUP5 DUP5 DUP5 TIMESTAMP CALLER PUSH1 0x40 MLOAD PUSH1 0x20 ADD PUSH2 0x8D7 SWAP6 SWAP5 SWAP4 SWAP3 SWAP2 SWAP1 PUSH2 0x19A9 JUMP JUMPDEST PUSH1 0x40 MLOAD PUSH1 0x20 DUP2 DUP4 SUB SUB DUP2 MSTORE SWAP1 PUSH1 0x40 MSTORE DUP1 MLOAD SWAP1 PUSH1 0x20 ADD KECCAK256 SWAP1 POP PUSH0 PUSH0 DUP3 DUP2 MSTORE PUSH1 0x20 ADD SWAP1 DUP2 MSTORE PUSH1 0x20 ADD PUSH0 KECCAK256 PUSH1 0x5 ADD PUSH0 SWAP1 SLOAD SWAP1 PUSH2 0x100 EXP SWAP1 DIV PUSH1 0xFF AND ISZERO PUSH2 0x94F JUMPI PUSH1 0x40 MLOAD PUSH32 0x8C379A000000000000000000000000000000000000000000000000000000000 DUP2 MSTORE PUSH1 0x4 ADD PUSH2 0x946 SWAP1 PUSH2 0x1A45 JUMP JUMPDEST PUSH1 0x40 MLOAD DUP1 SWAP2 SUB SWAP1 REVERT JUMPDEST PUSH1 0x40 MLOAD DUP1 PUSH1 0xE0 ADD PUSH1 0x40 MSTORE DUP1 DUP8 DUP2 MSTORE PUSH1 0x20 ADD DUP7 DUP2 MSTORE PUSH1 0x20 ADD DUP6 DUP2 MSTORE PUSH1 0x20 ADD DUP5 DUP2 MSTORE PUSH1 0x20 ADD TIMESTAMP DUP2 MSTORE PUSH1 0x20 ADD PUSH1 0x1 ISZERO ISZERO DUP2 MSTORE PUSH1 0x20 ADD CALLER PUSH20 0xFFFFFFFFFFFFFFFFFFFFFFFFFFFFFFFFFFFFFFFF AND DUP2 MSTORE POP PUSH0 PUSH0 DUP4 DUP2 MSTORE PUSH1 0x20 ADD SWAP1 DUP2 MSTORE PUSH1 0x20 ADD PUSH0 KECCAK256 PUSH0 DUP3 ADD MLOAD DUP2 PUSH0 ADD SWAP1 DUP2 PUSH2 0x9BE SWAP2 SWAP1 PUSH2 0x1C03 JUMP JUMPDEST POP PUSH1 0x20 DUP3 ADD MLOAD DUP2 PUSH1 0x1 ADD SWAP1 DUP2 PUSH2 0x9D4 SWAP2 SWAP1 PUSH2 0x1C03 JUMP JUMPDEST POP PUSH1 0x40 DUP3 ADD MLOAD DUP2 PUSH1 0x2 ADD SWAP1 DUP2 PUSH2 0x9EA SWAP2 SWAP1 PUSH2 0x1C03 JUMP JUMPDEST POP PUSH1 0x60 DUP3 ADD MLOAD DUP2 PUSH1 0x3 ADD SWAP1 DUP2 PUSH2 0xA00 SWAP2 SWAP1 PUSH2 0x1C03 JUMP JUMPDEST POP PUSH1 0x80 DUP3 ADD MLOAD DUP2 PUSH1 0x4 ADD SSTORE PUSH1 0xA0 DUP3 ADD MLOAD DUP2 PUSH1 0x5 ADD PUSH0 PUSH2 0x100 EXP DUP2 SLOAD DUP2 PUSH1 0xFF MUL NOT AND SWAP1 DUP4 ISZERO ISZERO MUL OR SWAP1 SSTORE POP PUSH1 0xC0 DUP3 ADD MLOAD DUP2 PUSH1 0x5 ADD PUSH1 0x1 PUSH2 0x100 EXP DUP2 SLOAD DUP2 PUSH20 0xFFFFFFFFFFFFFFFFFFFFFFFFFFFFFFFFFFFFFFFF MUL NOT AND SWAP1 DUP4 PUSH20 0xFFFFFFFFFFFFFFFFFFFFFFFFFFFFFFFFFFFFFFFF AND MUL OR SWAP1 SSTORE POP SWAP1 POP POP DUP1 PUSH1 0x1 DUP5 PUSH1 0x40 MLOAD PUSH2 0xA85 SWAP2 SWAP1 PUSH2 0x1799 JUMP JUMPDEST SWAP1 DUP2 MSTORE PUSH1 0x20 ADD PUSH1 0x40 MLOAD DUP1 SWAP2 SUB SWAP1 KECCAK256 DUP2 SWAP1 SSTORE POP CALLER PUSH20 0xFFFFFFFFFFFFFFFFFFFFFFFFFFFFFFFFFFFFFFFF AND DUP2 PUSH32 0x547234BA365A50D63DCB772FEC536A40FB0B8ABD74AE7DB26E7CD93308E75CE6 DUP8 DUP8 DUP8 PUSH1 0x40 MLOAD PUSH2 0xAE2 SWAP4 SWAP3 SWAP2 SWAP1 PUSH2 0x1CD2 JUMP JUMPDEST PUSH1 0x40 MLOAD DUP1 SWAP2 SUB SWAP1 LOG3 DUP1 SWAP2 POP POP SWAP5 SWAP4 POP POP POP POP JUMP JUMPDEST PUSH1 0x1 DUP2 DUP1 MLOAD PUSH1 0x20 DUP2 ADD DUP3 ADD DUP1 MLOAD DUP5 DUP3 MSTORE PUSH1 0x20 DUP4 ADD PUSH1 0x20 DUP6 ADD KECCAK256 DUP2 DUP4 MSTORE DUP1 SWAP6 POP POP POP POP POP POP PUSH0 SWAP2 POP SWAP1 POP SLOAD DUP2 JUMP JUMPDEST PUSH1 0x2 PUSH0 SWAP1 SLOAD SWAP1 PUSH2 0x100 EXP SWAP1 DIV PUSH20 0xFFFFFFFFFFFFFFFFFFFFFFFFFFFFFFFFFFFFFFFF AND DUP2 JUMP JUMPDEST PUSH0 PUSH1 0x60 DUP1 PUSH1 0x60 DUP1 PUSH0 PUSH0 PUSH0 PUSH0 PUSH0 DUP11 DUP2 MSTORE PUSH1 0x20 ADD SWAP1 DUP2 MSTORE PUSH1 0x20 ADD PUSH0 KECCAK256 PUSH1 0x40 MLOAD DUP1 PUSH1 0xE0 ADD PUSH1 0x40 MSTORE SWAP1 DUP2 PUSH0 DUP3 ADD DUP1 SLOAD PUSH2 0xB7C SWAP1 PUSH2 0x17DC JUMP JUMPDEST DUP1 PUSH1 0x1F ADD PUSH1 0x20 DUP1 SWAP2 DIV MUL PUSH1 0x20 ADD PUSH1 0x40 MLOAD SWAP1 DUP2 ADD PUSH1 0x40 MSTORE DUP1 SWAP3 SWAP2 SWAP1 DUP2 DUP2 MSTORE PUSH1 0x20 ADD DUP3 DUP1 SLOAD PUSH2 0xBA8 SWAP1 PUSH2 0x17DC JUMP JUMPDEST DUP1 ISZERO PUSH2 0xBF3 JUMPI DUP1 PUSH1 0x1F LT PUSH2 0xBCA JUMPI PUSH2 0x100 DUP1 DUP4 SLOAD DIV MUL DUP4 MSTORE SWAP2 PUSH1 0x20 ADD SWAP2 PUSH2 0xBF3 JUMP JUMPDEST DUP3 ADD SWAP2 SWAP1 PUSH0 MSTORE PUSH1 0x20 PUSH0 KECCAK256 SWAP1 JUMPDEST DUP2 SLOAD DUP2 MSTORE SWAP1 PUSH1 0x1 ADD SWAP1 PUSH1 0x20 ADD DUP1 DUP4 GT PUSH2 0xBD6 JUMPI DUP3 SWAP1 SUB PUSH1 0x1F AND DUP3 ADD SWAP2 JUMPDEST POP POP POP POP POP DUP2 MSTORE PUSH1 0x20 ADD PUSH1 0x1 DUP3 ADD DUP1 SLOAD PUSH2 0xC0C SWAP1 PUSH2 0x17DC JUMP JUMPDEST DUP1 PUSH1 0x1F ADD PUSH1 0x20 DUP1 SWAP2 DIV MUL PUSH1 0x20 ADD PUSH1 0x40 MLOAD SWAP1 DUP2 ADD PUSH1 0x40 MSTORE DUP1 SWAP3 SWAP2 SWAP1 DUP2 DUP2 MSTORE PUSH1 0x20 ADD DUP3 DUP1 SLOAD PUSH2 0xC38 SWAP1 PUSH2 0x17DC JUMP JUMPDEST DUP1 ISZERO PUSH2 0xC83 JUMPI DUP1 PUSH1 0x1F LT PUSH2 0xC5A JUMPI PUSH2 0x100 DUP1 DUP4 SLOAD DIV MUL DUP4 MSTORE SWAP2 PUSH1 0x20 ADD SWAP2 PUSH2 0xC83 JUMP JUMPDEST DUP3 ADD SWAP2 SWAP1 PUSH0 MSTORE PUSH1 0x20 PUSH0 KECCAK256 SWAP1 JUMPDEST DUP2 SLOAD DUP2 MSTORE SWAP1 PUSH1 0x1 ADD SWAP1 PUSH1 0x20 ADD DUP1 DUP4 GT PUSH2 0xC66 JUMPI DUP3 SWAP1 SUB PUSH1 0x1F AND DUP3 ADD SWAP2 JUMPDEST POP POP POP POP POP DUP2 MSTORE PUSH1 0x20 ADD PUSH1 0x2 DUP3 ADD DUP1 SLOAD PUSH2 0xC9C SWAP1 PUSH2 0x17DC JUMP JUMPDEST DUP1 PUSH1 0x1F ADD PUSH1 0x20 DUP1 SWAP2 DIV MUL PUSH1 0x20 ADD PUSH1 0x40 MLOAD SWAP1 DUP2 ADD PUSH1 0x40 MSTORE DUP1 SWAP3 SWAP2 SWAP1 DUP2 DUP2 MSTORE PUSH1 0x20 ADD DUP3 DUP1 SLOAD PUSH2 0xCC8 SWAP1 PUSH2 0x17DC JUMP JUMPDEST DUP1 ISZERO PUSH2 0xD13 JUMPI DUP1 PUSH1 0x1F LT PUSH2 0xCEA JUMPI PUSH2 0x100 DUP1 DUP4 SLOAD DIV MUL DUP4 MSTORE SWAP2 PUSH1 0x20 ADD SWAP2 PUSH2 0xD13 JUMP JUMPDEST DUP3 ADD SWAP2 SWAP1 PUSH0 MSTORE PUSH1 0x20 PUSH0 KECCAK256 SWAP1 JUMPDEST DUP2 SLOAD DUP2 MSTORE SWAP1 PUSH1 0x1 ADD SWAP1 PUSH1 0x20 ADD DUP1 DUP4 GT PUSH2 0xCF6 JUMPI DUP3 SWAP1 SUB PUSH1 0x1F AND DUP3 ADD SWAP2 JUMPDEST POP POP POP POP POP DUP2 MSTORE PUSH1 0x20 ADD PUSH1 0x3 DUP3 ADD DUP1 SLOAD PUSH2 0xD2C SWAP1 PUSH2 0x17DC JUMP JUMPDEST DUP1 PUSH1 0x1F ADD PUSH1 0x20 DUP1 SWAP2 DIV MUL PUSH1 0x20 ADD PUSH1 0x40 MLOAD SWAP1 DUP2 ADD PUSH1 0x40 MSTORE DUP1 SWAP3 SWAP2 SWAP1 DUP2 DUP2 MSTORE PUSH1 0x20 ADD DUP3 DUP1 SLOAD PUSH2 0xD58 SWAP1 PUSH2 0x17DC JUMP JUMPDEST DUP1 ISZERO PUSH2 0xDA3 JUMPI DUP1 PUSH1 0x1F LT PUSH2 0xD7A JUMPI PUSH2 0x100 DUP1 DUP4 SLOAD DIV MUL DUP4 MSTORE SWAP2 PUSH1 0x20 ADD SWAP2 PUSH2 0xDA3 JUMP JUMPDEST DUP3 ADD SWAP2 SWAP1 PUSH0 MSTORE PUSH1 0x20 PUSH0 KECCAK256 SWAP1 JUMPDEST DUP2 SLOAD DUP2 MSTORE SWAP1 PUSH1 0x1 ADD SWAP1 PUSH1 0x20 ADD DUP1 DUP4 GT PUSH2 0xD86 JUMPI DUP3 SWAP1 SUB PUSH1 0x1F AND DUP3 ADD SWAP2 JUMPDEST POP POP POP POP POP DUP2 MSTORE PUSH1 0x20 ADD PUSH1 0x4 DUP3 ADD SLOAD DUP2 MSTORE PUSH1 0x20 ADD PUSH1 0x5 DUP3 ADD PUSH0 SWAP1 SLOAD SWAP1 PUSH2 0x100 EXP SWAP1 DIV PUSH1 0xFF AND ISZERO ISZERO ISZERO ISZERO DUP2 MSTORE PUSH1 0x20 ADD PUSH1 0x5 DUP3 ADD PUSH1 0x1 SWAP1 SLOAD SWAP1 PUSH2 0x100 EXP SWAP1 DIV PUSH20 0xFFFFFFFFFFFFFFFFFFFFFFFFFFFFFFFFFFFFFFFF AND PUSH20 0xFFFFFFFFFFFFFFFFFFFFFFFFFFFFFFFFFFFFFFFF AND PUSH20 0xFFFFFFFFFFFFFFFFFFFFFFFFFFFFFFFFFFFFFFFF AND DUP2 MSTORE POP POP SWAP1 POP DUP1 PUSH1 0xA0 ADD MLOAD PUSH2 0xE8C JUMPI PUSH0 PUSH0 PUSH0 PUSH1 0x40 MLOAD DUP1 PUSH1 0x20 ADD PUSH1 0x40 MSTORE DUP1 PUSH0 DUP2 MSTORE POP SWAP2 SWAP1 PUSH1 0x40 MLOAD DUP1 PUSH1 0x20 ADD PUSH1 0x40 MSTORE DUP1 PUSH0 DUP2 MSTORE POP SWAP2 SWAP1 PUSH1 0x40 MLOAD DUP1 PUSH1 0x20 ADD PUSH1 0x40 MSTORE DUP1 PUSH0 DUP2 MSTORE POP SWAP2 SWAP1 PUSH1 0x40 MLOAD DUP1 PUSH1 0x20 ADD PUSH1 0x40 MSTORE DUP1 PUSH0 DUP2 MSTORE POP SWAP2 SWAP1 SWAP8 POP SWAP8 POP SWAP8 POP SWAP8 POP SWAP8 POP SWAP8 POP SWAP8 POP POP PUSH2 0xEBB JUMP JUMPDEST PUSH1 0x1 DUP2 PUSH0 ADD MLOAD DUP3 PUSH1 0x20 ADD MLOAD DUP4 PUSH1 0x40 ADD MLOAD DUP5 PUSH1 0x60 ADD MLOAD DUP6 PUSH1 0x80 ADD MLOAD DUP7 PUSH1 0xC0 ADD MLOAD SWAP8 POP SWAP8 POP SWAP8 POP SWAP8 POP SWAP8 POP SWAP8 POP SWAP8 POP POP JUMPDEST SWAP2 SWAP4 SWAP6 SWAP8 SWAP1 SWAP3 SWAP5 SWAP7 POP JUMP JUMPDEST PUSH0 PUSH0 PUSH0 DUP4 DUP2 MSTORE PUSH1 0x20 ADD SWAP1 DUP2 MSTORE PUSH1 0x20 ADD PUSH0 KECCAK256 SWAP1 POP DUP1 PUSH1 0x5 ADD PUSH0 SWAP1 SLOAD SWAP1 PUSH2 0x100 EXP SWAP1 DIV PUSH1 0xFF AND PUSH2 0xF29 JUMPI PUSH1 0x40 MLOAD PUSH32 0x8C379A000000000000000000000000000000000000000000000000000000000 DUP2 MSTORE PUSH1 0x4 ADD PUSH2 0xF20 SWAP1 PUSH2 0x1D8C JUMP JUMPDEST PUSH1 0x40 MLOAD DUP1 SWAP2 SUB SWAP1 REVERT JUMPDEST CALLER PUSH20 0xFFFFFFFFFFFFFFFFFFFFFFFFFFFFFFFFFFFFFFFF AND DUP2 PUSH1 0x5 ADD PUSH1 0x1 SWAP1 SLOAD SWAP1 PUSH2 0x100 EXP SWAP1 DIV PUSH20 0xFFFFFFFFFFFFFFFFFFFFFFFFFFFFFFFFFFFFFFFF AND PUSH20 0xFFFFFFFFFFFFFFFFFFFFFFFFFFFFFFFFFFFFFFFF AND EQ DUP1 PUSH2 0xFD3 JUMPI POP PUSH1 0x2 PUSH0 SWAP1 SLOAD SWAP1 PUSH2 0x100 EXP SWAP1 DIV PUSH20 0xFFFFFFFFFFFFFFFFFFFFFFFFFFFFFFFFFFFFFFFF AND PUSH20 0xFFFFFFFFFFFFFFFFFFFFFFFFFFFFFFFFFFFFFFFF AND CALLER PUSH20 0xFFFFFFFFFFFFFFFFFFFFFFFFFFFFFFFFFFFFFFFF AND EQ JUMPDEST PUSH2 0x1012 JUMPI PUSH1 0x40 MLOAD PUSH32 0x8C379A000000000000000000000000000000000000000000000000000000000 DUP2 MSTORE PUSH1 0x4 ADD PUSH2 0x1009 SWAP1 PUSH2 0x1E1A JUMP JUMPDEST PUSH1 0x40 MLOAD DUP1 SWAP2 SUB SWAP1 REVERT JUMPDEST PUSH0 DUP2 PUSH1 0x5 ADD PUSH0 PUSH2 0x100 EXP DUP2 SLOAD DUP2 PUSH1 0xFF MUL NOT AND SWAP1 DUP4 ISZERO ISZERO MUL OR SWAP1 SSTORE POP DUP2 PUSH32 0x44D80A438CB4FA3B5AEDBE551CE3D9382E37F446917B783E1DEE70A03B4180E3 PUSH1 0x40 MLOAD PUSH1 0x40 MLOAD DUP1 SWAP2 SUB SWAP1 LOG2 POP POP JUMP JUMPDEST PUSH1 0x2 PUSH0 SWAP1 SLOAD SWAP1 PUSH2 0x100 EXP SWAP1 DIV PUSH20 0xFFFFFFFFFFFFFFFFFFFFFFFFFFFFFFFFFFFFFFFF AND PUSH20 0xFFFFFFFFFFFFFFFFFFFFFFFFFFFFFFFFFFFFFFFF AND CALLER PUSH20 0xFFFFFFFFFFFFFFFFFFFFFFFFFFFFFFFFFFFFFFFF AND EQ PUSH2 0x10ED JUMPI PUSH1 0x40 MLOAD PUSH32 0x8C379A000000000000000000000000000000000000000000000000000000000 DUP2 MSTORE PUSH1 0x4 ADD PUSH2 0x10E4 SWAP1 PUSH2 0x1EA8 JUMP JUMPDEST PUSH1 0x40 MLOAD DUP1 SWAP2 SUB SWAP1 REVERT JUMPDEST PUSH0 PUSH20 0xFFFFFFFFFFFFFFFFFFFFFFFFFFFFFFFFFFFFFFFF AND DUP2 PUSH20 0xFFFFFFFFFFFFFFFFFFFFFFFFFFFFFFFFFFFFFFFF AND SUB PUSH2 0x115B JUMPI PUSH1 0x40 MLOAD PUSH32 0x8C379A000000000000000000000000000000000000000000000000000000000 DUP2 MSTORE PUSH1 0x4 ADD PUSH2 0x1152 SWAP1 PUSH2 0x1F10 JUMP JUMPDEST PUSH1 0x40 MLOAD DUP1 SWAP2 SUB SWAP1 REVERT JUMPDEST DUP1 PUSH1 0x2 PUSH0 PUSH2 0x100 EXP DUP2 SLOAD DUP2 PUSH20 0xFFFFFFFFFFFFFFFFFFFFFFFFFFFFFFFFFFFFFFFF MUL NOT AND SWAP1 DUP4 PUSH20 0xFFFFFFFFFFFFFFFFFFFFFFFFFFFFFFFFFFFFFFFF AND MUL OR SWAP1 SSTORE POP POP JUMP JUMPDEST PUSH0 PUSH1 0x40 MLOAD SWAP1 POP SWAP1 JUMP JUMPDEST PUSH0 PUSH0 REVERT JUMPDEST PUSH0 PUSH0 REVERT JUMPDEST PUSH0 PUSH0 REVERT JUMPDEST PUSH0 PUSH0 REVERT JUMPDEST PUSH0 PUSH1 0x1F NOT PUSH1 0x1F DUP4 ADD AND SWAP1 POP SWAP2 SWAP1 POP JUMP JUMPDEST PUSH32 0x4E487B7100000000000000000000000000000000000000000000000000000000 PUSH0 MSTORE PUSH1 0x41 PUSH1 0x4 MSTORE PUSH1 0x24 PUSH0 REVERT JUMPDEST PUSH2 0x11FD DUP3 PUSH2 0x11B7 JUMP JUMPDEST DUP2 ADD DUP2 DUP2 LT PUSH8 0xFFFFFFFFFFFFFFFF DUP3 GT OR ISZERO PUSH2 0x121C JUMPI PUSH2 0x121B PUSH2 0x11C7 JUMP JUMPDEST JUMPDEST DUP1 PUSH1 0x40 MSTORE POP POP POP JUMP JUMPDEST PUSH0 PUSH2 0x122E PUSH2 0x119E JUMP JUMPDEST SWAP1 POP PUSH2 0x123A DUP3 DUP3 PUSH2 0x11F4 JUMP JUMPDEST SWAP2 SWAP1 POP JUMP JUMPDEST PUSH0 PUSH8 0xFFFFFFFFFFFFFFFF DUP3 GT ISZERO PUSH2 0x1259 JUMPI PUSH2 0x1258 PUSH2 0x11C7 JUMP JUMPDEST JUMPDEST PUSH2 0x1262 DUP3 PUSH2 0x11B7 JUMP JUMPDEST SWAP1 POP PUSH1 0x20 DUP2 ADD SWAP1 POP SWAP2 SWAP1 POP JUMP JUMPDEST DUP3 DUP2 DUP4 CALLDATACOPY PUSH0 DUP4 DUP4 ADD MSTORE POP POP POP JUMP JUMPDEST PUSH0 PUSH2 0x128F PUSH2 0x128A DUP5 PUSH2 0x123F JUMP JUMPDEST PUSH2 0x1225 JUMP JUMPDEST SWAP1 POP DUP3 DUP2 MSTORE PUSH1 0x20 DUP2 ADD DUP5 DUP5 DUP5 ADD GT ISZERO PUSH2 0x12AB JUMPI PUSH2 0x12AA PUSH2 0x11B3 JUMP JUMPDEST JUMPDEST PUSH2 0x12B6 DUP5 DUP3 DUP6 PUSH2 0x126F JUMP JUMPDEST POP SWAP4 SWAP3 POP POP POP JUMP JUMPDEST PUSH0 DUP3 PUSH1 0x1F DUP4 ADD SLT PUSH2 0x12D2 JUMPI PUSH2 0x12D1 PUSH2 0x11AF JUMP JUMPDEST JUMPDEST DUP2 CALLDATALOAD PUSH2 0x12E2 DUP5 DUP3 PUSH1 0x20 DUP7 ADD PUSH2 0x127D JUMP JUMPDEST SWAP2 POP POP SWAP3 SWAP2 POP POP JUMP JUMPDEST PUSH0 PUSH1 0x20 DUP3 DUP5 SUB SLT ISZERO PUSH2 0x1300 JUMPI PUSH2 0x12FF PUSH2 0x11A7 JUMP JUMPDEST JUMPDEST PUSH0 DUP3 ADD CALLDATALOAD PUSH8 0xFFFFFFFFFFFFFFFF DUP2 GT ISZERO PUSH2 0x131D JUMPI PUSH2 0x131C PUSH2 0x11AB JUMP JUMPDEST JUMPDEST PUSH2 0x1329 DUP5 DUP3 DUP6 ADD PUSH2 0x12BE JUMP JUMPDEST SWAP2 POP POP SWAP3 SWAP2 POP POP JUMP JUMPDEST PUSH0 DUP2 ISZERO ISZERO SWAP1 POP SWAP2 SWAP1 POP JUMP JUMPDEST PUSH2 0x1346 DUP2 PUSH2 0x1332 JUMP JUMPDEST DUP3 MSTORE POP POP JUMP JUMPDEST PUSH0 DUP2 SWAP1 POP SWAP2 SWAP1 POP JUMP JUMPDEST PUSH2 0x135E DUP2 PUSH2 0x134C JUMP JUMPDEST DUP3 MSTORE POP POP JUMP JUMPDEST PUSH0 DUP2 MLOAD SWAP1 POP SWAP2 SWAP1 POP JUMP JUMPDEST PUSH0 DUP3 DUP3 MSTORE PUSH1 0x20 DUP3 ADD SWAP1 POP SWAP3 SWAP2 POP POP JUMP JUMPDEST DUP3 DUP2 DUP4 MCOPY PUSH0 DUP4 DUP4 ADD MSTORE POP POP POP JUMP JUMPDEST PUSH0 PUSH2 0x1396 DUP3 PUSH2 0x1364 JUMP JUMPDEST PUSH2 0x13A0 DUP2 DUP6 PUSH2 0x136E JUMP JUMPDEST SWAP4 POP PUSH2 0x13B0 DUP2 DUP6 PUSH1 0x20 DUP7 ADD PUSH2 0x137E JUMP JUMPDEST PUSH2 0x13B9 DUP2 PUSH2 0x11B7 JUMP JUMPDEST DUP5 ADD SWAP2 POP POP SWAP3 SWAP2 POP POP JUMP JUMPDEST PUSH0 DUP2 SWAP1 POP SWAP2 SWAP1 POP JUMP JUMPDEST PUSH2 0x13D6 DUP2 PUSH2 0x13C4 JUMP JUMPDEST DUP3 MSTORE POP POP JUMP JUMPDEST PUSH0 PUSH20 0xFFFFFFFFFFFFFFFFFFFFFFFFFFFFFFFFFFFFFFFF DUP3 AND SWAP1 POP SWAP2 SWAP1 POP JUMP JUMPDEST PUSH0 PUSH2 0x1405 DUP3 PUSH2 0x13DC JUMP JUMPDEST SWAP1 POP SWAP2 SWAP1 POP JUMP JUMPDEST PUSH2 0x1415 DUP2 PUSH2 0x13FB JUMP JUMPDEST DUP3 MSTORE POP POP JUMP JUMPDEST PUSH0 PUSH1 0xE0 DUP3 ADD SWAP1 POP PUSH2 0x142E PUSH0 DUP4 ADD DUP11 PUSH2 0x133D JUMP JUMPDEST PUSH2 0x143B PUSH1 0x20 DUP4 ADD DUP10 PUSH2 0x1355 JUMP JUMPDEST DUP2 DUP2 SUB PUSH1 0x40 DUP4 ADD MSTORE PUSH2 0x144D DUP2 DUP9 PUSH2 0x138C JUMP JUMPDEST SWAP1 POP DUP2 DUP2 SUB PUSH1 0x60 DUP4 ADD MSTORE PUSH2 0x1461 DUP2 DUP8 PUSH2 0x138C JUMP JUMPDEST SWAP1 POP DUP2 DUP2 SUB PUSH1 0x80 DUP4 ADD MSTORE PUSH2 0x1475 DUP2 DUP7 PUSH2 0x138C JUMP JUMPDEST SWAP1 POP PUSH2 0x1484 PUSH1 0xA0 DUP4 ADD DUP6 PUSH2 0x13CD JUMP JUMPDEST PUSH2 0x1491 PUSH1 0xC0 DUP4 ADD DUP5 PUSH2 0x140C JUMP JUMPDEST SWAP9 SWAP8 POP POP POP POP POP POP POP POP JUMP JUMPDEST PUSH2 0x14A6 DUP2 PUSH2 0x134C JUMP JUMPDEST DUP2 EQ PUSH2 0x14B0 JUMPI PUSH0 PUSH0 REVERT JUMPDEST POP JUMP JUMPDEST PUSH0 DUP2 CALLDATALOAD SWAP1 POP PUSH2 0x14C1 DUP2 PUSH2 0x149D JUMP JUMPDEST SWAP3 SWAP2 POP POP JUMP JUMPDEST PUSH0 PUSH1 0x20 DUP3 DUP5 SUB SLT ISZERO PUSH2 0x14DC JUMPI PUSH2 0x14DB PUSH2 0x11A7 JUMP JUMPDEST JUMPDEST PUSH0 PUSH2 0x14E9 DUP5 DUP3 DUP6 ADD PUSH2 0x14B3 JUMP JUMPDEST SWAP2 POP POP SWAP3 SWAP2 POP POP JUMP JUMPDEST PUSH0 PUSH1 0xE0 DUP3 ADD SWAP1 POP DUP2 DUP2 SUB PUSH0 DUP4 ADD MSTORE PUSH2 0x150A DUP2 DUP11 PUSH2 0x138C JUMP JUMPDEST SWAP1 POP DUP2 DUP2 SUB PUSH1 0x20 DUP4 ADD MSTORE PUSH2 0x151E DUP2 DUP10 PUSH2 0x138C JUMP JUMPDEST SWAP1 POP DUP2 DUP2 SUB PUSH1 0x40 DUP4 ADD MSTORE PUSH2 0x1532 DUP2 DUP9 PUSH2 0x138C JUMP JUMPDEST SWAP1 POP DUP2 DUP2 SUB PUSH1 0x60 DUP4 ADD MSTORE PUSH2 0x1546 DUP2 DUP8 PUSH2 0x138C JUMP JUMPDEST SWAP1 POP PUSH2 0x1555 PUSH1 0x80 DUP4 ADD DUP7 PUSH2 0x13CD JUMP JUMPDEST PUSH2 0x1562 PUSH1 0xA0 DUP4 ADD DUP6 PUSH2 0x133D JUMP JUMPDEST PUSH2 0x156F PUSH1 0xC0 DUP4 ADD DUP5 PUSH2 0x140C JUMP JUMPDEST SWAP9 SWAP8 POP POP POP POP POP POP POP POP JUMP JUMPDEST PUSH0 PUSH0 PUSH0 PUSH0 PUSH1 0x80 DUP6 DUP8 SUB SLT ISZERO PUSH2 0x1593 JUMPI PUSH2 0x1592 PUSH2 0x11A7 JUMP JUMPDEST JUMPDEST PUSH0 DUP6 ADD CALLDATALOAD PUSH8 0xFFFFFFFFFFFFFFFF DUP2 GT ISZERO PUSH2 0x15B0 JUMPI PUSH2 0x15AF PUSH2 0x11AB JUMP JUMPDEST JUMPDEST PUSH2 0x15BC DUP8 DUP3 DUP9 ADD PUSH2 0x12BE JUMP JUMPDEST SWAP5 POP POP PUSH1 0x20 DUP6 ADD CALLDATALOAD PUSH8 0xFFFFFFFFFFFFFFFF DUP2 GT ISZERO PUSH2 0x15DD JUMPI PUSH2 0x15DC PUSH2 0x11AB JUMP JUMPDEST JUMPDEST PUSH2 0x15E9 DUP8 DUP3 DUP9 ADD PUSH2 0x12BE JUMP JUMPDEST SWAP4 POP POP PUSH1 0x40 DUP6 ADD CALLDATALOAD PUSH8 0xFFFFFFFFFFFFFFFF DUP2 GT ISZERO PUSH2 0x160A JUMPI PUSH2 0x1609 PUSH2 0x11AB JUMP JUMPDEST JUMPDEST PUSH2 0x1616 DUP8 DUP3 DUP9 ADD PUSH2 0x12BE JUMP JUMPDEST SWAP3 POP POP PUSH1 0x60 DUP6 ADD CALLDATALOAD PUSH8 0xFFFFFFFFFFFFFFFF DUP2 GT ISZERO PUSH2 0x1637 JUMPI PUSH2 0x1636 PUSH2 0x11AB JUMP JUMPDEST JUMPDEST PUSH2 0x1643 DUP8 DUP3 DUP9 ADD PUSH2 0x12BE JUMP JUMPDEST SWAP2 POP POP SWAP3 SWAP6 SWAP2 SWAP5 POP SWAP3 POP JUMP JUMPDEST PUSH0 PUSH1 0x20 DUP3 ADD SWAP1 POP PUSH2 0x1662 PUSH0 DUP4 ADD DUP5 PUSH2 0x1355 JUMP JUMPDEST SWAP3 SWAP2 POP POP JUMP JUMPDEST PUSH0 PUSH1 0x20 DUP3 ADD SWAP1 POP PUSH2 0x167B PUSH0 DUP4 ADD DUP5 PUSH2 0x140C JUMP JUMPDEST SWAP3 SWAP2 POP POP JUMP JUMPDEST PUSH0 PUSH1 0xE0 DUP3 ADD SWAP1 POP PUSH2 0x1694 PUSH0 DUP4 ADD DUP11 PUSH2 0x133D JUMP JUMPDEST DUP2 DUP2 SUB PUSH1 0x20 DUP4 ADD MSTORE PUSH2 0x16A6 DUP2 DUP10 PUSH2 0x138C JUMP JUMPDEST SWAP1 POP DUP2 DUP2 SUB PUSH1 0x40 DUP4 ADD MSTORE PUSH2 0x16BA DUP2 DUP9 PUSH2 0x138C JUMP JUMPDEST SWAP1 POP DUP2 DUP2 SUB PUSH1 0x60 DUP4 ADD MSTORE PUSH2 0x16CE DUP2 DUP8 PUSH2 0x138C JUMP JUMPDEST SWAP1 POP DUP2 DUP2 SUB PUSH1 0x80 DUP4 ADD MSTORE PUSH2 0x16E2 DUP2 DUP7 PUSH2 0x138C JUMP JUMPDEST SWAP1 POP PUSH2 0x16F1 PUSH1 0xA0 DUP4 ADD DUP6 PUSH2 0x13CD JUMP JUMPDEST PUSH2 0x16FE PUSH1 0xC0 DUP4 ADD DUP5 PUSH2 0x140C JUMP JUMPDEST SWAP9 SWAP8 POP POP POP POP POP POP POP POP JUMP JUMPDEST PUSH2 0x1713 DUP2 PUSH2 0x13FB JUMP JUMPDEST DUP2 EQ PUSH2 0x171D JUMPI PUSH0 PUSH0 REVERT JUMPDEST POP JUMP JUMPDEST PUSH0 DUP2 CALLDATALOAD SWAP1 POP PUSH2 0x172E DUP2 PUSH2 0x170A JUMP JUMPDEST SWAP3 SWAP2 POP POP JUMP JUMPDEST PUSH0 PUSH1 0x20 DUP3 DUP5 SUB SLT ISZERO PUSH2 0x1749 JUMPI PUSH2 0x1748 PUSH2 0x11A7 JUMP JUMPDEST JUMPDEST PUSH0 PUSH2 0x1756 DUP5 DUP3 DUP6 ADD PUSH2 0x1720 JUMP JUMPDEST SWAP2 POP POP SWAP3 SWAP2 POP POP JUMP JUMPDEST PUSH0 DUP2 SWAP1 POP SWAP3 SWAP2 POP POP JUMP JUMPDEST PUSH0 PUSH2 0x1773 DUP3 PUSH2 0x1364 JUMP JUMPDEST PUSH2 0x177D DUP2 DUP6 PUSH2 0x175F JUMP JUMPDEST SWAP4 POP PUSH2 0x178D DUP2 DUP6 PUSH1 0x20 DUP7 ADD PUSH2 0x137E JUMP JUMPDEST DUP1 DUP5 ADD SWAP2 POP POP SWAP3 SWAP2 POP POP JUMP JUMPDEST PUSH0 PUSH2 0x17A4 DUP3 DUP5 PUSH2 0x1769 JUMP JUMPDEST SWAP2 POP DUP2 SWAP1 POP SWAP3 SWAP2 POP POP JUMP JUMPDEST PUSH32 0x4E487B7100000000000000000000000000000000000000000000000000000000 PUSH0 MSTORE PUSH1 0x22 PUSH1 0x4 MSTORE PUSH1 0x24 PUSH0 REVERT JUMPDEST PUSH0 PUSH1 0x2 DUP3 DIV SWAP1 POP PUSH1 0x1 DUP3 AND DUP1 PUSH2 0x17F3 JUMPI PUSH1 0x7F DUP3 AND SWAP2 POP JUMPDEST PUSH1 0x20 DUP3 LT DUP2 SUB PUSH2 0x1806 JUMPI PUSH2 0x1805 PUSH2 0x17AF JUMP JUMPDEST JUMPDEST POP SWAP2 SWAP1 POP JUMP JUMPDEST PUSH32 0x53747564656E74206E616D652063616E6E6F7420626520656D70747900000000 PUSH0 DUP3 ADD MSTORE POP JUMP JUMPDEST PUSH0 PUSH2 0x1840 PUSH1 0x1C DUP4 PUSH2 0x136E JUMP JUMPDEST SWAP2 POP PUSH2 0x184B DUP3 PUSH2 0x180C JUMP JUMPDEST PUSH1 0x20 DUP3 ADD SWAP1 POP SWAP2 SWAP1 POP JUMP JUMPDEST PUSH0 PUSH1 0x20 DUP3 ADD SWAP1 POP DUP2 DUP2 SUB PUSH0 DUP4 ADD MSTORE PUSH2 0x186D DUP2 PUSH2 0x1834 JUMP JUMPDEST SWAP1 POP SWAP2 SWAP1 POP JUMP JUMPDEST PUSH32 0x436F75727365206E616D652063616E6E6F7420626520656D7074790000000000 PUSH0 DUP3 ADD MSTORE POP JUMP JUMPDEST PUSH0 PUSH2 0x18A8 PUSH1 0x1B DUP4 PUSH2 0x136E JUMP JUMPDEST SWAP2 POP PUSH2 0x18B3 DUP3 PUSH2 0x1874 JUMP JUMPDEST PUSH1 0x20 DUP3 ADD SWAP1 POP SWAP2 SWAP1 POP JUMP JUMPDEST PUSH0 PUSH1 0x20 DUP3 ADD SWAP1 POP DUP2 DUP2 SUB PUSH0 DUP4 ADD MSTORE PUSH2 0x18D5 DUP2 PUSH2 0x189C JUMP JUMPDEST SWAP1 POP SWAP2 SWAP1 POP JUMP JUMPDEST PUSH32 0x4950465320686173682063616E6E6F7420626520656D70747900000000000000 PUSH0 DUP3 ADD MSTORE POP JUMP JUMPDEST PUSH0 PUSH2 0x1910 PUSH1 0x19 DUP4 PUSH2 0x136E JUMP JUMPDEST SWAP2 POP PUSH2 0x191B DUP3 PUSH2 0x18DC JUMP JUMPDEST PUSH1 0x20 DUP3 ADD SWAP1 POP SWAP2 SWAP1 POP JUMP JUMPDEST PUSH0 PUSH1 0x20 DUP3 ADD SWAP1 POP DUP2 DUP2 SUB PUSH0 DUP4 ADD MSTORE PUSH2 0x193D DUP2 PUSH2 0x1904 JUMP JUMPDEST SWAP1 POP SWAP2 SWAP1 POP JUMP JUMPDEST PUSH0 DUP2 SWAP1 POP SWAP2 SWAP1 POP JUMP JUMPDEST PUSH2 0x195E PUSH2 0x1959 DUP3 PUSH2 0x13C4 JUMP JUMPDEST PUSH2 0x1944 JUMP JUMPDEST DUP3 MSTORE POP POP JUMP JUMPDEST PUSH0 DUP2 PUSH1 0x60 SHL SWAP1 POP SWAP2 SWAP1 POP JUMP JUMPDEST PUSH0 PUSH2 0x197A DUP3 PUSH2 0x1964 JUMP JUMPDEST SWAP1 POP SWAP2 SWAP1 POP JUMP JUMPDEST PUSH0 PUSH2 0x198B DUP3 PUSH2 0x1970 JUMP JUMPDEST SWAP1 POP SWAP2 SWAP1 POP JUMP JUMPDEST PUSH2 0x19A3 PUSH2 0x199E DUP3 PUSH2 0x13FB JUMP JUMPDEST PUSH2 0x1981 JUMP JUMPDEST DUP3 MSTORE POP POP JUMP JUMPDEST PUSH0 PUSH2 0x19B4 DUP3 DUP9 PUSH2 0x1769 JUMP JUMPDEST SWAP2 POP PUSH2 0x19C0 DUP3 DUP8 PUSH2 0x1769 JUMP JUMPDEST SWAP2 POP PUSH2 0x19CC DUP3 DUP7 PUSH2 0x1769 JUMP JUMPDEST SWAP2 POP PUSH2 0x19D8 DUP3 DUP6 PUSH2 0x194D JUMP JUMPDEST PUSH1 0x20 DUP3 ADD SWAP2 POP PUSH2 0x19E8 DUP3 DUP5 PUSH2 0x1992 JUMP JUMPDEST PUSH1 0x14 DUP3 ADD SWAP2 POP DUP2 SWAP1 POP SWAP7 SWAP6 POP POP POP POP POP POP JUMP JUMPDEST PUSH32 0x436572746966696361746520616C726561647920657869737473000000000000 PUSH0 DUP3 ADD MSTORE POP JUMP JUMPDEST PUSH0 PUSH2 0x1A2F PUSH1 0x1A DUP4 PUSH2 0x136E JUMP JUMPDEST SWAP2 POP PUSH2 0x1A3A DUP3 PUSH2 0x19FB JUMP JUMPDEST PUSH1 0x20 DUP3 ADD SWAP1 POP SWAP2 SWAP1 POP JUMP JUMPDEST PUSH0 PUSH1 0x20 DUP3 ADD SWAP1 POP DUP2 DUP2 SUB PUSH0 DUP4 ADD MSTORE PUSH2 0x1A5C DUP2 PUSH2 0x1A23 JUMP JUMPDEST SWAP1 POP SWAP2 SWAP1 POP JUMP JUMPDEST PUSH0 DUP2 SWAP1 POP DUP2 PUSH0 MSTORE PUSH1 0x20 PUSH0 KECCAK256 SWAP1 POP SWAP2 SWAP1 POP JUMP JUMPDEST PUSH0 PUSH1 0x20 PUSH1 0x1F DUP4 ADD DIV SWAP1 POP SWAP2 SWAP1 POP JUMP JUMPDEST PUSH0 DUP3 DUP3 SHL SWAP1 POP SWAP3 SWAP2 POP POP JUMP JUMPDEST PUSH0 PUSH1 0x8 DUP4 MUL PUSH2 0x1ABF PUSH32 0xFFFFFFFFFFFFFFFFFFFFFFFFFFFFFFFFFFFFFFFFFFFFFFFFFFFFFFFFFFFFFFFF DUP3 PUSH2 0x1A84 JUMP JUMPDEST PUSH2 0x1AC9 DUP7 DUP4 PUSH2 0x1A84 JUMP JUMPDEST SWAP6 POP DUP1 NOT DUP5 AND SWAP4 POP DUP1 DUP7 AND DUP5 OR SWAP3 POP POP POP SWAP4 SWAP3 POP POP POP JUMP JUMPDEST PUSH0 DUP2 SWAP1 POP SWAP2 SWAP1 POP JUMP JUMPDEST PUSH0 PUSH2 0x1B04 PUSH2 0x1AFF PUSH2 0x1AFA DUP5 PUSH2 0x13C4 JUMP JUMPDEST PUSH2 0x1AE1 JUMP JUMPDEST PUSH2 0x13C4 JUMP JUMPDEST SWAP1 POP SWAP2 SWAP1 POP JUMP JUMPDEST PUSH0 DUP2 SWAP1 POP SWAP2 SWAP1 POP JUMP JUMPDEST PUSH2 0x1B1D DUP4 PUSH2 0x1AEA JUMP JUMPDEST PUSH2 0x1B31 PUSH2 0x1B29 DUP3 PUSH2 0x1B0B JUMP JUMPDEST DUP5 DUP5 SLOAD PUSH2 0x1A90 JUMP JUMPDEST DUP3 SSTORE POP POP POP POP JUMP JUMPDEST PUSH0 PUSH0 SWAP1 POP SWAP1 JUMP JUMPDEST PUSH2 0x1B48 PUSH2 0x1B39 JUMP JUMPDEST PUSH2 0x1B53 DUP2 DUP5 DUP5 PUSH2 0x1B14 JUMP JUMPDEST POP POP POP JUMP JUMPDEST JUMPDEST DUP2 DUP2 LT ISZERO PUSH2 0x1B76 JUMPI PUSH2 0x1B6B PUSH0 DUP3 PUSH2 0x1B40 JUMP JUMPDEST PUSH1 0x1 DUP2 ADD SWAP1 POP PUSH2 0x1B59 JUMP JUMPDEST POP POP JUMP JUMPDEST PUSH1 0x1F DUP3 GT ISZERO PUSH2 0x1BBB JUMPI PUSH2 0x1B8C DUP2 PUSH2 0x1A63 JUMP JUMPDEST PUSH2 0x1B95 DUP5 PUSH2 0x1A75 JUMP JUMPDEST DUP2 ADD PUSH1 0x20 DUP6 LT ISZERO PUSH2 0x1BA4 JUMPI DUP2 SWAP1 POP JUMPDEST PUSH2 0x1BB8 PUSH2 0x1BB0 DUP6 PUSH2 0x1A75 JUMP JUMPDEST DUP4 ADD DUP3 PUSH2 0x1B58 JUMP JUMPDEST POP POP JUMPDEST POP POP POP JUMP JUMPDEST PUSH0 DUP3 DUP3 SHR SWAP1 POP SWAP3 SWAP2 POP POP JUMP JUMPDEST PUSH0 PUSH2 0x1BDB PUSH0 NOT DUP5 PUSH1 0x8 MUL PUSH2 0x1BC0 JUMP JUMPDEST NOT DUP1 DUP4 AND SWAP2 POP POP SWAP3 SWAP2 POP POP JUMP JUMPDEST PUSH0 PUSH2 0x1BF3 DUP4 DUP4 PUSH2 0x1BCC JUMP JUMPDEST SWAP2 POP DUP3 PUSH1 0x2 MUL DUP3 OR SWAP1 POP SWAP3 SWAP2 POP POP JUMP JUMPDEST PUSH2 0x1C0C DUP3 PUSH2 0x1364 JUMP JUMPDEST PUSH8 0xFFFFFFFFFFFFFFFF DUP2 GT ISZERO PUSH2 0x1C25 JUMPI PUSH2 0x1C24 PUSH2 0x11C7 JUMP JUMPDEST JUMPDEST PUSH2 0x1C2F DUP3 SLOAD PUSH2 0x17DC JUMP JUMPDEST PUSH2 0x1C3A DUP3 DUP3 DUP6 PUSH2 0x1B7A JUMP JUMPDEST PUSH0 PUSH1 0x20 SWAP1 POP PUSH1 0x1F DUP4 GT PUSH1 0x1 DUP2 EQ PUSH2 0x1C6B JUMPI PUSH0 DUP5 ISZERO PUSH2 0x1C59 JUMPI DUP3 DUP8 ADD MLOAD SWAP1 POP JUMPDEST PUSH2 0x1C63 DUP6 DUP3 PUSH2 0x1BE8 JUMP JUMPDEST DUP7 SSTORE POP PUSH2 0x1CCA JUMP JUMPDEST PUSH1 0x1F NOT DUP5 AND PUSH2 0x1C79 DUP7 PUSH2 0x1A63 JUMP JUMPDEST PUSH0 JUMPDEST DUP3 DUP2 LT ISZERO PUSH2 0x1CA0 JUMPI DUP5 DUP10 ADD MLOAD DUP3 SSTORE PUSH1 0x1 DUP3 ADD SWAP2 POP PUSH1 0x20 DUP6 ADD SWAP5 POP PUSH1 0x20 DUP2 ADD SWAP1 POP PUSH2 0x1C7B JUMP JUMPDEST DUP7 DUP4 LT ISZERO PUSH2 0x1CBD JUMPI DUP5 DUP10 ADD MLOAD PUSH2 0x1CB9 PUSH1 0x1F DUP10 AND DUP3 PUSH2 0x1BCC JUMP JUMPDEST DUP4 SSTORE POP JUMPDEST PUSH1 0x1 PUSH1 0x2 DUP9 MUL ADD DUP9 SSTORE POP POP POP JUMPDEST POP POP POP POP POP POP JUMP JUMPDEST PUSH0 PUSH1 0x60 DUP3 ADD SWAP1 POP DUP2 DUP2 SUB PUSH0 DUP4 ADD MSTORE PUSH2 0x1CEA DUP2 DUP7 PUSH2 0x138C JUMP JUMPDEST SWAP1 POP DUP2 DUP2 SUB PUSH1 0x20 DUP4 ADD MSTORE PUSH2 0x1CFE DUP2 DUP6 PUSH2 0x138C JUMP JUMPDEST SWAP1 POP DUP2 DUP2 SUB PUSH1 0x40 DUP4 ADD MSTORE PUSH2 0x1D12 DUP2 DUP5 PUSH2 0x138C JUMP JUMPDEST SWAP1 POP SWAP5 SWAP4 POP POP POP POP JUMP JUMPDEST PUSH32 0x436572746966696361746520646F6573206E6F74206578697374206F72206973 PUSH0 DUP3 ADD MSTORE PUSH32 0x20616C7265616479207265766F6B656400000000000000000000000000000000 PUSH1 0x20 DUP3 ADD MSTORE POP JUMP JUMPDEST PUSH0 PUSH2 0x1D76 PUSH1 0x30 DUP4 PUSH2 0x136E JUMP JUMPDEST SWAP2 POP PUSH2 0x1D81 DUP3 PUSH2 0x1D1C JUMP JUMPDEST PUSH1 0x40 DUP3 ADD SWAP1 POP SWAP2 SWAP1 POP JUMP JUMPDEST PUSH0 PUSH1 0x20 DUP3 ADD SWAP1 POP DUP2 DUP2 SUB PUSH0 DUP4 ADD MSTORE PUSH2 0x1DA3 DUP2 PUSH2 0x1D6A JUMP JUMPDEST SWAP1 POP SWAP2 SWAP1 POP JUMP JUMPDEST PUSH32 0x4F6E6C792074686520697373756572206F72206F776E65722063616E20726576 PUSH0 DUP3 ADD MSTORE PUSH32 0x6F6B652074686973206365727469666963617465000000000000000000000000 PUSH1 0x20 DUP3 ADD MSTORE POP JUMP JUMPDEST PUSH0 PUSH2 0x1E04 PUSH1 0x34 DUP4 PUSH2 0x136E JUMP JUMPDEST SWAP2 POP PUSH2 0x1E0F DUP3 PUSH2 0x1DAA JUMP JUMPDEST PUSH1 0x40 DUP3 ADD SWAP1 POP SWAP2 SWAP1 POP JUMP JUMPDEST PUSH0 PUSH1 0x20 DUP3 ADD SWAP1 POP DUP2 DUP2 SUB PUSH0 DUP4 ADD MSTORE PUSH2 0x1E31 DUP2 PUSH2 0x1DF8 JUMP JUMPDEST SWAP1 POP SWAP2 SWAP1 POP JUMP JUMPDEST PUSH32 0x4F6E6C79206F776E65722063616E20706572666F726D20746869732061637469 PUSH0 DUP3 ADD MSTORE PUSH32 0x6F6E000000000000000000000000000000000000000000000000000000000000 PUSH1 0x20 DUP3 ADD MSTORE POP JUMP JUMPDEST PUSH0 PUSH2 0x1E92 PUSH1 0x22 DUP4 PUSH2 0x136E JUMP JUMPDEST SWAP2 POP PUSH2 0x1E9D DUP3 PUSH2 0x1E38 JUMP JUMPDEST PUSH1 0x40 DUP3 ADD SWAP1 POP SWAP2 SWAP1 POP JUMP JUMPDEST PUSH0 PUSH1 0x20 DUP3 ADD SWAP1 POP DUP2 DUP2 SUB PUSH0 DUP4 ADD MSTORE PUSH2 0x1EBF DUP2 PUSH2 0x1E86 JUMP JUMPDEST SWAP1 POP SWAP2 SWAP1 POP JUMP JUMPDEST PUSH32 0x4E6577206F776E65722063616E6E6F74206265207A65726F2061646472657373 PUSH0 DUP3 ADD MSTORE POP JUMP JUMPDEST PUSH0 PUSH2 0x1EFA PUSH1 0x20 DUP4 PUSH2 0x136E JUMP JUMPDEST SWAP2 POP PUSH2 0x1F05 DUP3 PUSH2 0x1EC6 JUMP JUMPDEST PUSH1 0x20 DUP3 ADD SWAP1 POP SWAP2 SWAP1 POP JUMP JUMPDEST PUSH0 PUSH1 0x20 DUP3 ADD SWAP1 POP DUP2 DUP2 SUB PUSH0 DUP4 ADD MSTORE PUSH2 0x1F27 DUP2 PUSH2 0x1EEE JUMP JUMPDEST SWAP1 POP SWAP2 SWAP1 POP JUMP INVALID LOG2 PUSH5 0x6970667358 0x22 SLT KECCAK256 0x4F CALLDATALOAD STATICCALL SMOD PUSH19 0xC0E4A5BFF90E73235DBDEDFCBFEE5D0F3D123E CALLCODE CALLVALUE BLOBHASH SUB ADDRESS 0x1E 0xAD 0xC PUSH5 0x736F6C6343 STOP ADDMOD 0x1E STOP CALLER "
				},
				"gasEstimates": {
					"creation": {
						"codeDepositCost": "1607200",
						"executionCost": "25950",
						"totalCost": "1633150"
					},
					"external": {
						"certificates(bytes32)": "infinite",
						"cidToCertificateId(string)": "infinite",
						"issueCertificate(string,string,string,string)": "infinite",
						"owner()": "2508",
						"revokeCertificate(bytes32)": "32516",
						"transferOwnership(address)": "26984",
						"verifyByCID(string)": "infinite",
						"verifyById(bytes32)": "infinite"
					}
				},
				"methodIdentifiers": {
					"certificates(bytes32)": "742f0688",
					"cidToCertificateId(string)": "836ae771",
					"issueCertificate(string,string,string,string)": "818a2994",
					"owner()": "8da5cb5b",
					"revokeCertificate(bytes32)": "c6cbc52a",
					"transferOwnership(address)": "f2fde38b",
					"verifyByCID(string)": "2451a282",
					"verifyById(bytes32)": "abe692d2"
				}
			},
			"storageLayout": {
				"storage": [
					{
						"astId": 21,
						"contract": "contracts/CertificateVerifier.sol:CertificateVerifier",
						"label": "certificates",
						"offset": 0,
						"slot": "0",
						"type": "t_mapping(t_bytes32,t_struct(Certificate)16_storage)"
					},
					{
						"astId": 25,
						"contract": "contracts/CertificateVerifier.sol:CertificateVerifier",
						"label": "cidToCertificateId",
						"offset": 0,
						"slot": "1",
						"type": "t_mapping(t_string_memory_ptr,t_bytes32)"
					},
					{
						"astId": 27,
						"contract": "contracts/CertificateVerifier.sol:CertificateVerifier",
						"label": "owner",
						"offset": 0,
						"slot": "2",
						"type": "t_address"
					}
				],
				"types": {
					"t_address": {
						"encoding": "inplace",
						"label": "address",
						"numberOfBytes": "20"
					},
					"t_bool": {
						"encoding": "inplace",
						"label": "bool",
						"numberOfBytes": "1"
					},
					"t_bytes32": {
						"encoding": "inplace",
						"label": "bytes32",
						"numberOfBytes": "32"
					},
					"t_mapping(t_bytes32,t_struct(Certificate)16_storage)": {
						"encoding": "mapping",
						"key": "t_bytes32",
						"label": "mapping(bytes32 => struct CertificateVerifier.Certificate)",
						"numberOfBytes": "32",
						"value": "t_struct(Certificate)16_storage"
					},
					"t_mapping(t_string_memory_ptr,t_bytes32)": {
						"encoding": "mapping",
						"key": "t_string_memory_ptr",
						"label": "mapping(string => bytes32)",
						"numberOfBytes": "32",
						"value": "t_bytes32"
					},
					"t_string_memory_ptr": {
						"encoding": "bytes",
						"label": "string",
						"numberOfBytes": "32"
					},
					"t_string_storage": {
						"encoding": "bytes",
						"label": "string",
						"numberOfBytes": "32"
					},
					"t_struct(Certificate)16_storage": {
						"encoding": "inplace",
						"label": "struct CertificateVerifier.Certificate",
						"members": [
							{
								"astId": 3,
								"contract": "contracts/CertificateVerifier.sol:CertificateVerifier",
								"label": "issuerName",
								"offset": 0,
								"slot": "0",
								"type": "t_string_storage"
							},
							{
								"astId": 5,
								"contract": "contracts/CertificateVerifier.sol:CertificateVerifier",
								"label": "studentName",
								"offset": 0,
								"slot": "1",
								"type": "t_string_storage"
							},
							{
								"astId": 7,
								"contract": "contracts/CertificateVerifier.sol:CertificateVerifier",
								"label": "courseName",
								"offset": 0,
								"slot": "2",
								"type": "t_string_storage"
							},
							{
								"astId": 9,
								"contract": "contracts/CertificateVerifier.sol:CertificateVerifier",
								"label": "ipfsHash",
								"offset": 0,
								"slot": "3",
								"type": "t_string_storage"
							},
							{
								"astId": 11,
								"contract": "contracts/CertificateVerifier.sol:CertificateVerifier",
								"label": "issueDate",
								"offset": 0,
								"slot": "4",
								"type": "t_uint256"
							},
							{
								"astId": 13,
								"contract": "contracts/CertificateVerifier.sol:CertificateVerifier",
								"label": "isValid",
								"offset": 0,
								"slot": "5",
								"type": "t_bool"
							},
							{
								"astId": 15,
								"contract": "contracts/CertificateVerifier.sol:CertificateVerifier",
								"label": "issuer",
								"offset": 1,
								"slot": "5",
								"type": "t_address"
							}
						],
						"numberOfBytes": "192"
					},
					"t_uint256": {
						"encoding": "inplace",
						"label": "uint256",
						"numberOfBytes": "32"
					}
				}
			},
			"userdoc": {
				"kind": "user",
				"methods": {},
				"version": 1
			}
		}
	}
}